{
  "abi": [
    {
      "anonymous": false,
      "inputs": [
        {
          "indexed": false,
          "internalType": "address",
          "name": "governor",
          "type": "address"
        }
      ],
      "name": "AcceptGovernor",
      "type": "event"
    },
    {
      "anonymous": false,
      "inputs": [
        {
          "indexed": false,
          "internalType": "address",
          "name": "token",
          "type": "address"
        },
        {
          "indexed": false,
          "internalType": "address",
          "name": "cToken",
          "type": "address"
        }
      ],
      "name": "AddBank",
      "type": "event"
    },
    {
      "anonymous": false,
      "inputs": [
        {
          "indexed": false,
          "internalType": "uint256",
          "name": "positionId",
          "type": "uint256"
        },
        {
          "indexed": false,
          "internalType": "address",
          "name": "caller",
          "type": "address"
        },
        {
          "indexed": false,
          "internalType": "address",
          "name": "token",
          "type": "address"
        },
        {
          "indexed": false,
          "internalType": "uint256",
          "name": "amount",
          "type": "uint256"
        },
        {
          "indexed": false,
          "internalType": "uint256",
          "name": "share",
          "type": "uint256"
        }
      ],
      "name": "Borrow",
      "type": "event"
    },
    {
      "anonymous": false,
      "inputs": [
        {
          "indexed": false,
          "internalType": "uint256",
          "name": "positionId",
          "type": "uint256"
        },
        {
          "indexed": false,
          "internalType": "address",
          "name": "liquidator",
          "type": "address"
        },
        {
          "indexed": false,
          "internalType": "address",
          "name": "debtToken",
          "type": "address"
        },
        {
          "indexed": false,
          "internalType": "uint256",
          "name": "amount",
          "type": "uint256"
        },
        {
          "indexed": false,
          "internalType": "uint256",
          "name": "share",
          "type": "uint256"
        },
        {
          "indexed": false,
          "internalType": "uint256",
          "name": "bounty",
          "type": "uint256"
        }
      ],
      "name": "Liquidate",
      "type": "event"
    },
    {
      "anonymous": false,
      "inputs": [
        {
          "indexed": false,
          "internalType": "uint256",
          "name": "positionId",
          "type": "uint256"
        },
        {
          "indexed": false,
          "internalType": "address",
          "name": "caller",
          "type": "address"
        },
        {
          "indexed": false,
          "internalType": "address",
          "name": "token",
          "type": "address"
        },
        {
          "indexed": false,
          "internalType": "uint256",
          "name": "id",
          "type": "uint256"
        },
        {
          "indexed": false,
          "internalType": "uint256",
          "name": "amount",
          "type": "uint256"
        }
      ],
      "name": "PutCollateral",
      "type": "event"
    },
    {
      "anonymous": false,
      "inputs": [
        {
          "indexed": false,
          "internalType": "uint256",
          "name": "positionId",
          "type": "uint256"
        },
        {
          "indexed": false,
          "internalType": "address",
          "name": "caller",
          "type": "address"
        },
        {
          "indexed": false,
          "internalType": "address",
          "name": "token",
          "type": "address"
        },
        {
          "indexed": false,
          "internalType": "uint256",
          "name": "amount",
          "type": "uint256"
        },
        {
          "indexed": false,
          "internalType": "uint256",
          "name": "share",
          "type": "uint256"
        }
      ],
      "name": "Repay",
      "type": "event"
    },
    {
      "anonymous": false,
      "inputs": [
        {
          "indexed": false,
          "internalType": "uint256",
          "name": "feeBps",
          "type": "uint256"
        }
      ],
      "name": "SetFeeBps",
      "type": "event"
    },
    {
      "anonymous": false,
      "inputs": [
        {
          "indexed": false,
          "internalType": "address",
          "name": "governor",
          "type": "address"
        }
      ],
      "name": "SetGovernor",
      "type": "event"
    },
    {
      "anonymous": false,
      "inputs": [
        {
          "indexed": false,
          "internalType": "address",
          "name": "oracle",
          "type": "address"
        }
      ],
      "name": "SetOracle",
      "type": "event"
    },
    {
      "anonymous": false,
      "inputs": [
        {
          "indexed": false,
          "internalType": "address",
          "name": "pendingGovernor",
          "type": "address"
        }
      ],
      "name": "SetPendingGovernor",
      "type": "event"
    },
    {
      "anonymous": false,
      "inputs": [
        {
          "indexed": false,
          "internalType": "uint256",
          "name": "positionId",
          "type": "uint256"
        },
        {
          "indexed": false,
          "internalType": "address",
          "name": "caller",
          "type": "address"
        },
        {
          "indexed": false,
          "internalType": "address",
          "name": "token",
          "type": "address"
        },
        {
          "indexed": false,
          "internalType": "uint256",
          "name": "id",
          "type": "uint256"
        },
        {
          "indexed": false,
          "internalType": "uint256",
          "name": "amount",
          "type": "uint256"
        }
      ],
      "name": "TakeCollateral",
      "type": "event"
    },
    {
      "anonymous": false,
      "inputs": [
        {
          "indexed": false,
          "internalType": "address",
          "name": "user",
          "type": "address"
        },
        {
          "indexed": false,
          "internalType": "address",
          "name": "token",
          "type": "address"
        },
        {
          "indexed": false,
          "internalType": "uint256",
          "name": "amount",
          "type": "uint256"
        }
      ],
      "name": "WithdrawReserve",
      "type": "event"
    },
    {
      "inputs": [],
      "name": "EXECUTOR",
      "outputs": [
        {
          "internalType": "address",
          "name": "",
          "type": "address"
        }
      ],
      "stateMutability": "view",
      "type": "function"
    },
    {
      "inputs": [],
      "name": "POSITION_ID",
      "outputs": [
        {
          "internalType": "uint256",
          "name": "",
          "type": "uint256"
        }
      ],
      "stateMutability": "view",
      "type": "function"
    },
    {
      "inputs": [],
      "name": "SPELL",
      "outputs": [
        {
          "internalType": "address",
          "name": "",
          "type": "address"
        }
      ],
      "stateMutability": "view",
      "type": "function"
    },
    {
      "inputs": [],
      "name": "_GENERAL_LOCK",
      "outputs": [
        {
          "internalType": "uint256",
          "name": "",
          "type": "uint256"
        }
      ],
      "stateMutability": "view",
      "type": "function"
    },
    {
      "inputs": [],
      "name": "_IN_EXEC_LOCK",
      "outputs": [
        {
          "internalType": "uint256",
          "name": "",
          "type": "uint256"
        }
      ],
      "stateMutability": "view",
      "type": "function"
    },
    {
      "inputs": [],
      "name": "acceptGovernor",
      "outputs": [],
      "stateMutability": "nonpayable",
      "type": "function"
    },
    {
      "inputs": [
        {
          "internalType": "address",
          "name": "token",
          "type": "address"
        }
      ],
      "name": "accrue",
      "outputs": [],
      "stateMutability": "nonpayable",
      "type": "function"
    },
    {
      "inputs": [
        {
          "internalType": "address[]",
          "name": "tokens",
          "type": "address[]"
        }
      ],
      "name": "accrueAll",
      "outputs": [],
      "stateMutability": "nonpayable",
      "type": "function"
    },
    {
      "inputs": [
        {
          "internalType": "address",
          "name": "token",
          "type": "address"
        },
        {
          "internalType": "address",
          "name": "cToken",
          "type": "address"
        }
      ],
      "name": "addBank",
      "outputs": [],
      "stateMutability": "nonpayable",
      "type": "function"
    },
    {
      "inputs": [
        {
          "internalType": "uint256",
          "name": "",
          "type": "uint256"
        }
      ],
      "name": "allBanks",
      "outputs": [
        {
          "internalType": "address",
          "name": "",
          "type": "address"
        }
      ],
      "stateMutability": "view",
      "type": "function"
    },
    {
      "inputs": [],
      "name": "allowBorrowStatus",
      "outputs": [
        {
          "internalType": "bool",
          "name": "",
          "type": "bool"
        }
      ],
      "stateMutability": "view",
      "type": "function"
    },
    {
      "inputs": [],
      "name": "allowContractCalls",
      "outputs": [
        {
          "internalType": "bool",
          "name": "",
          "type": "bool"
        }
      ],
      "stateMutability": "view",
      "type": "function"
    },
    {
      "inputs": [],
      "name": "allowRepayStatus",
      "outputs": [
        {
          "internalType": "bool",
          "name": "",
          "type": "bool"
        }
      ],
      "stateMutability": "view",
      "type": "function"
    },
    {
      "inputs": [],
      "name": "bankStatus",
      "outputs": [
        {
          "internalType": "uint256",
          "name": "",
          "type": "uint256"
        }
      ],
      "stateMutability": "view",
      "type": "function"
    },
    {
      "inputs": [
        {
          "internalType": "address",
          "name": "",
          "type": "address"
        }
      ],
      "name": "banks",
      "outputs": [
        {
          "internalType": "bool",
          "name": "isListed",
          "type": "bool"
        },
        {
          "internalType": "uint8",
          "name": "index",
          "type": "uint8"
        },
        {
          "internalType": "address",
          "name": "cToken",
          "type": "address"
        },
        {
          "internalType": "uint256",
          "name": "reserve",
          "type": "uint256"
        },
        {
          "internalType": "uint256",
          "name": "totalDebt",
          "type": "uint256"
        },
        {
          "internalType": "uint256",
          "name": "totalShare",
          "type": "uint256"
        }
      ],
      "stateMutability": "view",
      "type": "function"
    },
    {
      "inputs": [
        {
          "internalType": "address",
          "name": "token",
          "type": "address"
        },
        {
          "internalType": "uint256",
          "name": "amount",
          "type": "uint256"
        }
      ],
      "name": "borrow",
      "outputs": [],
      "stateMutability": "nonpayable",
      "type": "function"
    },
    {
      "inputs": [
        {
          "internalType": "uint256",
          "name": "positionId",
          "type": "uint256"
        },
        {
          "internalType": "address",
          "name": "token",
          "type": "address"
        }
      ],
      "name": "borrowBalanceCurrent",
      "outputs": [
        {
          "internalType": "uint256",
          "name": "",
          "type": "uint256"
        }
      ],
      "stateMutability": "nonpayable",
      "type": "function"
    },
    {
      "inputs": [
        {
          "internalType": "uint256",
          "name": "positionId",
          "type": "uint256"
        },
        {
          "internalType": "address",
          "name": "token",
          "type": "address"
        }
      ],
      "name": "borrowBalanceStored",
      "outputs": [
        {
          "internalType": "uint256",
          "name": "",
          "type": "uint256"
        }
      ],
      "stateMutability": "view",
      "type": "function"
    },
    {
      "inputs": [
        {
          "internalType": "address",
          "name": "",
          "type": "address"
        }
      ],
      "name": "cTokenInBank",
      "outputs": [
        {
          "internalType": "bool",
          "name": "",
          "type": "bool"
        }
      ],
      "stateMutability": "view",
      "type": "function"
    },
    {
      "inputs": [],
      "name": "caster",
      "outputs": [
        {
          "internalType": "address",
          "name": "",
          "type": "address"
        }
      ],
      "stateMutability": "view",
      "type": "function"
    },
    {
      "inputs": [
        {
          "internalType": "uint256",
          "name": "positionId",
          "type": "uint256"
        },
        {
          "internalType": "address",
          "name": "spell",
          "type": "address"
        },
        {
          "internalType": "bytes",
          "name": "data",
          "type": "bytes"
        }
      ],
      "name": "execute",
      "outputs": [
        {
          "internalType": "uint256",
          "name": "",
          "type": "uint256"
        }
      ],
      "stateMutability": "payable",
      "type": "function"
    },
    {
      "inputs": [],
      "name": "feeBps",
      "outputs": [
        {
          "internalType": "uint256",
          "name": "",
          "type": "uint256"
        }
      ],
      "stateMutability": "view",
      "type": "function"
    },
    {
      "inputs": [
        {
          "internalType": "address",
          "name": "token",
          "type": "address"
        }
      ],
      "name": "getBankInfo",
      "outputs": [
        {
          "internalType": "bool",
          "name": "isListed",
          "type": "bool"
        },
        {
          "internalType": "address",
          "name": "cToken",
          "type": "address"
        },
        {
          "internalType": "uint256",
          "name": "reserve",
          "type": "uint256"
        },
        {
          "internalType": "uint256",
          "name": "totalDebt",
          "type": "uint256"
        },
        {
          "internalType": "uint256",
          "name": "totalShare",
          "type": "uint256"
        }
      ],
      "stateMutability": "view",
      "type": "function"
    },
    {
      "inputs": [
        {
          "internalType": "uint256",
          "name": "positionId",
          "type": "uint256"
        }
      ],
      "name": "getBorrowCELOValue",
      "outputs": [
        {
          "internalType": "uint256",
          "name": "",
          "type": "uint256"
        }
      ],
      "stateMutability": "view",
      "type": "function"
    },
    {
      "inputs": [
        {
          "internalType": "uint256",
          "name": "positionId",
          "type": "uint256"
        }
      ],
      "name": "getCollateralCELOValue",
      "outputs": [
        {
          "internalType": "uint256",
          "name": "",
          "type": "uint256"
        }
      ],
      "stateMutability": "view",
      "type": "function"
    },
    {
      "inputs": [],
      "name": "getCurrentPositionInfo",
      "outputs": [
        {
          "internalType": "address",
          "name": "owner",
          "type": "address"
        },
        {
          "internalType": "address",
          "name": "collToken",
          "type": "address"
        },
        {
          "internalType": "uint256",
          "name": "collId",
          "type": "uint256"
        },
        {
          "internalType": "uint256",
          "name": "collateralSize",
          "type": "uint256"
        }
      ],
      "stateMutability": "view",
      "type": "function"
    },
    {
      "inputs": [
        {
          "internalType": "uint256",
          "name": "positionId",
          "type": "uint256"
        },
        {
          "internalType": "address",
          "name": "token",
          "type": "address"
        }
      ],
      "name": "getPositionDebtShareOf",
      "outputs": [
        {
          "internalType": "uint256",
          "name": "",
          "type": "uint256"
        }
      ],
      "stateMutability": "view",
      "type": "function"
    },
    {
      "inputs": [
        {
          "internalType": "uint256",
          "name": "positionId",
          "type": "uint256"
        }
      ],
      "name": "getPositionDebts",
      "outputs": [
        {
          "internalType": "address[]",
          "name": "tokens",
          "type": "address[]"
        },
        {
          "internalType": "uint256[]",
          "name": "debts",
          "type": "uint256[]"
        }
      ],
      "stateMutability": "view",
      "type": "function"
    },
    {
      "inputs": [
        {
          "internalType": "uint256",
          "name": "positionId",
          "type": "uint256"
        }
      ],
      "name": "getPositionInfo",
      "outputs": [
        {
          "internalType": "address",
          "name": "owner",
          "type": "address"
        },
        {
          "internalType": "address",
          "name": "collToken",
          "type": "address"
        },
        {
          "internalType": "uint256",
          "name": "collId",
          "type": "uint256"
        },
        {
          "internalType": "uint256",
          "name": "collateralSize",
          "type": "uint256"
        }
      ],
      "stateMutability": "view",
      "type": "function"
    },
    {
      "inputs": [],
      "name": "governor",
      "outputs": [
        {
          "internalType": "address",
          "name": "",
          "type": "address"
        }
      ],
      "stateMutability": "view",
      "type": "function"
    },
    {
      "inputs": [
        {
          "internalType": "contract IOracle",
          "name": "_oracle",
          "type": "address"
        },
        {
          "internalType": "uint256",
          "name": "_feeBps",
          "type": "uint256"
        }
      ],
      "name": "initialize",
      "outputs": [],
      "stateMutability": "nonpayable",
      "type": "function"
    },
    {
      "inputs": [
        {
          "internalType": "uint256",
          "name": "positionId",
          "type": "uint256"
        },
        {
          "internalType": "address",
          "name": "debtToken",
          "type": "address"
        },
        {
          "internalType": "uint256",
          "name": "amountCall",
          "type": "uint256"
        }
      ],
      "name": "liquidate",
      "outputs": [],
      "stateMutability": "nonpayable",
      "type": "function"
    },
    {
      "inputs": [],
      "name": "nextPositionId",
      "outputs": [
        {
          "internalType": "uint256",
          "name": "",
          "type": "uint256"
        }
      ],
      "stateMutability": "view",
      "type": "function"
    },
    {
      "inputs": [
        {
          "internalType": "address",
          "name": "",
          "type": "address"
        },
        {
          "internalType": "address",
          "name": "",
          "type": "address"
        },
        {
          "internalType": "uint256[]",
          "name": "",
          "type": "uint256[]"
        },
        {
          "internalType": "uint256[]",
          "name": "",
          "type": "uint256[]"
        },
        {
          "internalType": "bytes",
          "name": "",
          "type": "bytes"
        }
      ],
      "name": "onERC1155BatchReceived",
      "outputs": [
        {
          "internalType": "bytes4",
          "name": "",
          "type": "bytes4"
        }
      ],
      "stateMutability": "nonpayable",
      "type": "function"
    },
    {
      "inputs": [
        {
          "internalType": "address",
          "name": "",
          "type": "address"
        },
        {
          "internalType": "address",
          "name": "",
          "type": "address"
        },
        {
          "internalType": "uint256",
          "name": "",
          "type": "uint256"
        },
        {
          "internalType": "uint256",
          "name": "",
          "type": "uint256"
        },
        {
          "internalType": "bytes",
          "name": "",
          "type": "bytes"
        }
      ],
      "name": "onERC1155Received",
      "outputs": [
        {
          "internalType": "bytes4",
          "name": "",
          "type": "bytes4"
        }
      ],
      "stateMutability": "nonpayable",
      "type": "function"
    },
    {
      "inputs": [],
      "name": "oracle",
      "outputs": [
        {
          "internalType": "contract IOracle",
          "name": "",
          "type": "address"
        }
      ],
      "stateMutability": "view",
      "type": "function"
    },
    {
      "inputs": [],
      "name": "pendingGovernor",
      "outputs": [
        {
          "internalType": "address",
          "name": "",
          "type": "address"
        }
      ],
      "stateMutability": "view",
      "type": "function"
    },
    {
      "inputs": [
        {
          "internalType": "uint256",
          "name": "",
          "type": "uint256"
        }
      ],
      "name": "positions",
      "outputs": [
        {
          "internalType": "address",
          "name": "owner",
          "type": "address"
        },
        {
          "internalType": "address",
          "name": "collToken",
          "type": "address"
        },
        {
          "internalType": "uint256",
          "name": "collId",
          "type": "uint256"
        },
        {
          "internalType": "uint256",
          "name": "collateralSize",
          "type": "uint256"
        },
        {
          "internalType": "uint256",
          "name": "debtMap",
          "type": "uint256"
        }
      ],
      "stateMutability": "view",
      "type": "function"
    },
    {
      "inputs": [
        {
          "internalType": "address",
          "name": "collToken",
          "type": "address"
        },
        {
          "internalType": "uint256",
          "name": "collId",
          "type": "uint256"
        },
        {
          "internalType": "uint256",
          "name": "amountCall",
          "type": "uint256"
        }
      ],
      "name": "putCollateral",
      "outputs": [],
      "stateMutability": "nonpayable",
      "type": "function"
    },
    {
      "inputs": [
        {
          "internalType": "address",
          "name": "token",
          "type": "address"
        },
        {
          "internalType": "uint256",
          "name": "amountCall",
          "type": "uint256"
        }
      ],
      "name": "repay",
      "outputs": [],
      "stateMutability": "nonpayable",
      "type": "function"
    },
    {
      "inputs": [
        {
          "internalType": "bool",
          "name": "ok",
          "type": "bool"
        }
      ],
      "name": "setAllowContractCalls",
      "outputs": [],
      "stateMutability": "nonpayable",
      "type": "function"
    },
    {
      "inputs": [
        {
          "internalType": "uint256",
          "name": "_bankStatus",
          "type": "uint256"
        }
      ],
      "name": "setBankStatus",
      "outputs": [],
      "stateMutability": "nonpayable",
      "type": "function"
    },
    {
      "inputs": [
        {
          "internalType": "uint256",
          "name": "_feeBps",
          "type": "uint256"
        }
      ],
      "name": "setFeeBps",
      "outputs": [],
      "stateMutability": "nonpayable",
      "type": "function"
    },
    {
      "inputs": [
        {
          "internalType": "contract IOracle",
          "name": "_oracle",
          "type": "address"
        }
      ],
      "name": "setOracle",
      "outputs": [],
      "stateMutability": "nonpayable",
      "type": "function"
    },
    {
      "inputs": [
        {
          "internalType": "address",
          "name": "_pendingGovernor",
          "type": "address"
        }
      ],
      "name": "setPendingGovernor",
      "outputs": [],
      "stateMutability": "nonpayable",
      "type": "function"
    },
    {
      "inputs": [
        {
          "internalType": "address[]",
          "name": "spells",
          "type": "address[]"
        },
        {
          "internalType": "bool[]",
          "name": "statuses",
          "type": "bool[]"
        }
      ],
      "name": "setWhitelistSpells",
      "outputs": [],
      "stateMutability": "nonpayable",
      "type": "function"
    },
    {
      "inputs": [
        {
          "internalType": "address[]",
          "name": "tokens",
          "type": "address[]"
        },
        {
          "internalType": "bool[]",
          "name": "statuses",
          "type": "bool[]"
        }
      ],
      "name": "setWhitelistTokens",
      "outputs": [],
      "stateMutability": "nonpayable",
      "type": "function"
    },
    {
      "inputs": [
        {
          "internalType": "address[]",
          "name": "users",
          "type": "address[]"
        },
        {
          "internalType": "bool[]",
          "name": "statuses",
          "type": "bool[]"
        }
      ],
      "name": "setWhitelistUsers",
      "outputs": [],
      "stateMutability": "nonpayable",
      "type": "function"
    },
    {
      "inputs": [
        {
          "internalType": "address",
          "name": "token",
          "type": "address"
        }
      ],
      "name": "support",
      "outputs": [
        {
          "internalType": "bool",
          "name": "",
          "type": "bool"
        }
      ],
      "stateMutability": "view",
      "type": "function"
    },
    {
      "inputs": [
        {
          "internalType": "bytes4",
          "name": "interfaceId",
          "type": "bytes4"
        }
      ],
      "name": "supportsInterface",
      "outputs": [
        {
          "internalType": "bool",
          "name": "",
          "type": "bool"
        }
      ],
      "stateMutability": "view",
      "type": "function"
    },
    {
      "inputs": [
        {
          "internalType": "address",
          "name": "collToken",
          "type": "address"
        },
        {
          "internalType": "uint256",
          "name": "collId",
          "type": "uint256"
        },
        {
          "internalType": "uint256",
          "name": "amount",
          "type": "uint256"
        }
      ],
      "name": "takeCollateral",
      "outputs": [],
      "stateMutability": "nonpayable",
      "type": "function"
    },
    {
      "inputs": [
        {
          "internalType": "address",
          "name": "token",
          "type": "address"
        },
        {
          "internalType": "uint256",
          "name": "amount",
          "type": "uint256"
        }
      ],
      "name": "transmit",
      "outputs": [],
      "stateMutability": "nonpayable",
      "type": "function"
    },
    {
      "inputs": [
        {
          "internalType": "address",
          "name": "",
          "type": "address"
        }
      ],
      "name": "whitelistedSpells",
      "outputs": [
        {
          "internalType": "bool",
          "name": "",
          "type": "bool"
        }
      ],
      "stateMutability": "view",
      "type": "function"
    },
    {
      "inputs": [
        {
          "internalType": "address",
          "name": "",
          "type": "address"
        }
      ],
      "name": "whitelistedTokens",
      "outputs": [
        {
          "internalType": "bool",
          "name": "",
          "type": "bool"
        }
      ],
      "stateMutability": "view",
      "type": "function"
    },
    {
      "inputs": [
        {
          "internalType": "address",
          "name": "",
          "type": "address"
        }
      ],
      "name": "whitelistedUsers",
      "outputs": [
        {
          "internalType": "bool",
          "name": "",
          "type": "bool"
        }
      ],
      "stateMutability": "view",
      "type": "function"
    },
    {
      "inputs": [
        {
          "internalType": "address",
          "name": "token",
          "type": "address"
        },
        {
          "internalType": "uint256",
          "name": "amount",
          "type": "uint256"
        }
      ],
      "name": "withdrawReserve",
      "outputs": [],
      "stateMutability": "nonpayable",
      "type": "function"
    }
  ],
  "bytecode": "60806040523480156200001157600080fd5b50620000246301ffc9a760e01b6200003c565b62000036630271189760e51b6200003c565b620000c1565b6001600160e01b031980821614156200009c576040805162461bcd60e51b815260206004820152601c60248201527f4552433136353a20696e76616c696420696e7465726661636520696400000000604482015290519081900360640190fd5b6001600160e01b0319166000908152604260205260409020805460ff19166001179055565b614e9080620000d16000396000f3fe60806040526004361061036b5760003560e01c80637cbdae6f116101c6578063d2ffc9f3116100f7578063e58bb63911610095578063f23a6e611161006f578063f23a6e6114611195578063f621cc4814611235578063f70aedd914611268578063fc5d28a81461127d5761036b565b8063e58bb6391461111a578063e660cc081461112f578063f235757f146111625761036b565b8063daf9c210116100d1578063daf9c2101461107e578063dd6f3c70146110b1578063de5af644146110db578063e3056a34146111055761036b565b8063d2ffc9f31461101b578063d44b11f014611030578063d7ac71ff146110695761036b565b806392ff1ad911610164578063bc197c811161013e578063bc197c8114610e67578063c9a4bb3f14610fb8578063cd6dc68714610fcd578063d05e44a4146110065761036b565b806392ff1ad914610d2657806399fbab8814610d3b578063a20a590614610d9c5761036b565b806382a2fb9c116101a057806382a2fb9c14610c7b57806386c0dc8814610cb4578063899346c714610ce75780639011c81514610cfc5761036b565b80637cbdae6f14610bca5780637dc0d1d014610bf457806380c3b8c214610c095761036b565b806348d6bbc2116102a05780636d6af3341161023e57806376636722116102185780637663672214610adb57806379bd1eac14610af05780637adbf97314610b2f5780637b79413a14610b625761036b565b80636d6af33414610935578063710a9f68146109f857806372c27b6214610ab15761036b565b8063519f50991161027a578063519f509914610852578063630dc7cb146108ae5780636680ac0b146108c357806368eb4ba8146108f65761036b565b806348d6bbc2146107155780634b8a35291461074e5780634df890f6146107875761036b565b80632ffd889b1161030d57806338bd678a116102e757806338bd678a146105e45780633a55f85e146106925780633d30fb48146106c55780633d581d8e146107005761036b565b80632ffd889b146104c5578063314568d9146104da578063331d9364146105195761036b565b80630e5641e6116103495780630e5641e6146104175780631c58ce141461043e57806322867d781461047757806324a9d853146104b05761036b565b806301ffc9a714610370578063071feca3146103b85780630c340a24146103e6575b600080fd5b34801561037c57600080fd5b506103a46004803603602081101561039357600080fd5b50356001600160e01b0319166112b6565b604080519115158252519081900360200190f35b3480156103c457600080fd5b506103e4600480360360208110156103db57600080fd5b503515156112d9565b005b3480156103f257600080fd5b506103fb611344565b604080516001600160a01b039092168252519081900360200190f35b34801561042357600080fd5b5061042c611359565b60408051918252519081900360200190f35b34801561044a57600080fd5b506103e46004803603604081101561046157600080fd5b506001600160a01b03813516906020013561135f565b34801561048357600080fd5b506103e46004803603604081101561049a57600080fd5b506001600160a01b0381351690602001356114db565b3480156104bc57600080fd5b5061042c6116fc565b3480156104d157600080fd5b506103a4611702565b3480156104e657600080fd5b506103e4600480360360608110156104fd57600080fd5b506001600160a01b03813516906020810135906040013561170d565b34801561052557600080fd5b506103e46004803603604081101561053c57600080fd5b810190602081018135600160201b81111561055657600080fd5b82018360208201111561056857600080fd5b803590602001918460208302840111600160201b8311171561058957600080fd5b919390929091602081019035600160201b8111156105a657600080fd5b8201836020820111156105b857600080fd5b803590602001918460208302840111600160201b831117156105d957600080fd5b5090925090506119ef565b3480156105f057600080fd5b506103e46004803603602081101561060757600080fd5b810190602081018135600160201b81111561062157600080fd5b82018360208201111561063357600080fd5b803590602001918460208302840111600160201b8311171561065457600080fd5b919080806020026020016040519081016040528093929190818152602001838360200280828437600092019190915250929550611b82945050505050565b34801561069e57600080fd5b506103a4600480360360208110156106b557600080fd5b50356001600160a01b0316611bb6565b3480156106d157600080fd5b506103e4600480360360408110156106e857600080fd5b506001600160a01b0381358116916020013516611bcb565b34801561070c57600080fd5b506103a4611e4d565b34801561072157600080fd5b506103e46004803603604081101561073857600080fd5b506001600160a01b038135169060200135611e58565b34801561075a57600080fd5b506103e46004803603604081101561077157600080fd5b506001600160a01b038135169060200135611f78565b34801561079357600080fd5b506103e4600480360360408110156107aa57600080fd5b810190602081018135600160201b8111156107c457600080fd5b8201836020820111156107d657600080fd5b803590602001918460208302840111600160201b831117156107f757600080fd5b919390929091602081019035600160201b81111561081457600080fd5b82018360208201111561082657600080fd5b803590602001918460208302840111600160201b8311171561084757600080fd5b50909250905061227c565b34801561085e57600080fd5b5061087c6004803603602081101561087557600080fd5b503561237b565b604080516001600160a01b03958616815293909416602084015282840191909152606082015290519081900360800190f35b3480156108ba57600080fd5b506103fb6123af565b3480156108cf57600080fd5b506103e4600480360360208110156108e657600080fd5b50356001600160a01b031661241f565b34801561090257600080fd5b506103e46004803603606081101561091957600080fd5b506001600160a01b038135169060208101359060400135612578565b34801561094157600080fd5b5061095f6004803603602081101561095857600080fd5b503561282e565b604051808060200180602001838103835285818151815260200191508051906020019060200280838360005b838110156109a357818101518382015260200161098b565b50505050905001838103825284818151815260200191508051906020019060200280838360005b838110156109e25781810151838201526020016109ca565b5050505090500194505050505060405180910390f35b61042c60048036036060811015610a0e57600080fd5b8135916001600160a01b0360208201351691810190606081016040820135600160201b811115610a3d57600080fd5b820183602082011115610a4f57600080fd5b803590602001918460018302840111600160201b83111715610a7057600080fd5b91908080601f0160208091040260200160405190810160405280939291908181526020018383808284376000920191909152509295506129ce945050505050565b348015610abd57600080fd5b506103e460048036036020811015610ad457600080fd5b5035612d4f565b348015610ae757600080fd5b506103fb612e28565b348015610afc57600080fd5b506103e460048036036060811015610b1357600080fd5b508035906001600160a01b036020820135169060400135612e37565b348015610b3b57600080fd5b506103e460048036036020811015610b5257600080fd5b50356001600160a01b0316613121565b348015610b6e57600080fd5b50610b9560048036036020811015610b8557600080fd5b50356001600160a01b0316613228565b6040805195151586526001600160a01b0390941660208601528484019290925260608401526080830152519081900360a00190f35b348015610bd657600080fd5b506103e460048036036020811015610bed57600080fd5b5035613268565b348015610c0057600080fd5b506103fb6132c5565b348015610c1557600080fd5b50610c3c60048036036020811015610c2c57600080fd5b50356001600160a01b03166132d4565b60408051961515875260ff90951660208701526001600160a01b03909316858501526060850191909152608084015260a0830152519081900360c00190f35b348015610c8757600080fd5b5061042c60048036036040811015610c9e57600080fd5b50803590602001356001600160a01b0316613317565b348015610cc057600080fd5b506103a460048036036020811015610cd757600080fd5b50356001600160a01b0316613335565b348015610cf357600080fd5b5061042c61334a565b348015610d0857600080fd5b5061042c60048036036020811015610d1f57600080fd5b5035613350565b348015610d3257600080fd5b506103fb61346e565b348015610d4757600080fd5b50610d6560048036036020811015610d5e57600080fd5b503561347d565b604080516001600160a01b039687168152949095166020850152838501929092526060830152608082015290519081900360a00190f35b348015610da857600080fd5b506103e460048036036040811015610dbf57600080fd5b810190602081018135600160201b811115610dd957600080fd5b820183602082011115610deb57600080fd5b803590602001918460208302840111600160201b83111715610e0c57600080fd5b919390929091602081019035600160201b811115610e2957600080fd5b820183602082011115610e3b57600080fd5b803590602001918460208302840111600160201b83111715610e5c57600080fd5b5090925090506134b8565b348015610e7357600080fd5b50610f9b600480360360a0811015610e8a57600080fd5b6001600160a01b038235811692602081013590911691810190606081016040820135600160201b811115610ebd57600080fd5b820183602082011115610ecf57600080fd5b803590602001918460208302840111600160201b83111715610ef057600080fd5b919390929091602081019035600160201b811115610f0d57600080fd5b820183602082011115610f1f57600080fd5b803590602001918460208302840111600160201b83111715610f4057600080fd5b919390929091602081019035600160201b811115610f5d57600080fd5b820183602082011115610f6f57600080fd5b803590602001918460018302840111600160201b83111715610f9057600080fd5b5090925090506135b7565b604080516001600160e01b03199092168252519081900360200190f35b348015610fc457600080fd5b5061042c6135cb565b348015610fd957600080fd5b506103e460048036036040811015610ff057600080fd5b506001600160a01b0381351690602001356135d1565b34801561101257600080fd5b5061042c6137bd565b34801561102757600080fd5b506103a46137c3565b34801561103c57600080fd5b5061042c6004803603604081101561105357600080fd5b50803590602001356001600160a01b03166137cc565b34801561107557600080fd5b5061042c6137f8565b34801561108a57600080fd5b506103a4600480360360208110156110a157600080fd5b50356001600160a01b03166137fe565b3480156110bd57600080fd5b506103fb600480360360208110156110d457600080fd5b5035613813565b3480156110e757600080fd5b5061042c600480360360208110156110fe57600080fd5b503561383a565b34801561111157600080fd5b506103fb613980565b34801561112657600080fd5b506103e461398f565b34801561113b57600080fd5b506103a46004803603602081101561115257600080fd5b50356001600160a01b0316613a51565b34801561116e57600080fd5b506103e46004803603602081101561118557600080fd5b50356001600160a01b0316613ad4565b3480156111a157600080fd5b50610f9b600480360360a08110156111b857600080fd5b6001600160a01b03823581169260208101359091169160408201359160608101359181019060a081016080820135600160201b8111156111f757600080fd5b82018360208201111561120957600080fd5b803590602001918460018302840111600160201b8311171561122a57600080fd5b509092509050613b80565b34801561124157600080fd5b506103a46004803603602081101561125857600080fd5b50356001600160a01b0316613b92565b34801561127457600080fd5b5061087c613ba7565b34801561128957600080fd5b5061042c600480360360408110156112a057600080fd5b50803590602001356001600160a01b0316613c07565b6001600160e01b0319811660009081526042602052604090205460ff165b919050565b6000546201000090046001600160a01b03163314611331576040805162461bcd60e51b815260206004820152601060248201526f3737ba103a34329033b7bb32b93737b960811b604482015290519081900360640190fd5b608f805460ff1916911515919091179055565b6000546201000090046001600160a01b031681565b60935481565b6000546201000090046001600160a01b031633146113b7576040805162461bcd60e51b815260206004820152601060248201526f3737ba103a34329033b7bb32b93737b960811b604482015290519081900360640190fd5b6001608354146113fd576040805162461bcd60e51b815260206004820152600c60248201526b67656e6572616c206c6f636b60a01b604482015290519081900360640190fd5b60026083556001600160a01b0382166000908152608c60205260409020805460ff16611461576040805162461bcd60e51b815260206004820152600e60248201526d18985b9ac81b9bdd08195e1a5cdd60921b604482015290519081900360640190fd5b60018101546114709083613c7d565b60018201556114896001600160a01b0384163384613cda565b604080513381526001600160a01b038516602082015280820184905290517f1480bc3d4718a0a5fa9eb55d53e0b79a638148873fc124922bb0ec377425b85b9181900360600190a15050600160835550565b600019608554141561152b576040805162461bcd60e51b81526020600482015260146024820152733737ba103bb4ba3434b71032bc32b1baba34b7b760611b604482015290519081900360640190fd5b6086546001600160a01b0316331461157b576040805162461bcd60e51b815260206004820152600e60248201526d1b9bdd08199c9bdb481cdc195b1b60921b604482015290519081900360640190fd5b6001608454146115c1576040805162461bcd60e51b815260206004820152600c60248201526b696e2065786563206c6f636b60a01b604482015290519081900360640190fd5b6002608455816115d08161241f565b6115d8611702565b61161d576040805162461bcd60e51b81526020600482015260116024820152701c995c185e481b9bdd08185b1b1bddd959607a1b604482015290519081900360640190fd5b6001600160a01b03831660009081526090602052604090205460ff16611682576040805162461bcd60e51b81526020600482015260156024820152741d1bdad95b881b9bdd081dda1a5d195b1a5cdd1959605a1b604482015290519081900360640190fd5b6000806116926085548686613d2c565b608554604080519182523360208301526001600160a01b038916828201526060820184905260808201839052519294509092507f9181b2981704b7cf4448130f29cb5da1f41e0418d000e7f8880000b09bcbea45919081900360a00190a150506001608455505050565b60895481565b609354600216151590565b600019608554141561175d576040805162461bcd60e51b81526020600482015260146024820152733737ba103bb4ba3434b71032bc32b1baba34b7b760611b604482015290519081900360640190fd5b6086546001600160a01b031633146117ad576040805162461bcd60e51b815260206004820152600e60248201526d1b9bdd08199c9bdb481cdc195b1b60921b604482015290519081900360640190fd5b6001608454146117f3576040805162461bcd60e51b815260206004820152600c60248201526b696e2065786563206c6f636b60a01b604482015290519081900360640190fd5b60026084556085546000908152608e6020526040902060018101546001600160a01b03858116911614158061182c575082816002015414155b156119685760885460408051632461a40960e01b81526001600160a01b0387811660048301526024820187905291519190921691632461a409916044808301926020929190829003018186803b15801561188557600080fd5b505afa158015611899573d6000803e3d6000fd5b505050506040513d60208110156118af57600080fd5b5051611902576040805162461bcd60e51b815260206004820152601860248201527f636f6c6c61746572616c206e6f7420737570706f727465640000000000000000604482015290519081900360640190fd5b6003810154156119435760405162461bcd60e51b8152600401808060200182810382526029815260200180614cf56029913960400191505060405180910390fd5b6001810180546001600160a01b0319166001600160a01b038616179055600281018390555b6000611975858585613e7f565b60038301549091506119879082614020565b6003830155608554604080519182523360208301526001600160a01b038716828201526060820186905260808201839052517f1169c71f6ce3fbf1d6aae39931591c46ed51976eda9f851886fae319970482ff9181900360a00190a150506001608455505050565b6000546201000090046001600160a01b03163314611a47576040805162461bcd60e51b815260206004820152601060248201526f3737ba103a34329033b7bb32b93737b960811b604482015290519081900360640190fd5b828114611a855760405162461bcd60e51b8152600401808060200182810382526023815260200180614dd86023913960400191505060405180910390fd5b60005b83811015611b7b57828282818110611a9c57fe5b9050602002013515611b1d57611acc858583818110611ab757fe5b905060200201356001600160a01b0316613a51565b611b1d576040805162461bcd60e51b815260206004820152601860248201527f6f7261636c65206e6f7420737570706f727420746f6b656e0000000000000000604482015290519081900360640190fd5b828282818110611b2957fe5b90506020020135151560906000878785818110611b4257fe5b602090810292909201356001600160a01b0316835250810191909152604001600020805460ff1916911515919091179055600101611a88565b5050505050565b60005b8151811015611bb257611baa828281518110611b9d57fe5b602002602001015161241f565b600101611b85565b5050565b608d6020526000908152604090205460ff1681565b6000546201000090046001600160a01b03163314611c23576040805162461bcd60e51b815260206004820152601060248201526f3737ba103a34329033b7bb32b93737b960811b604482015290519081900360640190fd5b6001600160a01b038083166000908152608c602090815260408083209385168352608d90915290205460ff1615611c99576040805162461bcd60e51b815260206004820152601560248201527463546f6b656e20616c72656164792065786973747360581b604482015290519081900360640190fd5b805460ff1615611ce6576040805162461bcd60e51b815260206004820152601360248201527262616e6b20616c72656164792065786973747360681b604482015290519081900360640190fd5b6001600160a01b0382166000908152608d602052604090208054600160ff199182168117909255825416178155608b5461010011611d5e576040805162461bcd60e51b815260206004820152601060248201526f1c995858da0818985b9ac81b1a5b5a5d60821b604482015290519081900360640190fd5b608b5481546001600160a01b03808516620100000262010000600160b01b031960ff9094166101000261ff00199093169290921792909216178255611da790841683600061407a565b611dbd6001600160a01b0384168360001961407a565b608b80546001810182556000919091527f7b6bb1e9d1b017ff82945596cf3cfb1a6cee971c1ebb16f2c6bd23c2d642728e0180546001600160a01b0319166001600160a01b0385811691821790925560408051918252918416602082015281517f0a5ac30137c068c8fa636e5d085a93d6fda52a1c2657df058b91ecaf0044ea8c929181900390910190a1505050565b609354600116151590565b6000196085541415611ea8576040805162461bcd60e51b81526020600482015260146024820152733737ba103bb4ba3434b71032bc32b1baba34b7b760611b604482015290519081900360640190fd5b6086546001600160a01b03163314611ef8576040805162461bcd60e51b815260206004820152600e60248201526d1b9bdd08199c9bdb481cdc195b1b60921b604482015290519081900360640190fd5b600160845414611f3e576040805162461bcd60e51b815260206004820152600c60248201526b696e2065786563206c6f636b60a01b604482015290519081900360640190fd5b60026084556085546000908152608e602052604090208054611f6e906001600160a01b038581169116338561418d565b5050600160845550565b6000196085541415611fc8576040805162461bcd60e51b81526020600482015260146024820152733737ba103bb4ba3434b71032bc32b1baba34b7b760611b604482015290519081900360640190fd5b6086546001600160a01b03163314612018576040805162461bcd60e51b815260206004820152600e60248201526d1b9bdd08199c9bdb481cdc195b1b60921b604482015290519081900360640190fd5b60016084541461205e576040805162461bcd60e51b815260206004820152600c60248201526b696e2065786563206c6f636b60a01b604482015290519081900360640190fd5b60026084558161206d8161241f565b612075611e4d565b6120bb576040805162461bcd60e51b8152602060048201526012602482015271189bdc9c9bddc81b9bdd08185b1b1bddd95960721b604482015290519081900360640190fd5b6001600160a01b03831660009081526090602052604090205460ff16612120576040805162461bcd60e51b81526020600482015260156024820152741d1bdad95b881b9bdd081dda1a5d195b1a5cdd1959605a1b604482015290519081900360640190fd5b6001600160a01b0383166000908152608c602090815260408083206085548452608e9092528220600382015460028301549293919290918215612176576121718261216b89866141e7565b90614240565b612178565b865b600386015490915061218a9082614020565b60038601556001600160a01b03881660009081526005850160205260408120546121b49083614020565b6001600160a01b038a1660009081526005870160205260409020819055905080156121f6578554600486018054600161010090930460ff169290921b90911790555b612215336122048b8b61425b565b6001600160a01b038c169190613cda565b608554604080519182523360208301526001600160a01b038b1682820152606082018a905260808201849052517fef18174796a5d2f91d51dc5e907a4d7867bbd6e800f6225168e0453d581d0dcd9181900360a00190a15050600160845550505050505050565b6000546201000090046001600160a01b031633146122d4576040805162461bcd60e51b815260206004820152601060248201526f3737ba103a34329033b7bb32b93737b960811b604482015290519081900360640190fd5b8281146123125760405162461bcd60e51b8152600401808060200182810382526023815260200180614db56023913960400191505060405180910390fd5b60005b83811015611b7b5782828281811061232957fe5b9050602002013515156091600087878581811061234257fe5b602090810292909201356001600160a01b0316835250810191909152604001600020805460ff1916911515919091179055600101612315565b6000908152608e602052604090208054600182015460028301546003909301546001600160a01b0392831694929091169291565b608554600090600019811415612402576040805162461bcd60e51b81526020600482015260136024820152723737ba103ab73232b91032bc32b1baba34b7b760691b604482015290519081900360640190fd5b6000908152608e60205260409020546001600160a01b0316905090565b6001600160a01b0381166000908152608c60205260409020805460ff1661247e576040805162461bcd60e51b815260206004820152600e60248201526d18985b9ac81b9bdd08195e1a5cdd60921b604482015290519081900360640190fd5b60028101548154604080516305eff7ef60e21b815230600482015290516000926201000090046001600160a01b0316916317bfdfbc91602480830192602092919082900301818787803b1580156124d457600080fd5b505af11580156124e8573d6000803e3d6000fd5b505050506040513d60208110156124fe57600080fd5b505190508181111561256357600061253761271061253160895461252b8787613c7d90919063ffffffff16565b906141e7565b90614446565b60028501839055905061255861254d868361425b565b600186015490614020565b600185015550612572565b80821461257257600283018190555b50505050565b60001960855414156125c8576040805162461bcd60e51b81526020600482015260146024820152733737ba103bb4ba3434b71032bc32b1baba34b7b760611b604482015290519081900360640190fd5b6086546001600160a01b03163314612618576040805162461bcd60e51b815260206004820152600e60248201526d1b9bdd08199c9bdb481cdc195b1b60921b604482015290519081900360640190fd5b60016084541461265e576040805162461bcd60e51b815260206004820152600c60248201526b696e2065786563206c6f636b60a01b604482015290519081900360640190fd5b60026084556085546000908152608e6020526040902060018101546001600160a01b038581169116146126d3576040805162461bcd60e51b815260206004820152601860248201527734b73b30b634b21031b7b63630ba32b930b6103a37b5b2b760411b604482015290519081900360640190fd5b80600201548314612726576040805162461bcd60e51b815260206004820152601860248201527734b73b30b634b21031b7b63630ba32b930b6103a37b5b2b760411b604482015290519081900360640190fd5b60001982141561273857806003015491505b60038101546127479083613c7d565b600382015560408051637921219560e11b8152306004820152336024820152604481018590526064810184905260a06084820152600060a4820181905291516001600160a01b0387169263f242432a9260e4808201939182900301818387803b1580156127b357600080fd5b505af11580156127c7573d6000803e3d6000fd5b5050608554604080519182523360208301526001600160a01b038816828201526060820187905260808201869052517fa61ee435e629eecbcb5df77d05e802c71092439cdbeb225d95305f5a159755a393509081900360a0019150a1505060016084555050565b6000818152608e6020526040812060048101546060928392915b801561286657600181161561285e576001909101905b60011c612848565b8167ffffffffffffffff8111801561287d57600080fd5b506040519080825280602002602001820160405280156128a7578160200160208202803683370190505b5094508167ffffffffffffffff811180156128c157600080fd5b506040519080825280602002602001820160405280156128eb578160200160208202803683370190505b509350826004015490506000915060005b81156129c55760018216156129b9576000608b828154811061291a57fe5b60009182526020808320909101546001600160a01b0316808352608c9091526040909120885191925090829089908790811061295257fe5b6001600160a01b0392831660209182029290920181019190915260038301546002840154928516600090815260058a019092526040909120546129999261216b91906141e7565b8786815181106129a557fe5b602090810291909101015250506001909201915b600191821c91016128fc565b50505050915091565b6000600160835414612a16576040805162461bcd60e51b815260206004820152600c60248201526b67656e6572616c206c6f636b60a01b604482015290519081900360640190fd5b6002608355608f5460ff16158015612a3e57503360009081526092602052604090205460ff16155b15612a8157333214612a81576040805162461bcd60e51b81526020600482015260076024820152666e6f7420656f6160c81b604482015290519081900360640190fd5b6001600160a01b03831660009081526091602052604090205460ff16612ae6576040805162461bcd60e51b81526020600482015260156024820152741cdc195b1b081b9bdd081dda1a5d195b1a5cdd1959605a1b604482015290519081900360640190fd5b83612b1b57608a8054600181019091556000818152608e6020526040902080546001600160a01b031916331790559350612bca565b608a548410612b6a576040805162461bcd60e51b8152602060048201526016602482015275706f736974696f6e206964206e6f742065786973747360501b604482015290519081900360640190fd5b6000848152608e60205260409020546001600160a01b03163314612bca576040805162461bcd60e51b81526020600482015260126024820152713737ba103837b9b4ba34b7b71037bbb732b960711b604482015290519081900360640190fd5b6085849055608680546001600160a01b0319166001600160a01b038581169182179092556087546040805163be2a1f7960e01b81526004810193845260248101918252865160448201528651929094169363be2a1f79933493899389939091606490910190602085019080838360005b83811015612c52578181015183820152602001612c3a565b50505050905090810190601f168015612c7f5780820380516001836020036101000a031916815260200191505b5093505050506000604051808303818588803b158015612c9e57600080fd5b505af1158015612cb2573d6000803e3d6000fd5b50505050506000612cc285613350565b90506000612ccf8661383a565b905080821015612d26576040805162461bcd60e51b815260206004820152601760248201527f696e73756666696369656e7420636f6c6c61746572616c000000000000000000604482015290519081900360640190fd5b505060001960855550608680546001600160a01b03191660011790558260016083559392505050565b6000546201000090046001600160a01b03163314612da7576040805162461bcd60e51b815260206004820152601060248201526f3737ba103a34329033b7bb32b93737b960811b604482015290519081900360640190fd5b612710811115612ded576040805162461bcd60e51b815260206004820152600c60248201526b0cccaca40e8dede40d0d2ced60a31b604482015290519081900360640190fd5b60898190556040805182815290517f15b86359c2a1e342ef965d15a848eda1666e575175d1907ea284dab1dcf64ffb9181900360200190a150565b6086546001600160a01b031681565b600160835414612e7d576040805162461bcd60e51b815260206004820152600c60248201526b67656e6572616c206c6f636b60a01b604482015290519081900360640190fd5b600260835581612e8c8161241f565b6000612e9785613350565b90506000612ea48661383a565b9050808210612ef3576040805162461bcd60e51b8152602060048201526016602482015275706f736974696f6e207374696c6c206865616c74687960501b604482015290519081900360640190fd5b6000868152608e602052604081209080612f0e898989613d2c565b600185015491935091506001600160a01b0316612f69576040805162461bcd60e51b81526020600482015260146024820152733130b21031b7b63630ba32b930b6103a37b5b2b760611b604482015290519081900360640190fd5b60885460018401546002850154604080516330e39e5760e21b81526001600160a01b038d8116600483015293841660248201526044810192909252606482018690525160009361301093169163c38e795c916084808301926020929190829003018186803b158015612fda57600080fd5b505afa158015612fee573d6000803e3d6000fd5b505050506040513d602081101561300457600080fd5b505160038601546144ad565b60038501549091506130229082613c7d565b60038501556001840154600285015460408051637921219560e11b815230600482015233602482015260448101929092526064820184905260a06084830152600060a4830181905290516001600160a01b039093169263f242432a9260e480820193929182900301818387803b15801561309b57600080fd5b505af11580156130af573d6000803e3d6000fd5b5050604080518d81523360208201526001600160a01b038d1681830152606081018790526080810186905260a0810185905290517faa05373fff4a28318417dc16d03c4ed7b22197cb65240cff73fa530f0221734993509081900360c0019150a1505060016083555050505050505050565b6000546201000090046001600160a01b03163314613179576040805162461bcd60e51b815260206004820152601060248201526f3737ba103a34329033b7bb32b93737b960811b604482015290519081900360640190fd5b6001600160a01b0381166131d4576040805162461bcd60e51b815260206004820152601e60248201527f63616e6e6f7420736574207a65726f2061646472657373206f7261636c650000604482015290519081900360640190fd5b608880546001600160a01b0383166001600160a01b0319909116811790915560408051918252517fd3b5d1e0ffaeff528910f3663f0adace7694ab8241d58e17a91351ced2e080319181900360200190a150565b6001600160a01b039081166000908152608c6020526040902080546001820154600283015460039093015460ff8316956201000090930490941693909291565b6000546201000090046001600160a01b031633146132c0576040805162461bcd60e51b815260206004820152601060248201526f3737ba103a34329033b7bb32b93737b960811b604482015290519081900360640190fd5b609355565b6088546001600160a01b031681565b608c60205260009081526040902080546001820154600283015460039093015460ff808416946101008504909116936201000090046001600160a01b0316929186565b60006133228261241f565b61332c8383613c07565b90505b92915050565b60916020526000908152604090205460ff1681565b608a5481565b6000818152608e60205260408120600381015480613373576000925050506112d4565b60018201546001600160a01b03166133c9576040805162461bcd60e51b81526020600482015260146024820152733130b21031b7b63630ba32b930b6103a37b5b2b760611b604482015290519081900360640190fd5b60885460018301546002840154845460408051632ad5cc7760e11b81526001600160a01b03948516600482015260248101939093526044830186905290831660648301525191909216916355ab98ee916084808301926020929190829003018186803b15801561343857600080fd5b505afa15801561344c573d6000803e3d6000fd5b505050506040513d602081101561346257600080fd5b505192506112d4915050565b6087546001600160a01b031681565b608e60205260009081526040902080546001820154600283015460038401546004909401546001600160a01b03938416949390921692909185565b6000546201000090046001600160a01b03163314613510576040805162461bcd60e51b815260206004820152601060248201526f3737ba103a34329033b7bb32b93737b960811b604482015290519081900360640190fd5b82811461354e5760405162461bcd60e51b8152600401808060200182810382526022815260200180614d936022913960400191505060405180910390fd5b60005b83811015611b7b5782828281811061356557fe5b9050602002013515156092600087878581811061357e57fe5b602090810292909201356001600160a01b0316835250810191909152604001600020805460ff1916911515919091179055600101613551565b63bc197c8160e01b98975050505050505050565b60845481565b600054610100900460ff16806135ea57506135ea6144c3565b806135f8575060005460ff16155b6136335760405162461bcd60e51b815260040180806020018281038252602e815260200180614d44602e913960400191505060405180910390fd5b600054610100900460ff1615801561365e576000805460ff1961ff0019909116610100171660011790555b6136666144d4565b600160838190556084819055600019608555608680546001600160a01b031916909117905560405161369790614b27565b604051809103906000f0801580156136b3573d6000803e3d6000fd5b50608780546001600160a01b039283166001600160a01b031991821617909155608880549286169290911682179055613728576040805162461bcd60e51b8152602060048201526012602482015271626164206f7261636c65206164647265737360701b604482015290519081900360640190fd5b60898290556001608a556003609355604080516001600160a01b038516815290517fd3b5d1e0ffaeff528910f3663f0adace7694ab8241d58e17a91351ced2e080319181900360200190a16040805183815290517f15b86359c2a1e342ef965d15a848eda1666e575175d1907ea284dab1dcf64ffb9181900360200190a180156137b8576000805461ff00191690555b505050565b60835481565b608f5460ff1681565b6000828152608e602090815260408083206001600160a01b038516845260050190915290205492915050565b60855481565b60906020526000908152604090205460ff1681565b608b818154811061382057fe5b6000918252602090912001546001600160a01b0316905081565b6000818152608e60205260408120805460048201548392916001600160a01b031690835b8115613975576001821615613969576000608b828154811061387c57fe5b60009182526020808320909101546001600160a01b0316808352600588018252604080842054608c9093528320600381015460028201549295509293909290916138cc919061216b9086906141e7565b608854604080516303c7c6a360e31b81526001600160a01b038881166004830152602482018590528b811660448301529151939450613962939190921691631e3e3518916064808301926020929190829003018186803b15801561392f57600080fd5b505afa158015613943573d6000803e3d6000fd5b505050506040513d602081101561395957600080fd5b50518a90614020565b9850505050505b600191821c910161385e565b509295945050505050565b6001546001600160a01b031681565b6001546001600160a01b031633146139ee576040805162461bcd60e51b815260206004820152601860248201527f6e6f74207468652070656e64696e6720676f7665726e6f720000000000000000604482015290519081900360640190fd5b600180546001600160a01b03191690556000805462010000600160b01b031916336201000081029190911790915560408051918252517fd345d81ce68c70b119a17eee79dc1421700bd9cb21ca148a62dc90983964e82f916020908290030190a1565b60885460408051631ccc198160e31b81526001600160a01b0384811660048301529151600093929092169163e660cc0891602480820192602092909190829003018186803b158015613aa257600080fd5b505afa158015613ab6573d6000803e3d6000fd5b505050506040513d6020811015613acc57600080fd5b505192915050565b6000546201000090046001600160a01b03163314613b2c576040805162461bcd60e51b815260206004820152601060248201526f3737ba103a34329033b7bb32b93737b960811b604482015290519081900360640190fd5b600180546001600160a01b0383166001600160a01b0319909116811790915560408051918252517f964dea888b00b2ab53f13dfe7ca334b46e99338c222ae232d98547a1da019f609181900360200190a150565b63f23a6e6160e01b9695505050505050565b60926020526000908152604090205460ff1681565b6000806000806000196085541415613bee576040805162461bcd60e51b81526020600482015260056024820152641b9bc81a5960da1b604482015290519081900360640190fd5b613bf960855461237b565b935093509350935090919293565b6001600160a01b0381166000818152608c602090815260408083206002810154600390910154878552608e8452828520958552600590950190925282205491929091801580613c54575082155b15613c65576000935050505061332f565b613c738261216b83866141e7565b935050505061332f565b600082821115613cd4576040805162461bcd60e51b815260206004820152601e60248201527f536166654d6174683a207375627472616374696f6e206f766572666c6f770000604482015290519081900360640190fd5b50900390565b604080516001600160a01b038416602482015260448082018490528251808303909101815260649091019091526020810180516001600160e01b031663a9059cbb60e01b1790526137b89084906145d7565b6001600160a01b0382166000818152608c60209081526040808320878452608e83528184206003820154600283015496865260058201909452918420549394859491939185613d7f8461216b84866141e7565b9050600019891415613d8f578098505b6000613da48b613d9f8d8d614688565b6147ab565b905081811115613def576040805162461bcd60e51b81526020600482015260116024820152701c185a5908195e18d959591cc81919589d607a1b604482015290519081900360640190fd5b6000828214613e0b57613e068561253184896141e7565b613e0d565b835b9050613e198682613c7d565b60038901556000613e2a8583613c7d565b6001600160a01b038e16600090815260058a0160205260409020819055905080613e6c578854600489018054600161010090930460ff169290921b1990911690555b50909c909b509950505050505050505050565b600080846001600160a01b031662fdd58e30866040518363ffffffff1660e01b815260040180836001600160a01b031681526020018281526020019250505060206040518083038186803b158015613ed657600080fd5b505afa158015613eea573d6000803e3d6000fd5b505050506040513d6020811015613f0057600080fd5b505160408051637921219560e11b8152336004820152306024820152604481018790526064810186905260a06084820152600060a4820181905291519293506001600160a01b0388169263f242432a9260e48084019391929182900301818387803b158015613f6e57600080fd5b505af1158015613f82573d6000803e3d6000fd5b505050506000856001600160a01b031662fdd58e30876040518363ffffffff1660e01b815260040180836001600160a01b031681526020018281526020019250505060206040518083038186803b158015613fdc57600080fd5b505afa158015613ff0573d6000803e3d6000fd5b505050506040513d602081101561400657600080fd5b505190506140148183613c7d565b925050505b9392505050565b60008282018381101561332c576040805162461bcd60e51b815260206004820152601b60248201527f536166654d6174683a206164646974696f6e206f766572666c6f770000000000604482015290519081900360640190fd5b801580614100575060408051636eb1769f60e11b81523060048201526001600160a01b03848116602483015291519185169163dd62ed3e91604480820192602092909190829003018186803b1580156140d257600080fd5b505afa1580156140e6573d6000803e3d6000fd5b505050506040513d60208110156140fc57600080fd5b5051155b61413b5760405162461bcd60e51b8152600401808060200182810382526036815260200180614e256036913960400191505060405180910390fd5b604080516001600160a01b038416602482015260448082018490528251808303909101815260649091019091526020810180516001600160e01b031663095ea7b360e01b1790526137b89084906145d7565b604080516001600160a01b0380861660248301528416604482015260648082018490528251808303909101815260849091019091526020810180516001600160e01b03166323b872dd60e01b1790526125729085906145d7565b6000826141f65750600061332f565b8282028284828161420357fe5b041461332c5760405162461bcd60e51b8152600401808060200182810382526021815260200180614d726021913960400191505060405180910390fd5b600061332c8261253160016142558784614020565b90613c7d565b6001600160a01b0382166000818152608c6020908152604080832081516370a0823160e01b8152306004820152915193949093859391926370a08231926024808301939192829003018186803b1580156142b457600080fd5b505afa1580156142c8573d6000803e3d6000fd5b505050506040513d60208110156142de57600080fd5b505182546040805163317afabb60e21b8152600481018890529051929350620100009091046001600160a01b03169163c5ebeaec916024808201926020929091908290030181600087803b15801561433557600080fd5b505af1158015614349573d6000803e3d6000fd5b505050506040513d602081101561435f57600080fd5b5051156143a0576040805162461bcd60e51b815260206004820152600a60248201526962616420626f72726f7760b01b604482015290519081900360640190fd5b6000856001600160a01b03166370a08231306040518263ffffffff1660e01b815260040180826001600160a01b0316815260200191505060206040518083038186803b1580156143ef57600080fd5b505afa158015614403573d6000803e3d6000fd5b505050506040513d602081101561441957600080fd5b5051600284015490915061442d9086614020565b600284015561443c8183613c7d565b9695505050505050565b600080821161449c576040805162461bcd60e51b815260206004820152601a60248201527f536166654d6174683a206469766973696f6e206279207a65726f000000000000604482015290519081900360640190fd5b8183816144a557fe5b049392505050565b60008183106144bc578161332c565b5090919050565b60006144ce3061491a565b15905090565b600054610100900460ff16806144ed57506144ed6144c3565b806144fb575060005460ff16155b6145365760405162461bcd60e51b815260040180806020018281038252602e815260200180614d44602e913960400191505060405180910390fd5b600054610100900460ff16158015614561576000805460ff1961ff0019909116610100171660011790555b6000805462010000600160b01b0319163362010000810291909117909155600180546001600160a01b031916905560408051918252517fbce074c8369e26e70e1ae2f14fc944da352cfe6f52e2de9572f0c9942a24b7fc916020908290030190a180156145d4576000805461ff00191690555b50565b606061462c826040518060400160405280602081526020017f5361666545524332303a206c6f772d6c6576656c2063616c6c206661696c6564815250856001600160a01b03166149209092919063ffffffff16565b8051909150156137b85780806020019051602081101561464b57600080fd5b50516137b85760405162461bcd60e51b815260040180806020018281038252602a815260200180614dfb602a913960400191505060405180910390fd5b600080836001600160a01b03166370a08231306040518263ffffffff1660e01b815260040180826001600160a01b0316815260200191505060206040518083038186803b1580156146d857600080fd5b505afa1580156146ec573d6000803e3d6000fd5b505050506040513d602081101561470257600080fd5b5051905061471b6001600160a01b03851633308661418d565b6000846001600160a01b03166370a08231306040518263ffffffff1660e01b815260040180826001600160a01b0316815260200191505060206040518083038186803b15801561476a57600080fd5b505afa15801561477e573d6000803e3d6000fd5b505050506040513d602081101561479457600080fd5b505190506147a28183613c7d565b95945050505050565b6001600160a01b038083166000908152608c6020908152604080832080546002820154835163073a938160e11b815260048101899052935195969295620100009092049092169391928492630e7527029260248084019382900301818a87803b15801561481757600080fd5b505af115801561482b573d6000803e3d6000fd5b505050506040513d602081101561484157600080fd5b505115614881576040805162461bcd60e51b815260206004820152600960248201526862616420726570617960b81b604482015290519081900360640190fd5b6000826001600160a01b03166395dd9193306040518263ffffffff1660e01b815260040180826001600160a01b0316815260200191505060206040518083038186803b1580156148d057600080fd5b505afa1580156148e4573d6000803e3d6000fd5b505050506040513d60208110156148fa57600080fd5b505160028501819055905061490f8282613c7d565b979650505050505050565b3b151590565b606061492f8484600085614937565b949350505050565b6060824710156149785760405162461bcd60e51b8152600401808060200182810382526026815260200180614d1e6026913960400191505060405180910390fd5b6149818561491a565b6149d2576040805162461bcd60e51b815260206004820152601d60248201527f416464726573733a2063616c6c20746f206e6f6e2d636f6e7472616374000000604482015290519081900360640190fd5b60006060866001600160a01b031685876040518082805190602001908083835b60208310614a115780518252601f1990920191602091820191016149f2565b6001836020036101000a03801982511681845116808217855250505050505090500191505060006040518083038185875af1925050503d8060008114614a73576040519150601f19603f3d011682016040523d82523d6000602084013e614a78565b606091505b509150915061490f82828660608315614a92575081614019565b825115614aa25782518084602001fd5b8160405162461bcd60e51b81526004018080602001828103825283818151815260200191508051906020019080838360005b83811015614aec578181015183820152602001614ad4565b50505050905090810190601f168015614b195780820380516001836020036101000a031916815260200191505b509250505060405180910390fd5b6101c080614b358339019056fe608060405234801561001057600080fd5b506101a0806100206000396000f3fe60806040526004361061001e5760003560e01c8063be2a1f7914610023575b600080fd5b6100a36004803603604081101561003957600080fd5b6001600160a01b03823516919081019060408101602082013564010000000081111561006457600080fd5b82018360208201111561007657600080fd5b8035906020019184600183028401116401000000008311171561009857600080fd5b5090925090506100a5565b005b60006060846001600160a01b0316348585604051808383808284376040519201945060009350909150508083038185875af1925050503d8060008114610107576040519150601f19603f3d011682016040523d82523d6000602084013e61010c565b606091505b509150915081610163578051156101265780518082602001fd5b6040805162461bcd60e51b815260206004820152600d60248201526c1898590818d85cdd0818d85b1b609a1b604482015290519081900360640190fd5b505050505056fea264697066735822122079f809d2d63483acce6be7b71efb4a6866506a8500550b9956c7f55d95d5bd3f64736f6c634300060c0033616e6f746865722074797065206f6620636f6c6c61746572616c20616c726561647920657869737473416464726573733a20696e73756666696369656e742062616c616e636520666f722063616c6c496e697469616c697a61626c653a20636f6e747261637420697320616c726561647920696e697469616c697a6564536166654d6174683a206d756c7469706c69636174696f6e206f766572666c6f7775736572732026207374617475736573206c656e677468206d69736d6174636865647370656c6c732026207374617475736573206c656e677468206d69736d617463686564746f6b656e732026207374617475736573206c656e677468206d69736d6174636865645361666545524332303a204552433230206f7065726174696f6e20646964206e6f7420737563636565645361666545524332303a20617070726f76652066726f6d206e6f6e2d7a65726f20746f206e6f6e2d7a65726f20616c6c6f77616e6365a2646970667358221220babfa4ed990b5af37bf285a2e899bd68e7570336c8cd6f8b03829d4034d9ea4664736f6c634300060c0033",
  "bytecodeSha1": "d35bc9023e911d6476cfa1f47ef38e0702538bd2",
  "compiler": {
    "evm_version": "istanbul",
    "optimizer": {
      "enabled": true,
      "runs": 200
    },
    "version": "0.6.12+commit.27d51765"
  },
  "contractName": "HomoraBank",
  "language": "Solidity",
  "natspec": {
    "kind": "dev",
    "methods": {
      "EXECUTOR()": {
        "details": "Return the current executor (the owner of the current position)."
      },
      "acceptGovernor()": {
        "details": "Accept to become the new governor. Must be called by the pending governor."
      },
      "accrue(address)": {
        "details": "Trigger interest accrual for the given bank.",
        "params": {
          "token": "The underlying token to trigger the interest accrual."
        }
      },
      "accrueAll(address[])": {
        "details": "Convenient function to trigger interest accrual for a list of banks.",
        "params": {
          "tokens": "The list of banks to trigger interest accrual."
        }
      },
      "addBank(address,address)": {
        "details": "Add a new bank to the ecosystem.",
        "params": {
          "cToken": "The address of the cToken smart contract.",
          "token": "The underlying token for the bank."
        }
      },
      "allowBorrowStatus()": {
        "details": "Bank borrow status allowed or not",
        "notice": "check last bit of bankStatus"
      },
      "allowRepayStatus()": {
        "details": "Bank repay status allowed or not",
        "notice": "Check second-to-last bit of bankStatus"
      },
      "borrow(address,uint256)": {
        "details": "Borrow tokens from that bank. Must only be called while under execution.",
        "params": {
          "amount": "The amount of tokens to borrow.",
          "token": "The token to borrow from the bank."
        }
      },
      "borrowBalanceCurrent(uint256,address)": {
        "details": "Trigger interest accrual and return the current borrow balance.",
        "params": {
          "positionId": "The position to query for borrow balance.",
          "token": "The token to query for borrow balance."
        }
      },
      "borrowBalanceStored(uint256,address)": {
        "details": "Return the borrow balance for given position and token without triggering interest accrual.",
        "params": {
          "positionId": "The position to query for borrow balance.",
          "token": "The token to query for borrow balance."
        }
      },
      "execute(uint256,address,bytes)": {
        "details": "Execute the action via HomoraCaster, calling its function with the supplied data.",
        "params": {
          "data": "Extra data to pass to the target for the execution.",
          "positionId": "The position ID to execute the action, or zero for new position.",
          "spell": "The target spell to invoke the execution via HomoraCaster."
        }
      },
      "getBankInfo(address)": {
        "details": "Return bank information for the given token.",
        "params": {
          "token": "The token address to query for bank information."
        }
      },
      "getBorrowCELOValue(uint256)": {
        "details": "Return the total borrow value of the given position in CELO.",
        "params": {
          "positionId": "The position ID to query for the borrow value."
        }
      },
      "getCollateralCELOValue(uint256)": {
        "details": "Return the total collateral value of the given position in CELO.",
        "params": {
          "positionId": "The position ID to query for the collateral value."
        }
      },
      "getCurrentPositionInfo()": {
        "details": "Return current position information"
      },
      "getPositionDebtShareOf(uint256,address)": {
        "details": "Return the debt share of the given bank token for the given position id.",
        "params": {
          "positionId": "position id to get debt of",
          "token": "ERC20 debt token to query"
        }
      },
      "getPositionDebts(uint256)": {
        "details": "Return the list of all debts for the given position id.",
        "params": {
          "positionId": "position id to get debts of"
        }
      },
      "getPositionInfo(uint256)": {
        "details": "Return position information for the given position id.",
        "params": {
          "positionId": "The position id to query for position information."
        }
      },
      "initialize(address,uint256)": {
        "details": "Initialize the bank smart contract, using msg.sender as the first governor.",
        "params": {
          "_feeBps": "The fee collected to Homora bank.",
          "_oracle": "The oracle smart contract address."
        }
      },
      "liquidate(uint256,address,uint256)": {
        "details": "Liquidate a position. Pay debt for its owner and take the collateral.",
        "params": {
          "amountCall": "The amount to repay when doing transferFrom call.",
          "debtToken": "The debt token to repay.",
          "positionId": "The position ID to liquidate."
        }
      },
      "putCollateral(address,uint256,uint256)": {
        "details": "Put more collateral for users. Must only be called during execution.",
        "params": {
          "amountCall": "The amount of tokens to put via transferFrom.",
          "collId": "The token id to collateral.",
          "collToken": "The ERC1155 token to collateral."
        }
      },
      "repay(address,uint256)": {
        "details": "Repay tokens to the bank. Must only be called while under execution.",
        "params": {
          "amountCall": "The amount of tokens to repay via transferFrom.",
          "token": "The token to repay to the bank."
        }
      },
      "setAllowContractCalls(bool)": {
        "details": "Set allowContractCalls",
        "params": {
          "ok": "The status to set allowContractCalls to (false = onlyEOA)"
        }
      },
      "setBankStatus(uint256)": {
        "details": "Set bank status",
        "params": {
          "_bankStatus": "new bank status to change to"
        }
      },
      "setFeeBps(uint256)": {
        "details": "Set the fee bps value that Homora bank charges.",
        "params": {
          "_feeBps": "The new fee bps value."
        }
      },
      "setOracle(address)": {
        "details": "Set the oracle smart contract address.",
        "params": {
          "_oracle": "The new oracle smart contract address."
        }
      },
      "setPendingGovernor(address)": {
        "details": "Set the pending governor, which will be the governor once accepted.",
        "params": {
          "_pendingGovernor": "The address to become the pending governor."
        }
      },
      "setWhitelistSpells(address[],bool[])": {
        "details": "Set whitelist spell status",
        "params": {
          "spells": "list of spells to change status",
          "statuses": "list of statuses to change to"
        }
      },
      "setWhitelistTokens(address[],bool[])": {
        "details": "Set whitelist token status",
        "params": {
          "statuses": "list of statuses to change to",
          "tokens": "list of tokens to change status"
        }
      },
      "setWhitelistUsers(address[],bool[])": {
        "details": "Set whitelist user status",
        "params": {
          "statuses": "list of statuses to change to",
          "users": "list of users to change status"
        }
      },
      "support(address)": {
        "details": "Check whether the oracle supports the token",
        "params": {
          "token": "ERC-20 token to check for support"
        }
      },
      "supportsInterface(bytes4)": {
        "details": "See {IERC165-supportsInterface}. Time complexity O(1), guaranteed to always use less than 30 000 gas."
      },
      "takeCollateral(address,uint256,uint256)": {
        "details": "Take some collateral back. Must only be called during execution.",
        "params": {
          "amount": "The amount of tokens to take back via transfer.",
          "collId": "The token id to take back.",
          "collToken": "The ERC1155 token to take back."
        }
      },
      "transmit(address,uint256)": {
        "details": "Transmit user assets to the caller, so users only need to approve Bank for spending.",
        "params": {
          "amount": "The amount to transfer.",
          "token": "The token to transfer from user to the caller."
        }
      },
      "withdrawReserve(address,uint256)": {
        "details": "Withdraw the reserve portion of the bank.",
        "params": {
          "amount": "The amount of tokens to withdraw."
        }
      }
    },
    "stateVariables": {
      "POSITION_ID": {
        "details": "Return the current position while under execution."
      },
      "SPELL": {
        "details": "Return the current target while under execution."
      }
    },
    "version": 1
  },
  "opcodes": "PUSH1 0x80 PUSH1 0x40 MSTORE PUSH1 0x4 CALLDATASIZE LT PUSH2 0x36B JUMPI PUSH1 0x0 CALLDATALOAD PUSH1 0xE0 SHR DUP1 PUSH4 0x7CBDAE6F GT PUSH2 0x1C6 JUMPI DUP1 PUSH4 0xD2FFC9F3 GT PUSH2 0xF7 JUMPI DUP1 PUSH4 0xE58BB639 GT PUSH2 0x95 JUMPI DUP1 PUSH4 0xF23A6E61 GT PUSH2 0x6F JUMPI DUP1 PUSH4 0xF23A6E61 EQ PUSH2 0x1195 JUMPI DUP1 PUSH4 0xF621CC48 EQ PUSH2 0x1235 JUMPI DUP1 PUSH4 0xF70AEDD9 EQ PUSH2 0x1268 JUMPI DUP1 PUSH4 0xFC5D28A8 EQ PUSH2 0x127D JUMPI PUSH2 0x36B JUMP JUMPDEST DUP1 PUSH4 0xE58BB639 EQ PUSH2 0x111A JUMPI DUP1 PUSH4 0xE660CC08 EQ PUSH2 0x112F JUMPI DUP1 PUSH4 0xF235757F EQ PUSH2 0x1162 JUMPI PUSH2 0x36B JUMP JUMPDEST DUP1 PUSH4 0xDAF9C210 GT PUSH2 0xD1 JUMPI DUP1 PUSH4 0xDAF9C210 EQ PUSH2 0x107E JUMPI DUP1 PUSH4 0xDD6F3C70 EQ PUSH2 0x10B1 JUMPI DUP1 PUSH4 0xDE5AF644 EQ PUSH2 0x10DB JUMPI DUP1 PUSH4 0xE3056A34 EQ PUSH2 0x1105 JUMPI PUSH2 0x36B JUMP JUMPDEST DUP1 PUSH4 0xD2FFC9F3 EQ PUSH2 0x101B JUMPI DUP1 PUSH4 0xD44B11F0 EQ PUSH2 0x1030 JUMPI DUP1 PUSH4 0xD7AC71FF EQ PUSH2 0x1069 JUMPI PUSH2 0x36B JUMP JUMPDEST DUP1 PUSH4 0x92FF1AD9 GT PUSH2 0x164 JUMPI DUP1 PUSH4 0xBC197C81 GT PUSH2 0x13E JUMPI DUP1 PUSH4 0xBC197C81 EQ PUSH2 0xE67 JUMPI DUP1 PUSH4 0xC9A4BB3F EQ PUSH2 0xFB8 JUMPI DUP1 PUSH4 0xCD6DC687 EQ PUSH2 0xFCD JUMPI DUP1 PUSH4 0xD05E44A4 EQ PUSH2 0x1006 JUMPI PUSH2 0x36B JUMP JUMPDEST DUP1 PUSH4 0x92FF1AD9 EQ PUSH2 0xD26 JUMPI DUP1 PUSH4 0x99FBAB88 EQ PUSH2 0xD3B JUMPI DUP1 PUSH4 0xA20A5906 EQ PUSH2 0xD9C JUMPI PUSH2 0x36B JUMP JUMPDEST DUP1 PUSH4 0x82A2FB9C GT PUSH2 0x1A0 JUMPI DUP1 PUSH4 0x82A2FB9C EQ PUSH2 0xC7B JUMPI DUP1 PUSH4 0x86C0DC88 EQ PUSH2 0xCB4 JUMPI DUP1 PUSH4 0x899346C7 EQ PUSH2 0xCE7 JUMPI DUP1 PUSH4 0x9011C815 EQ PUSH2 0xCFC JUMPI PUSH2 0x36B JUMP JUMPDEST DUP1 PUSH4 0x7CBDAE6F EQ PUSH2 0xBCA JUMPI DUP1 PUSH4 0x7DC0D1D0 EQ PUSH2 0xBF4 JUMPI DUP1 PUSH4 0x80C3B8C2 EQ PUSH2 0xC09 JUMPI PUSH2 0x36B JUMP JUMPDEST DUP1 PUSH4 0x48D6BBC2 GT PUSH2 0x2A0 JUMPI DUP1 PUSH4 0x6D6AF334 GT PUSH2 0x23E JUMPI DUP1 PUSH4 0x76636722 GT PUSH2 0x218 JUMPI DUP1 PUSH4 0x76636722 EQ PUSH2 0xADB JUMPI DUP1 PUSH4 0x79BD1EAC EQ PUSH2 0xAF0 JUMPI DUP1 PUSH4 0x7ADBF973 EQ PUSH2 0xB2F JUMPI DUP1 PUSH4 0x7B79413A EQ PUSH2 0xB62 JUMPI PUSH2 0x36B JUMP JUMPDEST DUP1 PUSH4 0x6D6AF334 EQ PUSH2 0x935 JUMPI DUP1 PUSH4 0x710A9F68 EQ PUSH2 0x9F8 JUMPI DUP1 PUSH4 0x72C27B62 EQ PUSH2 0xAB1 JUMPI PUSH2 0x36B JUMP JUMPDEST DUP1 PUSH4 0x519F5099 GT PUSH2 0x27A JUMPI DUP1 PUSH4 0x519F5099 EQ PUSH2 0x852 JUMPI DUP1 PUSH4 0x630DC7CB EQ PUSH2 0x8AE JUMPI DUP1 PUSH4 0x6680AC0B EQ PUSH2 0x8C3 JUMPI DUP1 PUSH4 0x68EB4BA8 EQ PUSH2 0x8F6 JUMPI PUSH2 0x36B JUMP JUMPDEST DUP1 PUSH4 0x48D6BBC2 EQ PUSH2 0x715 JUMPI DUP1 PUSH4 0x4B8A3529 EQ PUSH2 0x74E JUMPI DUP1 PUSH4 0x4DF890F6 EQ PUSH2 0x787 JUMPI PUSH2 0x36B JUMP JUMPDEST DUP1 PUSH4 0x2FFD889B GT PUSH2 0x30D JUMPI DUP1 PUSH4 0x38BD678A GT PUSH2 0x2E7 JUMPI DUP1 PUSH4 0x38BD678A EQ PUSH2 0x5E4 JUMPI DUP1 PUSH4 0x3A55F85E EQ PUSH2 0x692 JUMPI DUP1 PUSH4 0x3D30FB48 EQ PUSH2 0x6C5 JUMPI DUP1 PUSH4 0x3D581D8E EQ PUSH2 0x700 JUMPI PUSH2 0x36B JUMP JUMPDEST DUP1 PUSH4 0x2FFD889B EQ PUSH2 0x4C5 JUMPI DUP1 PUSH4 0x314568D9 EQ PUSH2 0x4DA JUMPI DUP1 PUSH4 0x331D9364 EQ PUSH2 0x519 JUMPI PUSH2 0x36B JUMP JUMPDEST DUP1 PUSH4 0xE5641E6 GT PUSH2 0x349 JUMPI DUP1 PUSH4 0xE5641E6 EQ PUSH2 0x417 JUMPI DUP1 PUSH4 0x1C58CE14 EQ PUSH2 0x43E JUMPI DUP1 PUSH4 0x22867D78 EQ PUSH2 0x477 JUMPI DUP1 PUSH4 0x24A9D853 EQ PUSH2 0x4B0 JUMPI PUSH2 0x36B JUMP JUMPDEST DUP1 PUSH4 0x1FFC9A7 EQ PUSH2 0x370 JUMPI DUP1 PUSH4 0x71FECA3 EQ PUSH2 0x3B8 JUMPI DUP1 PUSH4 0xC340A24 EQ PUSH2 0x3E6 JUMPI JUMPDEST PUSH1 0x0 DUP1 REVERT JUMPDEST CALLVALUE DUP1 ISZERO PUSH2 0x37C JUMPI PUSH1 0x0 DUP1 REVERT JUMPDEST POP PUSH2 0x3A4 PUSH1 0x4 DUP1 CALLDATASIZE SUB PUSH1 0x20 DUP2 LT ISZERO PUSH2 0x393 JUMPI PUSH1 0x0 DUP1 REVERT JUMPDEST POP CALLDATALOAD PUSH1 0x1 PUSH1 0x1 PUSH1 0xE0 SHL SUB NOT AND PUSH2 0x12B6 JUMP JUMPDEST PUSH1 0x40 DUP1 MLOAD SWAP2 ISZERO ISZERO DUP3 MSTORE MLOAD SWAP1 DUP2 SWAP1 SUB PUSH1 0x20 ADD SWAP1 RETURN JUMPDEST CALLVALUE DUP1 ISZERO PUSH2 0x3C4 JUMPI PUSH1 0x0 DUP1 REVERT JUMPDEST POP PUSH2 0x3E4 PUSH1 0x4 DUP1 CALLDATASIZE SUB PUSH1 0x20 DUP2 LT ISZERO PUSH2 0x3DB JUMPI PUSH1 0x0 DUP1 REVERT JUMPDEST POP CALLDATALOAD ISZERO ISZERO PUSH2 0x12D9 JUMP JUMPDEST STOP JUMPDEST CALLVALUE DUP1 ISZERO PUSH2 0x3F2 JUMPI PUSH1 0x0 DUP1 REVERT JUMPDEST POP PUSH2 0x3FB PUSH2 0x1344 JUMP JUMPDEST PUSH1 0x40 DUP1 MLOAD PUSH1 0x1 PUSH1 0x1 PUSH1 0xA0 SHL SUB SWAP1 SWAP3 AND DUP3 MSTORE MLOAD SWAP1 DUP2 SWAP1 SUB PUSH1 0x20 ADD SWAP1 RETURN JUMPDEST CALLVALUE DUP1 ISZERO PUSH2 0x423 JUMPI PUSH1 0x0 DUP1 REVERT JUMPDEST POP PUSH2 0x42C PUSH2 0x1359 JUMP JUMPDEST PUSH1 0x40 DUP1 MLOAD SWAP2 DUP3 MSTORE MLOAD SWAP1 DUP2 SWAP1 SUB PUSH1 0x20 ADD SWAP1 RETURN JUMPDEST CALLVALUE DUP1 ISZERO PUSH2 0x44A JUMPI PUSH1 0x0 DUP1 REVERT JUMPDEST POP PUSH2 0x3E4 PUSH1 0x4 DUP1 CALLDATASIZE SUB PUSH1 0x40 DUP2 LT ISZERO PUSH2 0x461 JUMPI PUSH1 0x0 DUP1 REVERT JUMPDEST POP PUSH1 0x1 PUSH1 0x1 PUSH1 0xA0 SHL SUB DUP2 CALLDATALOAD AND SWAP1 PUSH1 0x20 ADD CALLDATALOAD PUSH2 0x135F JUMP JUMPDEST CALLVALUE DUP1 ISZERO PUSH2 0x483 JUMPI PUSH1 0x0 DUP1 REVERT JUMPDEST POP PUSH2 0x3E4 PUSH1 0x4 DUP1 CALLDATASIZE SUB PUSH1 0x40 DUP2 LT ISZERO PUSH2 0x49A JUMPI PUSH1 0x0 DUP1 REVERT JUMPDEST POP PUSH1 0x1 PUSH1 0x1 PUSH1 0xA0 SHL SUB DUP2 CALLDATALOAD AND SWAP1 PUSH1 0x20 ADD CALLDATALOAD PUSH2 0x14DB JUMP JUMPDEST CALLVALUE DUP1 ISZERO PUSH2 0x4BC JUMPI PUSH1 0x0 DUP1 REVERT JUMPDEST POP PUSH2 0x42C PUSH2 0x16FC JUMP JUMPDEST CALLVALUE DUP1 ISZERO PUSH2 0x4D1 JUMPI PUSH1 0x0 DUP1 REVERT JUMPDEST POP PUSH2 0x3A4 PUSH2 0x1702 JUMP JUMPDEST CALLVALUE DUP1 ISZERO PUSH2 0x4E6 JUMPI PUSH1 0x0 DUP1 REVERT JUMPDEST POP PUSH2 0x3E4 PUSH1 0x4 DUP1 CALLDATASIZE SUB PUSH1 0x60 DUP2 LT ISZERO PUSH2 0x4FD JUMPI PUSH1 0x0 DUP1 REVERT JUMPDEST POP PUSH1 0x1 PUSH1 0x1 PUSH1 0xA0 SHL SUB DUP2 CALLDATALOAD AND SWAP1 PUSH1 0x20 DUP2 ADD CALLDATALOAD SWAP1 PUSH1 0x40 ADD CALLDATALOAD PUSH2 0x170D JUMP JUMPDEST CALLVALUE DUP1 ISZERO PUSH2 0x525 JUMPI PUSH1 0x0 DUP1 REVERT JUMPDEST POP PUSH2 0x3E4 PUSH1 0x4 DUP1 CALLDATASIZE SUB PUSH1 0x40 DUP2 LT ISZERO PUSH2 0x53C JUMPI PUSH1 0x0 DUP1 REVERT JUMPDEST DUP2 ADD SWAP1 PUSH1 0x20 DUP2 ADD DUP2 CALLDATALOAD PUSH1 0x1 PUSH1 0x20 SHL DUP2 GT ISZERO PUSH2 0x556 JUMPI PUSH1 0x0 DUP1 REVERT JUMPDEST DUP3 ADD DUP4 PUSH1 0x20 DUP3 ADD GT ISZERO PUSH2 0x568 JUMPI PUSH1 0x0 DUP1 REVERT JUMPDEST DUP1 CALLDATALOAD SWAP1 PUSH1 0x20 ADD SWAP2 DUP5 PUSH1 0x20 DUP4 MUL DUP5 ADD GT PUSH1 0x1 PUSH1 0x20 SHL DUP4 GT OR ISZERO PUSH2 0x589 JUMPI PUSH1 0x0 DUP1 REVERT JUMPDEST SWAP2 SWAP4 SWAP1 SWAP3 SWAP1 SWAP2 PUSH1 0x20 DUP2 ADD SWAP1 CALLDATALOAD PUSH1 0x1 PUSH1 0x20 SHL DUP2 GT ISZERO PUSH2 0x5A6 JUMPI PUSH1 0x0 DUP1 REVERT JUMPDEST DUP3 ADD DUP4 PUSH1 0x20 DUP3 ADD GT ISZERO PUSH2 0x5B8 JUMPI PUSH1 0x0 DUP1 REVERT JUMPDEST DUP1 CALLDATALOAD SWAP1 PUSH1 0x20 ADD SWAP2 DUP5 PUSH1 0x20 DUP4 MUL DUP5 ADD GT PUSH1 0x1 PUSH1 0x20 SHL DUP4 GT OR ISZERO PUSH2 0x5D9 JUMPI PUSH1 0x0 DUP1 REVERT JUMPDEST POP SWAP1 SWAP3 POP SWAP1 POP PUSH2 0x19EF JUMP JUMPDEST CALLVALUE DUP1 ISZERO PUSH2 0x5F0 JUMPI PUSH1 0x0 DUP1 REVERT JUMPDEST POP PUSH2 0x3E4 PUSH1 0x4 DUP1 CALLDATASIZE SUB PUSH1 0x20 DUP2 LT ISZERO PUSH2 0x607 JUMPI PUSH1 0x0 DUP1 REVERT JUMPDEST DUP2 ADD SWAP1 PUSH1 0x20 DUP2 ADD DUP2 CALLDATALOAD PUSH1 0x1 PUSH1 0x20 SHL DUP2 GT ISZERO PUSH2 0x621 JUMPI PUSH1 0x0 DUP1 REVERT JUMPDEST DUP3 ADD DUP4 PUSH1 0x20 DUP3 ADD GT ISZERO PUSH2 0x633 JUMPI PUSH1 0x0 DUP1 REVERT JUMPDEST DUP1 CALLDATALOAD SWAP1 PUSH1 0x20 ADD SWAP2 DUP5 PUSH1 0x20 DUP4 MUL DUP5 ADD GT PUSH1 0x1 PUSH1 0x20 SHL DUP4 GT OR ISZERO PUSH2 0x654 JUMPI PUSH1 0x0 DUP1 REVERT JUMPDEST SWAP2 SWAP1 DUP1 DUP1 PUSH1 0x20 MUL PUSH1 0x20 ADD PUSH1 0x40 MLOAD SWAP1 DUP2 ADD PUSH1 0x40 MSTORE DUP1 SWAP4 SWAP3 SWAP2 SWAP1 DUP2 DUP2 MSTORE PUSH1 0x20 ADD DUP4 DUP4 PUSH1 0x20 MUL DUP1 DUP3 DUP5 CALLDATACOPY PUSH1 0x0 SWAP3 ADD SWAP2 SWAP1 SWAP2 MSTORE POP SWAP3 SWAP6 POP PUSH2 0x1B82 SWAP5 POP POP POP POP POP JUMP JUMPDEST CALLVALUE DUP1 ISZERO PUSH2 0x69E JUMPI PUSH1 0x0 DUP1 REVERT JUMPDEST POP PUSH2 0x3A4 PUSH1 0x4 DUP1 CALLDATASIZE SUB PUSH1 0x20 DUP2 LT ISZERO PUSH2 0x6B5 JUMPI PUSH1 0x0 DUP1 REVERT JUMPDEST POP CALLDATALOAD PUSH1 0x1 PUSH1 0x1 PUSH1 0xA0 SHL SUB AND PUSH2 0x1BB6 JUMP JUMPDEST CALLVALUE DUP1 ISZERO PUSH2 0x6D1 JUMPI PUSH1 0x0 DUP1 REVERT JUMPDEST POP PUSH2 0x3E4 PUSH1 0x4 DUP1 CALLDATASIZE SUB PUSH1 0x40 DUP2 LT ISZERO PUSH2 0x6E8 JUMPI PUSH1 0x0 DUP1 REVERT JUMPDEST POP PUSH1 0x1 PUSH1 0x1 PUSH1 0xA0 SHL SUB DUP2 CALLDATALOAD DUP2 AND SWAP2 PUSH1 0x20 ADD CALLDATALOAD AND PUSH2 0x1BCB JUMP JUMPDEST CALLVALUE DUP1 ISZERO PUSH2 0x70C JUMPI PUSH1 0x0 DUP1 REVERT JUMPDEST POP PUSH2 0x3A4 PUSH2 0x1E4D JUMP JUMPDEST CALLVALUE DUP1 ISZERO PUSH2 0x721 JUMPI PUSH1 0x0 DUP1 REVERT JUMPDEST POP PUSH2 0x3E4 PUSH1 0x4 DUP1 CALLDATASIZE SUB PUSH1 0x40 DUP2 LT ISZERO PUSH2 0x738 JUMPI PUSH1 0x0 DUP1 REVERT JUMPDEST POP PUSH1 0x1 PUSH1 0x1 PUSH1 0xA0 SHL SUB DUP2 CALLDATALOAD AND SWAP1 PUSH1 0x20 ADD CALLDATALOAD PUSH2 0x1E58 JUMP JUMPDEST CALLVALUE DUP1 ISZERO PUSH2 0x75A JUMPI PUSH1 0x0 DUP1 REVERT JUMPDEST POP PUSH2 0x3E4 PUSH1 0x4 DUP1 CALLDATASIZE SUB PUSH1 0x40 DUP2 LT ISZERO PUSH2 0x771 JUMPI PUSH1 0x0 DUP1 REVERT JUMPDEST POP PUSH1 0x1 PUSH1 0x1 PUSH1 0xA0 SHL SUB DUP2 CALLDATALOAD AND SWAP1 PUSH1 0x20 ADD CALLDATALOAD PUSH2 0x1F78 JUMP JUMPDEST CALLVALUE DUP1 ISZERO PUSH2 0x793 JUMPI PUSH1 0x0 DUP1 REVERT JUMPDEST POP PUSH2 0x3E4 PUSH1 0x4 DUP1 CALLDATASIZE SUB PUSH1 0x40 DUP2 LT ISZERO PUSH2 0x7AA JUMPI PUSH1 0x0 DUP1 REVERT JUMPDEST DUP2 ADD SWAP1 PUSH1 0x20 DUP2 ADD DUP2 CALLDATALOAD PUSH1 0x1 PUSH1 0x20 SHL DUP2 GT ISZERO PUSH2 0x7C4 JUMPI PUSH1 0x0 DUP1 REVERT JUMPDEST DUP3 ADD DUP4 PUSH1 0x20 DUP3 ADD GT ISZERO PUSH2 0x7D6 JUMPI PUSH1 0x0 DUP1 REVERT JUMPDEST DUP1 CALLDATALOAD SWAP1 PUSH1 0x20 ADD SWAP2 DUP5 PUSH1 0x20 DUP4 MUL DUP5 ADD GT PUSH1 0x1 PUSH1 0x20 SHL DUP4 GT OR ISZERO PUSH2 0x7F7 JUMPI PUSH1 0x0 DUP1 REVERT JUMPDEST SWAP2 SWAP4 SWAP1 SWAP3 SWAP1 SWAP2 PUSH1 0x20 DUP2 ADD SWAP1 CALLDATALOAD PUSH1 0x1 PUSH1 0x20 SHL DUP2 GT ISZERO PUSH2 0x814 JUMPI PUSH1 0x0 DUP1 REVERT JUMPDEST DUP3 ADD DUP4 PUSH1 0x20 DUP3 ADD GT ISZERO PUSH2 0x826 JUMPI PUSH1 0x0 DUP1 REVERT JUMPDEST DUP1 CALLDATALOAD SWAP1 PUSH1 0x20 ADD SWAP2 DUP5 PUSH1 0x20 DUP4 MUL DUP5 ADD GT PUSH1 0x1 PUSH1 0x20 SHL DUP4 GT OR ISZERO PUSH2 0x847 JUMPI PUSH1 0x0 DUP1 REVERT JUMPDEST POP SWAP1 SWAP3 POP SWAP1 POP PUSH2 0x227C JUMP JUMPDEST CALLVALUE DUP1 ISZERO PUSH2 0x85E JUMPI PUSH1 0x0 DUP1 REVERT JUMPDEST POP PUSH2 0x87C PUSH1 0x4 DUP1 CALLDATASIZE SUB PUSH1 0x20 DUP2 LT ISZERO PUSH2 0x875 JUMPI PUSH1 0x0 DUP1 REVERT JUMPDEST POP CALLDATALOAD PUSH2 0x237B JUMP JUMPDEST PUSH1 0x40 DUP1 MLOAD PUSH1 0x1 PUSH1 0x1 PUSH1 0xA0 SHL SUB SWAP6 DUP7 AND DUP2 MSTORE SWAP4 SWAP1 SWAP5 AND PUSH1 0x20 DUP5 ADD MSTORE DUP3 DUP5 ADD SWAP2 SWAP1 SWAP2 MSTORE PUSH1 0x60 DUP3 ADD MSTORE SWAP1 MLOAD SWAP1 DUP2 SWAP1 SUB PUSH1 0x80 ADD SWAP1 RETURN JUMPDEST CALLVALUE DUP1 ISZERO PUSH2 0x8BA JUMPI PUSH1 0x0 DUP1 REVERT JUMPDEST POP PUSH2 0x3FB PUSH2 0x23AF JUMP JUMPDEST CALLVALUE DUP1 ISZERO PUSH2 0x8CF JUMPI PUSH1 0x0 DUP1 REVERT JUMPDEST POP PUSH2 0x3E4 PUSH1 0x4 DUP1 CALLDATASIZE SUB PUSH1 0x20 DUP2 LT ISZERO PUSH2 0x8E6 JUMPI PUSH1 0x0 DUP1 REVERT JUMPDEST POP CALLDATALOAD PUSH1 0x1 PUSH1 0x1 PUSH1 0xA0 SHL SUB AND PUSH2 0x241F JUMP JUMPDEST CALLVALUE DUP1 ISZERO PUSH2 0x902 JUMPI PUSH1 0x0 DUP1 REVERT JUMPDEST POP PUSH2 0x3E4 PUSH1 0x4 DUP1 CALLDATASIZE SUB PUSH1 0x60 DUP2 LT ISZERO PUSH2 0x919 JUMPI PUSH1 0x0 DUP1 REVERT JUMPDEST POP PUSH1 0x1 PUSH1 0x1 PUSH1 0xA0 SHL SUB DUP2 CALLDATALOAD AND SWAP1 PUSH1 0x20 DUP2 ADD CALLDATALOAD SWAP1 PUSH1 0x40 ADD CALLDATALOAD PUSH2 0x2578 JUMP JUMPDEST CALLVALUE DUP1 ISZERO PUSH2 0x941 JUMPI PUSH1 0x0 DUP1 REVERT JUMPDEST POP PUSH2 0x95F PUSH1 0x4 DUP1 CALLDATASIZE SUB PUSH1 0x20 DUP2 LT ISZERO PUSH2 0x958 JUMPI PUSH1 0x0 DUP1 REVERT JUMPDEST POP CALLDATALOAD PUSH2 0x282E JUMP JUMPDEST PUSH1 0x40 MLOAD DUP1 DUP1 PUSH1 0x20 ADD DUP1 PUSH1 0x20 ADD DUP4 DUP2 SUB DUP4 MSTORE DUP6 DUP2 DUP2 MLOAD DUP2 MSTORE PUSH1 0x20 ADD SWAP2 POP DUP1 MLOAD SWAP1 PUSH1 0x20 ADD SWAP1 PUSH1 0x20 MUL DUP1 DUP4 DUP4 PUSH1 0x0 JUMPDEST DUP4 DUP2 LT ISZERO PUSH2 0x9A3 JUMPI DUP2 DUP2 ADD MLOAD DUP4 DUP3 ADD MSTORE PUSH1 0x20 ADD PUSH2 0x98B JUMP JUMPDEST POP POP POP POP SWAP1 POP ADD DUP4 DUP2 SUB DUP3 MSTORE DUP5 DUP2 DUP2 MLOAD DUP2 MSTORE PUSH1 0x20 ADD SWAP2 POP DUP1 MLOAD SWAP1 PUSH1 0x20 ADD SWAP1 PUSH1 0x20 MUL DUP1 DUP4 DUP4 PUSH1 0x0 JUMPDEST DUP4 DUP2 LT ISZERO PUSH2 0x9E2 JUMPI DUP2 DUP2 ADD MLOAD DUP4 DUP3 ADD MSTORE PUSH1 0x20 ADD PUSH2 0x9CA JUMP JUMPDEST POP POP POP POP SWAP1 POP ADD SWAP5 POP POP POP POP POP PUSH1 0x40 MLOAD DUP1 SWAP2 SUB SWAP1 RETURN JUMPDEST PUSH2 0x42C PUSH1 0x4 DUP1 CALLDATASIZE SUB PUSH1 0x60 DUP2 LT ISZERO PUSH2 0xA0E JUMPI PUSH1 0x0 DUP1 REVERT JUMPDEST DUP2 CALLDATALOAD SWAP2 PUSH1 0x1 PUSH1 0x1 PUSH1 0xA0 SHL SUB PUSH1 0x20 DUP3 ADD CALLDATALOAD AND SWAP2 DUP2 ADD SWAP1 PUSH1 0x60 DUP2 ADD PUSH1 0x40 DUP3 ADD CALLDATALOAD PUSH1 0x1 PUSH1 0x20 SHL DUP2 GT ISZERO PUSH2 0xA3D JUMPI PUSH1 0x0 DUP1 REVERT JUMPDEST DUP3 ADD DUP4 PUSH1 0x20 DUP3 ADD GT ISZERO PUSH2 0xA4F JUMPI PUSH1 0x0 DUP1 REVERT JUMPDEST DUP1 CALLDATALOAD SWAP1 PUSH1 0x20 ADD SWAP2 DUP5 PUSH1 0x1 DUP4 MUL DUP5 ADD GT PUSH1 0x1 PUSH1 0x20 SHL DUP4 GT OR ISZERO PUSH2 0xA70 JUMPI PUSH1 0x0 DUP1 REVERT JUMPDEST SWAP2 SWAP1 DUP1 DUP1 PUSH1 0x1F ADD PUSH1 0x20 DUP1 SWAP2 DIV MUL PUSH1 0x20 ADD PUSH1 0x40 MLOAD SWAP1 DUP2 ADD PUSH1 0x40 MSTORE DUP1 SWAP4 SWAP3 SWAP2 SWAP1 DUP2 DUP2 MSTORE PUSH1 0x20 ADD DUP4 DUP4 DUP1 DUP3 DUP5 CALLDATACOPY PUSH1 0x0 SWAP3 ADD SWAP2 SWAP1 SWAP2 MSTORE POP SWAP3 SWAP6 POP PUSH2 0x29CE SWAP5 POP POP POP POP POP JUMP JUMPDEST CALLVALUE DUP1 ISZERO PUSH2 0xABD JUMPI PUSH1 0x0 DUP1 REVERT JUMPDEST POP PUSH2 0x3E4 PUSH1 0x4 DUP1 CALLDATASIZE SUB PUSH1 0x20 DUP2 LT ISZERO PUSH2 0xAD4 JUMPI PUSH1 0x0 DUP1 REVERT JUMPDEST POP CALLDATALOAD PUSH2 0x2D4F JUMP JUMPDEST CALLVALUE DUP1 ISZERO PUSH2 0xAE7 JUMPI PUSH1 0x0 DUP1 REVERT JUMPDEST POP PUSH2 0x3FB PUSH2 0x2E28 JUMP JUMPDEST CALLVALUE DUP1 ISZERO PUSH2 0xAFC JUMPI PUSH1 0x0 DUP1 REVERT JUMPDEST POP PUSH2 0x3E4 PUSH1 0x4 DUP1 CALLDATASIZE SUB PUSH1 0x60 DUP2 LT ISZERO PUSH2 0xB13 JUMPI PUSH1 0x0 DUP1 REVERT JUMPDEST POP DUP1 CALLDATALOAD SWAP1 PUSH1 0x1 PUSH1 0x1 PUSH1 0xA0 SHL SUB PUSH1 0x20 DUP3 ADD CALLDATALOAD AND SWAP1 PUSH1 0x40 ADD CALLDATALOAD PUSH2 0x2E37 JUMP JUMPDEST CALLVALUE DUP1 ISZERO PUSH2 0xB3B JUMPI PUSH1 0x0 DUP1 REVERT JUMPDEST POP PUSH2 0x3E4 PUSH1 0x4 DUP1 CALLDATASIZE SUB PUSH1 0x20 DUP2 LT ISZERO PUSH2 0xB52 JUMPI PUSH1 0x0 DUP1 REVERT JUMPDEST POP CALLDATALOAD PUSH1 0x1 PUSH1 0x1 PUSH1 0xA0 SHL SUB AND PUSH2 0x3121 JUMP JUMPDEST CALLVALUE DUP1 ISZERO PUSH2 0xB6E JUMPI PUSH1 0x0 DUP1 REVERT JUMPDEST POP PUSH2 0xB95 PUSH1 0x4 DUP1 CALLDATASIZE SUB PUSH1 0x20 DUP2 LT ISZERO PUSH2 0xB85 JUMPI PUSH1 0x0 DUP1 REVERT JUMPDEST POP CALLDATALOAD PUSH1 0x1 PUSH1 0x1 PUSH1 0xA0 SHL SUB AND PUSH2 0x3228 JUMP JUMPDEST PUSH1 0x40 DUP1 MLOAD SWAP6 ISZERO ISZERO DUP7 MSTORE PUSH1 0x1 PUSH1 0x1 PUSH1 0xA0 SHL SUB SWAP1 SWAP5 AND PUSH1 0x20 DUP7 ADD MSTORE DUP5 DUP5 ADD SWAP3 SWAP1 SWAP3 MSTORE PUSH1 0x60 DUP5 ADD MSTORE PUSH1 0x80 DUP4 ADD MSTORE MLOAD SWAP1 DUP2 SWAP1 SUB PUSH1 0xA0 ADD SWAP1 RETURN JUMPDEST CALLVALUE DUP1 ISZERO PUSH2 0xBD6 JUMPI PUSH1 0x0 DUP1 REVERT JUMPDEST POP PUSH2 0x3E4 PUSH1 0x4 DUP1 CALLDATASIZE SUB PUSH1 0x20 DUP2 LT ISZERO PUSH2 0xBED JUMPI PUSH1 0x0 DUP1 REVERT JUMPDEST POP CALLDATALOAD PUSH2 0x3268 JUMP JUMPDEST CALLVALUE DUP1 ISZERO PUSH2 0xC00 JUMPI PUSH1 0x0 DUP1 REVERT JUMPDEST POP PUSH2 0x3FB PUSH2 0x32C5 JUMP JUMPDEST CALLVALUE DUP1 ISZERO PUSH2 0xC15 JUMPI PUSH1 0x0 DUP1 REVERT JUMPDEST POP PUSH2 0xC3C PUSH1 0x4 DUP1 CALLDATASIZE SUB PUSH1 0x20 DUP2 LT ISZERO PUSH2 0xC2C JUMPI PUSH1 0x0 DUP1 REVERT JUMPDEST POP CALLDATALOAD PUSH1 0x1 PUSH1 0x1 PUSH1 0xA0 SHL SUB AND PUSH2 0x32D4 JUMP JUMPDEST PUSH1 0x40 DUP1 MLOAD SWAP7 ISZERO ISZERO DUP8 MSTORE PUSH1 0xFF SWAP1 SWAP6 AND PUSH1 0x20 DUP8 ADD MSTORE PUSH1 0x1 PUSH1 0x1 PUSH1 0xA0 SHL SUB SWAP1 SWAP4 AND DUP6 DUP6 ADD MSTORE PUSH1 0x60 DUP6 ADD SWAP2 SWAP1 SWAP2 MSTORE PUSH1 0x80 DUP5 ADD MSTORE PUSH1 0xA0 DUP4 ADD MSTORE MLOAD SWAP1 DUP2 SWAP1 SUB PUSH1 0xC0 ADD SWAP1 RETURN JUMPDEST CALLVALUE DUP1 ISZERO PUSH2 0xC87 JUMPI PUSH1 0x0 DUP1 REVERT JUMPDEST POP PUSH2 0x42C PUSH1 0x4 DUP1 CALLDATASIZE SUB PUSH1 0x40 DUP2 LT ISZERO PUSH2 0xC9E JUMPI PUSH1 0x0 DUP1 REVERT JUMPDEST POP DUP1 CALLDATALOAD SWAP1 PUSH1 0x20 ADD CALLDATALOAD PUSH1 0x1 PUSH1 0x1 PUSH1 0xA0 SHL SUB AND PUSH2 0x3317 JUMP JUMPDEST CALLVALUE DUP1 ISZERO PUSH2 0xCC0 JUMPI PUSH1 0x0 DUP1 REVERT JUMPDEST POP PUSH2 0x3A4 PUSH1 0x4 DUP1 CALLDATASIZE SUB PUSH1 0x20 DUP2 LT ISZERO PUSH2 0xCD7 JUMPI PUSH1 0x0 DUP1 REVERT JUMPDEST POP CALLDATALOAD PUSH1 0x1 PUSH1 0x1 PUSH1 0xA0 SHL SUB AND PUSH2 0x3335 JUMP JUMPDEST CALLVALUE DUP1 ISZERO PUSH2 0xCF3 JUMPI PUSH1 0x0 DUP1 REVERT JUMPDEST POP PUSH2 0x42C PUSH2 0x334A JUMP JUMPDEST CALLVALUE DUP1 ISZERO PUSH2 0xD08 JUMPI PUSH1 0x0 DUP1 REVERT JUMPDEST POP PUSH2 0x42C PUSH1 0x4 DUP1 CALLDATASIZE SUB PUSH1 0x20 DUP2 LT ISZERO PUSH2 0xD1F JUMPI PUSH1 0x0 DUP1 REVERT JUMPDEST POP CALLDATALOAD PUSH2 0x3350 JUMP JUMPDEST CALLVALUE DUP1 ISZERO PUSH2 0xD32 JUMPI PUSH1 0x0 DUP1 REVERT JUMPDEST POP PUSH2 0x3FB PUSH2 0x346E JUMP JUMPDEST CALLVALUE DUP1 ISZERO PUSH2 0xD47 JUMPI PUSH1 0x0 DUP1 REVERT JUMPDEST POP PUSH2 0xD65 PUSH1 0x4 DUP1 CALLDATASIZE SUB PUSH1 0x20 DUP2 LT ISZERO PUSH2 0xD5E JUMPI PUSH1 0x0 DUP1 REVERT JUMPDEST POP CALLDATALOAD PUSH2 0x347D JUMP JUMPDEST PUSH1 0x40 DUP1 MLOAD PUSH1 0x1 PUSH1 0x1 PUSH1 0xA0 SHL SUB SWAP7 DUP8 AND DUP2 MSTORE SWAP5 SWAP1 SWAP6 AND PUSH1 0x20 DUP6 ADD MSTORE DUP4 DUP6 ADD SWAP3 SWAP1 SWAP3 MSTORE PUSH1 0x60 DUP4 ADD MSTORE PUSH1 0x80 DUP3 ADD MSTORE SWAP1 MLOAD SWAP1 DUP2 SWAP1 SUB PUSH1 0xA0 ADD SWAP1 RETURN JUMPDEST CALLVALUE DUP1 ISZERO PUSH2 0xDA8 JUMPI PUSH1 0x0 DUP1 REVERT JUMPDEST POP PUSH2 0x3E4 PUSH1 0x4 DUP1 CALLDATASIZE SUB PUSH1 0x40 DUP2 LT ISZERO PUSH2 0xDBF JUMPI PUSH1 0x0 DUP1 REVERT JUMPDEST DUP2 ADD SWAP1 PUSH1 0x20 DUP2 ADD DUP2 CALLDATALOAD PUSH1 0x1 PUSH1 0x20 SHL DUP2 GT ISZERO PUSH2 0xDD9 JUMPI PUSH1 0x0 DUP1 REVERT JUMPDEST DUP3 ADD DUP4 PUSH1 0x20 DUP3 ADD GT ISZERO PUSH2 0xDEB JUMPI PUSH1 0x0 DUP1 REVERT JUMPDEST DUP1 CALLDATALOAD SWAP1 PUSH1 0x20 ADD SWAP2 DUP5 PUSH1 0x20 DUP4 MUL DUP5 ADD GT PUSH1 0x1 PUSH1 0x20 SHL DUP4 GT OR ISZERO PUSH2 0xE0C JUMPI PUSH1 0x0 DUP1 REVERT JUMPDEST SWAP2 SWAP4 SWAP1 SWAP3 SWAP1 SWAP2 PUSH1 0x20 DUP2 ADD SWAP1 CALLDATALOAD PUSH1 0x1 PUSH1 0x20 SHL DUP2 GT ISZERO PUSH2 0xE29 JUMPI PUSH1 0x0 DUP1 REVERT JUMPDEST DUP3 ADD DUP4 PUSH1 0x20 DUP3 ADD GT ISZERO PUSH2 0xE3B JUMPI PUSH1 0x0 DUP1 REVERT JUMPDEST DUP1 CALLDATALOAD SWAP1 PUSH1 0x20 ADD SWAP2 DUP5 PUSH1 0x20 DUP4 MUL DUP5 ADD GT PUSH1 0x1 PUSH1 0x20 SHL DUP4 GT OR ISZERO PUSH2 0xE5C JUMPI PUSH1 0x0 DUP1 REVERT JUMPDEST POP SWAP1 SWAP3 POP SWAP1 POP PUSH2 0x34B8 JUMP JUMPDEST CALLVALUE DUP1 ISZERO PUSH2 0xE73 JUMPI PUSH1 0x0 DUP1 REVERT JUMPDEST POP PUSH2 0xF9B PUSH1 0x4 DUP1 CALLDATASIZE SUB PUSH1 0xA0 DUP2 LT ISZERO PUSH2 0xE8A JUMPI PUSH1 0x0 DUP1 REVERT JUMPDEST PUSH1 0x1 PUSH1 0x1 PUSH1 0xA0 SHL SUB DUP3 CALLDATALOAD DUP2 AND SWAP3 PUSH1 0x20 DUP2 ADD CALLDATALOAD SWAP1 SWAP2 AND SWAP2 DUP2 ADD SWAP1 PUSH1 0x60 DUP2 ADD PUSH1 0x40 DUP3 ADD CALLDATALOAD PUSH1 0x1 PUSH1 0x20 SHL DUP2 GT ISZERO PUSH2 0xEBD JUMPI PUSH1 0x0 DUP1 REVERT JUMPDEST DUP3 ADD DUP4 PUSH1 0x20 DUP3 ADD GT ISZERO PUSH2 0xECF JUMPI PUSH1 0x0 DUP1 REVERT JUMPDEST DUP1 CALLDATALOAD SWAP1 PUSH1 0x20 ADD SWAP2 DUP5 PUSH1 0x20 DUP4 MUL DUP5 ADD GT PUSH1 0x1 PUSH1 0x20 SHL DUP4 GT OR ISZERO PUSH2 0xEF0 JUMPI PUSH1 0x0 DUP1 REVERT JUMPDEST SWAP2 SWAP4 SWAP1 SWAP3 SWAP1 SWAP2 PUSH1 0x20 DUP2 ADD SWAP1 CALLDATALOAD PUSH1 0x1 PUSH1 0x20 SHL DUP2 GT ISZERO PUSH2 0xF0D JUMPI PUSH1 0x0 DUP1 REVERT JUMPDEST DUP3 ADD DUP4 PUSH1 0x20 DUP3 ADD GT ISZERO PUSH2 0xF1F JUMPI PUSH1 0x0 DUP1 REVERT JUMPDEST DUP1 CALLDATALOAD SWAP1 PUSH1 0x20 ADD SWAP2 DUP5 PUSH1 0x20 DUP4 MUL DUP5 ADD GT PUSH1 0x1 PUSH1 0x20 SHL DUP4 GT OR ISZERO PUSH2 0xF40 JUMPI PUSH1 0x0 DUP1 REVERT JUMPDEST SWAP2 SWAP4 SWAP1 SWAP3 SWAP1 SWAP2 PUSH1 0x20 DUP2 ADD SWAP1 CALLDATALOAD PUSH1 0x1 PUSH1 0x20 SHL DUP2 GT ISZERO PUSH2 0xF5D JUMPI PUSH1 0x0 DUP1 REVERT JUMPDEST DUP3 ADD DUP4 PUSH1 0x20 DUP3 ADD GT ISZERO PUSH2 0xF6F JUMPI PUSH1 0x0 DUP1 REVERT JUMPDEST DUP1 CALLDATALOAD SWAP1 PUSH1 0x20 ADD SWAP2 DUP5 PUSH1 0x1 DUP4 MUL DUP5 ADD GT PUSH1 0x1 PUSH1 0x20 SHL DUP4 GT OR ISZERO PUSH2 0xF90 JUMPI PUSH1 0x0 DUP1 REVERT JUMPDEST POP SWAP1 SWAP3 POP SWAP1 POP PUSH2 0x35B7 JUMP JUMPDEST PUSH1 0x40 DUP1 MLOAD PUSH1 0x1 PUSH1 0x1 PUSH1 0xE0 SHL SUB NOT SWAP1 SWAP3 AND DUP3 MSTORE MLOAD SWAP1 DUP2 SWAP1 SUB PUSH1 0x20 ADD SWAP1 RETURN JUMPDEST CALLVALUE DUP1 ISZERO PUSH2 0xFC4 JUMPI PUSH1 0x0 DUP1 REVERT JUMPDEST POP PUSH2 0x42C PUSH2 0x35CB JUMP JUMPDEST CALLVALUE DUP1 ISZERO PUSH2 0xFD9 JUMPI PUSH1 0x0 DUP1 REVERT JUMPDEST POP PUSH2 0x3E4 PUSH1 0x4 DUP1 CALLDATASIZE SUB PUSH1 0x40 DUP2 LT ISZERO PUSH2 0xFF0 JUMPI PUSH1 0x0 DUP1 REVERT JUMPDEST POP PUSH1 0x1 PUSH1 0x1 PUSH1 0xA0 SHL SUB DUP2 CALLDATALOAD AND SWAP1 PUSH1 0x20 ADD CALLDATALOAD PUSH2 0x35D1 JUMP JUMPDEST CALLVALUE DUP1 ISZERO PUSH2 0x1012 JUMPI PUSH1 0x0 DUP1 REVERT JUMPDEST POP PUSH2 0x42C PUSH2 0x37BD JUMP JUMPDEST CALLVALUE DUP1 ISZERO PUSH2 0x1027 JUMPI PUSH1 0x0 DUP1 REVERT JUMPDEST POP PUSH2 0x3A4 PUSH2 0x37C3 JUMP JUMPDEST CALLVALUE DUP1 ISZERO PUSH2 0x103C JUMPI PUSH1 0x0 DUP1 REVERT JUMPDEST POP PUSH2 0x42C PUSH1 0x4 DUP1 CALLDATASIZE SUB PUSH1 0x40 DUP2 LT ISZERO PUSH2 0x1053 JUMPI PUSH1 0x0 DUP1 REVERT JUMPDEST POP DUP1 CALLDATALOAD SWAP1 PUSH1 0x20 ADD CALLDATALOAD PUSH1 0x1 PUSH1 0x1 PUSH1 0xA0 SHL SUB AND PUSH2 0x37CC JUMP JUMPDEST CALLVALUE DUP1 ISZERO PUSH2 0x1075 JUMPI PUSH1 0x0 DUP1 REVERT JUMPDEST POP PUSH2 0x42C PUSH2 0x37F8 JUMP JUMPDEST CALLVALUE DUP1 ISZERO PUSH2 0x108A JUMPI PUSH1 0x0 DUP1 REVERT JUMPDEST POP PUSH2 0x3A4 PUSH1 0x4 DUP1 CALLDATASIZE SUB PUSH1 0x20 DUP2 LT ISZERO PUSH2 0x10A1 JUMPI PUSH1 0x0 DUP1 REVERT JUMPDEST POP CALLDATALOAD PUSH1 0x1 PUSH1 0x1 PUSH1 0xA0 SHL SUB AND PUSH2 0x37FE JUMP JUMPDEST CALLVALUE DUP1 ISZERO PUSH2 0x10BD JUMPI PUSH1 0x0 DUP1 REVERT JUMPDEST POP PUSH2 0x3FB PUSH1 0x4 DUP1 CALLDATASIZE SUB PUSH1 0x20 DUP2 LT ISZERO PUSH2 0x10D4 JUMPI PUSH1 0x0 DUP1 REVERT JUMPDEST POP CALLDATALOAD PUSH2 0x3813 JUMP JUMPDEST CALLVALUE DUP1 ISZERO PUSH2 0x10E7 JUMPI PUSH1 0x0 DUP1 REVERT JUMPDEST POP PUSH2 0x42C PUSH1 0x4 DUP1 CALLDATASIZE SUB PUSH1 0x20 DUP2 LT ISZERO PUSH2 0x10FE JUMPI PUSH1 0x0 DUP1 REVERT JUMPDEST POP CALLDATALOAD PUSH2 0x383A JUMP JUMPDEST CALLVALUE DUP1 ISZERO PUSH2 0x1111 JUMPI PUSH1 0x0 DUP1 REVERT JUMPDEST POP PUSH2 0x3FB PUSH2 0x3980 JUMP JUMPDEST CALLVALUE DUP1 ISZERO PUSH2 0x1126 JUMPI PUSH1 0x0 DUP1 REVERT JUMPDEST POP PUSH2 0x3E4 PUSH2 0x398F JUMP JUMPDEST CALLVALUE DUP1 ISZERO PUSH2 0x113B JUMPI PUSH1 0x0 DUP1 REVERT JUMPDEST POP PUSH2 0x3A4 PUSH1 0x4 DUP1 CALLDATASIZE SUB PUSH1 0x20 DUP2 LT ISZERO PUSH2 0x1152 JUMPI PUSH1 0x0 DUP1 REVERT JUMPDEST POP CALLDATALOAD PUSH1 0x1 PUSH1 0x1 PUSH1 0xA0 SHL SUB AND PUSH2 0x3A51 JUMP JUMPDEST CALLVALUE DUP1 ISZERO PUSH2 0x116E JUMPI PUSH1 0x0 DUP1 REVERT JUMPDEST POP PUSH2 0x3E4 PUSH1 0x4 DUP1 CALLDATASIZE SUB PUSH1 0x20 DUP2 LT ISZERO PUSH2 0x1185 JUMPI PUSH1 0x0 DUP1 REVERT JUMPDEST POP CALLDATALOAD PUSH1 0x1 PUSH1 0x1 PUSH1 0xA0 SHL SUB AND PUSH2 0x3AD4 JUMP JUMPDEST CALLVALUE DUP1 ISZERO PUSH2 0x11A1 JUMPI PUSH1 0x0 DUP1 REVERT JUMPDEST POP PUSH2 0xF9B PUSH1 0x4 DUP1 CALLDATASIZE SUB PUSH1 0xA0 DUP2 LT ISZERO PUSH2 0x11B8 JUMPI PUSH1 0x0 DUP1 REVERT JUMPDEST PUSH1 0x1 PUSH1 0x1 PUSH1 0xA0 SHL SUB DUP3 CALLDATALOAD DUP2 AND SWAP3 PUSH1 0x20 DUP2 ADD CALLDATALOAD SWAP1 SWAP2 AND SWAP2 PUSH1 0x40 DUP3 ADD CALLDATALOAD SWAP2 PUSH1 0x60 DUP2 ADD CALLDATALOAD SWAP2 DUP2 ADD SWAP1 PUSH1 0xA0 DUP2 ADD PUSH1 0x80 DUP3 ADD CALLDATALOAD PUSH1 0x1 PUSH1 0x20 SHL DUP2 GT ISZERO PUSH2 0x11F7 JUMPI PUSH1 0x0 DUP1 REVERT JUMPDEST DUP3 ADD DUP4 PUSH1 0x20 DUP3 ADD GT ISZERO PUSH2 0x1209 JUMPI PUSH1 0x0 DUP1 REVERT JUMPDEST DUP1 CALLDATALOAD SWAP1 PUSH1 0x20 ADD SWAP2 DUP5 PUSH1 0x1 DUP4 MUL DUP5 ADD GT PUSH1 0x1 PUSH1 0x20 SHL DUP4 GT OR ISZERO PUSH2 0x122A JUMPI PUSH1 0x0 DUP1 REVERT JUMPDEST POP SWAP1 SWAP3 POP SWAP1 POP PUSH2 0x3B80 JUMP JUMPDEST CALLVALUE DUP1 ISZERO PUSH2 0x1241 JUMPI PUSH1 0x0 DUP1 REVERT JUMPDEST POP PUSH2 0x3A4 PUSH1 0x4 DUP1 CALLDATASIZE SUB PUSH1 0x20 DUP2 LT ISZERO PUSH2 0x1258 JUMPI PUSH1 0x0 DUP1 REVERT JUMPDEST POP CALLDATALOAD PUSH1 0x1 PUSH1 0x1 PUSH1 0xA0 SHL SUB AND PUSH2 0x3B92 JUMP JUMPDEST CALLVALUE DUP1 ISZERO PUSH2 0x1274 JUMPI PUSH1 0x0 DUP1 REVERT JUMPDEST POP PUSH2 0x87C PUSH2 0x3BA7 JUMP JUMPDEST CALLVALUE DUP1 ISZERO PUSH2 0x1289 JUMPI PUSH1 0x0 DUP1 REVERT JUMPDEST POP PUSH2 0x42C PUSH1 0x4 DUP1 CALLDATASIZE SUB PUSH1 0x40 DUP2 LT ISZERO PUSH2 0x12A0 JUMPI PUSH1 0x0 DUP1 REVERT JUMPDEST POP DUP1 CALLDATALOAD SWAP1 PUSH1 0x20 ADD CALLDATALOAD PUSH1 0x1 PUSH1 0x1 PUSH1 0xA0 SHL SUB AND PUSH2 0x3C07 JUMP JUMPDEST PUSH1 0x1 PUSH1 0x1 PUSH1 0xE0 SHL SUB NOT DUP2 AND PUSH1 0x0 SWAP1 DUP2 MSTORE PUSH1 0x42 PUSH1 0x20 MSTORE PUSH1 0x40 SWAP1 KECCAK256 SLOAD PUSH1 0xFF AND JUMPDEST SWAP2 SWAP1 POP JUMP JUMPDEST PUSH1 0x0 SLOAD PUSH3 0x10000 SWAP1 DIV PUSH1 0x1 PUSH1 0x1 PUSH1 0xA0 SHL SUB AND CALLER EQ PUSH2 0x1331 JUMPI PUSH1 0x40 DUP1 MLOAD PUSH3 0x461BCD PUSH1 0xE5 SHL DUP2 MSTORE PUSH1 0x20 PUSH1 0x4 DUP3 ADD MSTORE PUSH1 0x10 PUSH1 0x24 DUP3 ADD MSTORE PUSH16 0x3737BA103A34329033B7BB32B93737B9 PUSH1 0x81 SHL PUSH1 0x44 DUP3 ADD MSTORE SWAP1 MLOAD SWAP1 DUP2 SWAP1 SUB PUSH1 0x64 ADD SWAP1 REVERT JUMPDEST PUSH1 0x8F DUP1 SLOAD PUSH1 0xFF NOT AND SWAP2 ISZERO ISZERO SWAP2 SWAP1 SWAP2 OR SWAP1 SSTORE JUMP JUMPDEST PUSH1 0x0 SLOAD PUSH3 0x10000 SWAP1 DIV PUSH1 0x1 PUSH1 0x1 PUSH1 0xA0 SHL SUB AND DUP2 JUMP JUMPDEST PUSH1 0x93 SLOAD DUP2 JUMP JUMPDEST PUSH1 0x0 SLOAD PUSH3 0x10000 SWAP1 DIV PUSH1 0x1 PUSH1 0x1 PUSH1 0xA0 SHL SUB AND CALLER EQ PUSH2 0x13B7 JUMPI PUSH1 0x40 DUP1 MLOAD PUSH3 0x461BCD PUSH1 0xE5 SHL DUP2 MSTORE PUSH1 0x20 PUSH1 0x4 DUP3 ADD MSTORE PUSH1 0x10 PUSH1 0x24 DUP3 ADD MSTORE PUSH16 0x3737BA103A34329033B7BB32B93737B9 PUSH1 0x81 SHL PUSH1 0x44 DUP3 ADD MSTORE SWAP1 MLOAD SWAP1 DUP2 SWAP1 SUB PUSH1 0x64 ADD SWAP1 REVERT JUMPDEST PUSH1 0x1 PUSH1 0x83 SLOAD EQ PUSH2 0x13FD JUMPI PUSH1 0x40 DUP1 MLOAD PUSH3 0x461BCD PUSH1 0xE5 SHL DUP2 MSTORE PUSH1 0x20 PUSH1 0x4 DUP3 ADD MSTORE PUSH1 0xC PUSH1 0x24 DUP3 ADD MSTORE PUSH12 0x67656E6572616C206C6F636B PUSH1 0xA0 SHL PUSH1 0x44 DUP3 ADD MSTORE SWAP1 MLOAD SWAP1 DUP2 SWAP1 SUB PUSH1 0x64 ADD SWAP1 REVERT JUMPDEST PUSH1 0x2 PUSH1 0x83 SSTORE PUSH1 0x1 PUSH1 0x1 PUSH1 0xA0 SHL SUB DUP3 AND PUSH1 0x0 SWAP1 DUP2 MSTORE PUSH1 0x8C PUSH1 0x20 MSTORE PUSH1 0x40 SWAP1 KECCAK256 DUP1 SLOAD PUSH1 0xFF AND PUSH2 0x1461 JUMPI PUSH1 0x40 DUP1 MLOAD PUSH3 0x461BCD PUSH1 0xE5 SHL DUP2 MSTORE PUSH1 0x20 PUSH1 0x4 DUP3 ADD MSTORE PUSH1 0xE PUSH1 0x24 DUP3 ADD MSTORE PUSH14 0x18985B9AC81B9BDD08195E1A5CDD PUSH1 0x92 SHL PUSH1 0x44 DUP3 ADD MSTORE SWAP1 MLOAD SWAP1 DUP2 SWAP1 SUB PUSH1 0x64 ADD SWAP1 REVERT JUMPDEST PUSH1 0x1 DUP2 ADD SLOAD PUSH2 0x1470 SWAP1 DUP4 PUSH2 0x3C7D JUMP JUMPDEST PUSH1 0x1 DUP3 ADD SSTORE PUSH2 0x1489 PUSH1 0x1 PUSH1 0x1 PUSH1 0xA0 SHL SUB DUP5 AND CALLER DUP5 PUSH2 0x3CDA JUMP JUMPDEST PUSH1 0x40 DUP1 MLOAD CALLER DUP2 MSTORE PUSH1 0x1 PUSH1 0x1 PUSH1 0xA0 SHL SUB DUP6 AND PUSH1 0x20 DUP3 ADD MSTORE DUP1 DUP3 ADD DUP5 SWAP1 MSTORE SWAP1 MLOAD PUSH32 0x1480BC3D4718A0A5FA9EB55D53E0B79A638148873FC124922BB0EC377425B85B SWAP2 DUP2 SWAP1 SUB PUSH1 0x60 ADD SWAP1 LOG1 POP POP PUSH1 0x1 PUSH1 0x83 SSTORE POP JUMP JUMPDEST PUSH1 0x0 NOT PUSH1 0x85 SLOAD EQ ISZERO PUSH2 0x152B JUMPI PUSH1 0x40 DUP1 MLOAD PUSH3 0x461BCD PUSH1 0xE5 SHL DUP2 MSTORE PUSH1 0x20 PUSH1 0x4 DUP3 ADD MSTORE PUSH1 0x14 PUSH1 0x24 DUP3 ADD MSTORE PUSH20 0x3737BA103BB4BA3434B71032BC32B1BABA34B7B7 PUSH1 0x61 SHL PUSH1 0x44 DUP3 ADD MSTORE SWAP1 MLOAD SWAP1 DUP2 SWAP1 SUB PUSH1 0x64 ADD SWAP1 REVERT JUMPDEST PUSH1 0x86 SLOAD PUSH1 0x1 PUSH1 0x1 PUSH1 0xA0 SHL SUB AND CALLER EQ PUSH2 0x157B JUMPI PUSH1 0x40 DUP1 MLOAD PUSH3 0x461BCD PUSH1 0xE5 SHL DUP2 MSTORE PUSH1 0x20 PUSH1 0x4 DUP3 ADD MSTORE PUSH1 0xE PUSH1 0x24 DUP3 ADD MSTORE PUSH14 0x1B9BDD08199C9BDB481CDC195B1B PUSH1 0x92 SHL PUSH1 0x44 DUP3 ADD MSTORE SWAP1 MLOAD SWAP1 DUP2 SWAP1 SUB PUSH1 0x64 ADD SWAP1 REVERT JUMPDEST PUSH1 0x1 PUSH1 0x84 SLOAD EQ PUSH2 0x15C1 JUMPI PUSH1 0x40 DUP1 MLOAD PUSH3 0x461BCD PUSH1 0xE5 SHL DUP2 MSTORE PUSH1 0x20 PUSH1 0x4 DUP3 ADD MSTORE PUSH1 0xC PUSH1 0x24 DUP3 ADD MSTORE PUSH12 0x696E2065786563206C6F636B PUSH1 0xA0 SHL PUSH1 0x44 DUP3 ADD MSTORE SWAP1 MLOAD SWAP1 DUP2 SWAP1 SUB PUSH1 0x64 ADD SWAP1 REVERT JUMPDEST PUSH1 0x2 PUSH1 0x84 SSTORE DUP2 PUSH2 0x15D0 DUP2 PUSH2 0x241F JUMP JUMPDEST PUSH2 0x15D8 PUSH2 0x1702 JUMP JUMPDEST PUSH2 0x161D JUMPI PUSH1 0x40 DUP1 MLOAD PUSH3 0x461BCD PUSH1 0xE5 SHL DUP2 MSTORE PUSH1 0x20 PUSH1 0x4 DUP3 ADD MSTORE PUSH1 0x11 PUSH1 0x24 DUP3 ADD MSTORE PUSH17 0x1C995C185E481B9BDD08185B1B1BDDD959 PUSH1 0x7A SHL PUSH1 0x44 DUP3 ADD MSTORE SWAP1 MLOAD SWAP1 DUP2 SWAP1 SUB PUSH1 0x64 ADD SWAP1 REVERT JUMPDEST PUSH1 0x1 PUSH1 0x1 PUSH1 0xA0 SHL SUB DUP4 AND PUSH1 0x0 SWAP1 DUP2 MSTORE PUSH1 0x90 PUSH1 0x20 MSTORE PUSH1 0x40 SWAP1 KECCAK256 SLOAD PUSH1 0xFF AND PUSH2 0x1682 JUMPI PUSH1 0x40 DUP1 MLOAD PUSH3 0x461BCD PUSH1 0xE5 SHL DUP2 MSTORE PUSH1 0x20 PUSH1 0x4 DUP3 ADD MSTORE PUSH1 0x15 PUSH1 0x24 DUP3 ADD MSTORE PUSH21 0x1D1BDAD95B881B9BDD081DDA1A5D195B1A5CDD1959 PUSH1 0x5A SHL PUSH1 0x44 DUP3 ADD MSTORE SWAP1 MLOAD SWAP1 DUP2 SWAP1 SUB PUSH1 0x64 ADD SWAP1 REVERT JUMPDEST PUSH1 0x0 DUP1 PUSH2 0x1692 PUSH1 0x85 SLOAD DUP7 DUP7 PUSH2 0x3D2C JUMP JUMPDEST PUSH1 0x85 SLOAD PUSH1 0x40 DUP1 MLOAD SWAP2 DUP3 MSTORE CALLER PUSH1 0x20 DUP4 ADD MSTORE PUSH1 0x1 PUSH1 0x1 PUSH1 0xA0 SHL SUB DUP10 AND DUP3 DUP3 ADD MSTORE PUSH1 0x60 DUP3 ADD DUP5 SWAP1 MSTORE PUSH1 0x80 DUP3 ADD DUP4 SWAP1 MSTORE MLOAD SWAP3 SWAP5 POP SWAP1 SWAP3 POP PUSH32 0x9181B2981704B7CF4448130F29CB5DA1F41E0418D000E7F8880000B09BCBEA45 SWAP2 SWAP1 DUP2 SWAP1 SUB PUSH1 0xA0 ADD SWAP1 LOG1 POP POP PUSH1 0x1 PUSH1 0x84 SSTORE POP POP POP JUMP JUMPDEST PUSH1 0x89 SLOAD DUP2 JUMP JUMPDEST PUSH1 0x93 SLOAD PUSH1 0x2 AND ISZERO ISZERO SWAP1 JUMP JUMPDEST PUSH1 0x0 NOT PUSH1 0x85 SLOAD EQ ISZERO PUSH2 0x175D JUMPI PUSH1 0x40 DUP1 MLOAD PUSH3 0x461BCD PUSH1 0xE5 SHL DUP2 MSTORE PUSH1 0x20 PUSH1 0x4 DUP3 ADD MSTORE PUSH1 0x14 PUSH1 0x24 DUP3 ADD MSTORE PUSH20 0x3737BA103BB4BA3434B71032BC32B1BABA34B7B7 PUSH1 0x61 SHL PUSH1 0x44 DUP3 ADD MSTORE SWAP1 MLOAD SWAP1 DUP2 SWAP1 SUB PUSH1 0x64 ADD SWAP1 REVERT JUMPDEST PUSH1 0x86 SLOAD PUSH1 0x1 PUSH1 0x1 PUSH1 0xA0 SHL SUB AND CALLER EQ PUSH2 0x17AD JUMPI PUSH1 0x40 DUP1 MLOAD PUSH3 0x461BCD PUSH1 0xE5 SHL DUP2 MSTORE PUSH1 0x20 PUSH1 0x4 DUP3 ADD MSTORE PUSH1 0xE PUSH1 0x24 DUP3 ADD MSTORE PUSH14 0x1B9BDD08199C9BDB481CDC195B1B PUSH1 0x92 SHL PUSH1 0x44 DUP3 ADD MSTORE SWAP1 MLOAD SWAP1 DUP2 SWAP1 SUB PUSH1 0x64 ADD SWAP1 REVERT JUMPDEST PUSH1 0x1 PUSH1 0x84 SLOAD EQ PUSH2 0x17F3 JUMPI PUSH1 0x40 DUP1 MLOAD PUSH3 0x461BCD PUSH1 0xE5 SHL DUP2 MSTORE PUSH1 0x20 PUSH1 0x4 DUP3 ADD MSTORE PUSH1 0xC PUSH1 0x24 DUP3 ADD MSTORE PUSH12 0x696E2065786563206C6F636B PUSH1 0xA0 SHL PUSH1 0x44 DUP3 ADD MSTORE SWAP1 MLOAD SWAP1 DUP2 SWAP1 SUB PUSH1 0x64 ADD SWAP1 REVERT JUMPDEST PUSH1 0x2 PUSH1 0x84 SSTORE PUSH1 0x85 SLOAD PUSH1 0x0 SWAP1 DUP2 MSTORE PUSH1 0x8E PUSH1 0x20 MSTORE PUSH1 0x40 SWAP1 KECCAK256 PUSH1 0x1 DUP2 ADD SLOAD PUSH1 0x1 PUSH1 0x1 PUSH1 0xA0 SHL SUB DUP6 DUP2 AND SWAP2 AND EQ ISZERO DUP1 PUSH2 0x182C JUMPI POP DUP3 DUP2 PUSH1 0x2 ADD SLOAD EQ ISZERO JUMPDEST ISZERO PUSH2 0x1968 JUMPI PUSH1 0x88 SLOAD PUSH1 0x40 DUP1 MLOAD PUSH4 0x2461A409 PUSH1 0xE0 SHL DUP2 MSTORE PUSH1 0x1 PUSH1 0x1 PUSH1 0xA0 SHL SUB DUP8 DUP2 AND PUSH1 0x4 DUP4 ADD MSTORE PUSH1 0x24 DUP3 ADD DUP8 SWAP1 MSTORE SWAP2 MLOAD SWAP2 SWAP1 SWAP3 AND SWAP2 PUSH4 0x2461A409 SWAP2 PUSH1 0x44 DUP1 DUP4 ADD SWAP3 PUSH1 0x20 SWAP3 SWAP2 SWAP1 DUP3 SWAP1 SUB ADD DUP2 DUP7 DUP1 EXTCODESIZE ISZERO DUP1 ISZERO PUSH2 0x1885 JUMPI PUSH1 0x0 DUP1 REVERT JUMPDEST POP GAS STATICCALL ISZERO DUP1 ISZERO PUSH2 0x1899 JUMPI RETURNDATASIZE PUSH1 0x0 DUP1 RETURNDATACOPY RETURNDATASIZE PUSH1 0x0 REVERT JUMPDEST POP POP POP POP PUSH1 0x40 MLOAD RETURNDATASIZE PUSH1 0x20 DUP2 LT ISZERO PUSH2 0x18AF JUMPI PUSH1 0x0 DUP1 REVERT JUMPDEST POP MLOAD PUSH2 0x1902 JUMPI PUSH1 0x40 DUP1 MLOAD PUSH3 0x461BCD PUSH1 0xE5 SHL DUP2 MSTORE PUSH1 0x20 PUSH1 0x4 DUP3 ADD MSTORE PUSH1 0x18 PUSH1 0x24 DUP3 ADD MSTORE PUSH32 0x636F6C6C61746572616C206E6F7420737570706F727465640000000000000000 PUSH1 0x44 DUP3 ADD MSTORE SWAP1 MLOAD SWAP1 DUP2 SWAP1 SUB PUSH1 0x64 ADD SWAP1 REVERT JUMPDEST PUSH1 0x3 DUP2 ADD SLOAD ISZERO PUSH2 0x1943 JUMPI PUSH1 0x40 MLOAD PUSH3 0x461BCD PUSH1 0xE5 SHL DUP2 MSTORE PUSH1 0x4 ADD DUP1 DUP1 PUSH1 0x20 ADD DUP3 DUP2 SUB DUP3 MSTORE PUSH1 0x29 DUP2 MSTORE PUSH1 0x20 ADD DUP1 PUSH2 0x4CF5 PUSH1 0x29 SWAP2 CODECOPY PUSH1 0x40 ADD SWAP2 POP POP PUSH1 0x40 MLOAD DUP1 SWAP2 SUB SWAP1 REVERT JUMPDEST PUSH1 0x1 DUP2 ADD DUP1 SLOAD PUSH1 0x1 PUSH1 0x1 PUSH1 0xA0 SHL SUB NOT AND PUSH1 0x1 PUSH1 0x1 PUSH1 0xA0 SHL SUB DUP7 AND OR SWAP1 SSTORE PUSH1 0x2 DUP2 ADD DUP4 SWAP1 SSTORE JUMPDEST PUSH1 0x0 PUSH2 0x1975 DUP6 DUP6 DUP6 PUSH2 0x3E7F JUMP JUMPDEST PUSH1 0x3 DUP4 ADD SLOAD SWAP1 SWAP2 POP PUSH2 0x1987 SWAP1 DUP3 PUSH2 0x4020 JUMP JUMPDEST PUSH1 0x3 DUP4 ADD SSTORE PUSH1 0x85 SLOAD PUSH1 0x40 DUP1 MLOAD SWAP2 DUP3 MSTORE CALLER PUSH1 0x20 DUP4 ADD MSTORE PUSH1 0x1 PUSH1 0x1 PUSH1 0xA0 SHL SUB DUP8 AND DUP3 DUP3 ADD MSTORE PUSH1 0x60 DUP3 ADD DUP7 SWAP1 MSTORE PUSH1 0x80 DUP3 ADD DUP4 SWAP1 MSTORE MLOAD PUSH32 0x1169C71F6CE3FBF1D6AAE39931591C46ED51976EDA9F851886FAE319970482FF SWAP2 DUP2 SWAP1 SUB PUSH1 0xA0 ADD SWAP1 LOG1 POP POP PUSH1 0x1 PUSH1 0x84 SSTORE POP POP POP JUMP JUMPDEST PUSH1 0x0 SLOAD PUSH3 0x10000 SWAP1 DIV PUSH1 0x1 PUSH1 0x1 PUSH1 0xA0 SHL SUB AND CALLER EQ PUSH2 0x1A47 JUMPI PUSH1 0x40 DUP1 MLOAD PUSH3 0x461BCD PUSH1 0xE5 SHL DUP2 MSTORE PUSH1 0x20 PUSH1 0x4 DUP3 ADD MSTORE PUSH1 0x10 PUSH1 0x24 DUP3 ADD MSTORE PUSH16 0x3737BA103A34329033B7BB32B93737B9 PUSH1 0x81 SHL PUSH1 0x44 DUP3 ADD MSTORE SWAP1 MLOAD SWAP1 DUP2 SWAP1 SUB PUSH1 0x64 ADD SWAP1 REVERT JUMPDEST DUP3 DUP2 EQ PUSH2 0x1A85 JUMPI PUSH1 0x40 MLOAD PUSH3 0x461BCD PUSH1 0xE5 SHL DUP2 MSTORE PUSH1 0x4 ADD DUP1 DUP1 PUSH1 0x20 ADD DUP3 DUP2 SUB DUP3 MSTORE PUSH1 0x23 DUP2 MSTORE PUSH1 0x20 ADD DUP1 PUSH2 0x4DD8 PUSH1 0x23 SWAP2 CODECOPY PUSH1 0x40 ADD SWAP2 POP POP PUSH1 0x40 MLOAD DUP1 SWAP2 SUB SWAP1 REVERT JUMPDEST PUSH1 0x0 JUMPDEST DUP4 DUP2 LT ISZERO PUSH2 0x1B7B JUMPI DUP3 DUP3 DUP3 DUP2 DUP2 LT PUSH2 0x1A9C JUMPI INVALID JUMPDEST SWAP1 POP PUSH1 0x20 MUL ADD CALLDATALOAD ISZERO PUSH2 0x1B1D JUMPI PUSH2 0x1ACC DUP6 DUP6 DUP4 DUP2 DUP2 LT PUSH2 0x1AB7 JUMPI INVALID JUMPDEST SWAP1 POP PUSH1 0x20 MUL ADD CALLDATALOAD PUSH1 0x1 PUSH1 0x1 PUSH1 0xA0 SHL SUB AND PUSH2 0x3A51 JUMP JUMPDEST PUSH2 0x1B1D JUMPI PUSH1 0x40 DUP1 MLOAD PUSH3 0x461BCD PUSH1 0xE5 SHL DUP2 MSTORE PUSH1 0x20 PUSH1 0x4 DUP3 ADD MSTORE PUSH1 0x18 PUSH1 0x24 DUP3 ADD MSTORE PUSH32 0x6F7261636C65206E6F7420737570706F727420746F6B656E0000000000000000 PUSH1 0x44 DUP3 ADD MSTORE SWAP1 MLOAD SWAP1 DUP2 SWAP1 SUB PUSH1 0x64 ADD SWAP1 REVERT JUMPDEST DUP3 DUP3 DUP3 DUP2 DUP2 LT PUSH2 0x1B29 JUMPI INVALID JUMPDEST SWAP1 POP PUSH1 0x20 MUL ADD CALLDATALOAD ISZERO ISZERO PUSH1 0x90 PUSH1 0x0 DUP8 DUP8 DUP6 DUP2 DUP2 LT PUSH2 0x1B42 JUMPI INVALID JUMPDEST PUSH1 0x20 SWAP1 DUP2 MUL SWAP3 SWAP1 SWAP3 ADD CALLDATALOAD PUSH1 0x1 PUSH1 0x1 PUSH1 0xA0 SHL SUB AND DUP4 MSTORE POP DUP2 ADD SWAP2 SWAP1 SWAP2 MSTORE PUSH1 0x40 ADD PUSH1 0x0 KECCAK256 DUP1 SLOAD PUSH1 0xFF NOT AND SWAP2 ISZERO ISZERO SWAP2 SWAP1 SWAP2 OR SWAP1 SSTORE PUSH1 0x1 ADD PUSH2 0x1A88 JUMP JUMPDEST POP POP POP POP POP JUMP JUMPDEST PUSH1 0x0 JUMPDEST DUP2 MLOAD DUP2 LT ISZERO PUSH2 0x1BB2 JUMPI PUSH2 0x1BAA DUP3 DUP3 DUP2 MLOAD DUP2 LT PUSH2 0x1B9D JUMPI INVALID JUMPDEST PUSH1 0x20 MUL PUSH1 0x20 ADD ADD MLOAD PUSH2 0x241F JUMP JUMPDEST PUSH1 0x1 ADD PUSH2 0x1B85 JUMP JUMPDEST POP POP JUMP JUMPDEST PUSH1 0x8D PUSH1 0x20 MSTORE PUSH1 0x0 SWAP1 DUP2 MSTORE PUSH1 0x40 SWAP1 KECCAK256 SLOAD PUSH1 0xFF AND DUP2 JUMP JUMPDEST PUSH1 0x0 SLOAD PUSH3 0x10000 SWAP1 DIV PUSH1 0x1 PUSH1 0x1 PUSH1 0xA0 SHL SUB AND CALLER EQ PUSH2 0x1C23 JUMPI PUSH1 0x40 DUP1 MLOAD PUSH3 0x461BCD PUSH1 0xE5 SHL DUP2 MSTORE PUSH1 0x20 PUSH1 0x4 DUP3 ADD MSTORE PUSH1 0x10 PUSH1 0x24 DUP3 ADD MSTORE PUSH16 0x3737BA103A34329033B7BB32B93737B9 PUSH1 0x81 SHL PUSH1 0x44 DUP3 ADD MSTORE SWAP1 MLOAD SWAP1 DUP2 SWAP1 SUB PUSH1 0x64 ADD SWAP1 REVERT JUMPDEST PUSH1 0x1 PUSH1 0x1 PUSH1 0xA0 SHL SUB DUP1 DUP4 AND PUSH1 0x0 SWAP1 DUP2 MSTORE PUSH1 0x8C PUSH1 0x20 SWAP1 DUP2 MSTORE PUSH1 0x40 DUP1 DUP4 KECCAK256 SWAP4 DUP6 AND DUP4 MSTORE PUSH1 0x8D SWAP1 SWAP2 MSTORE SWAP1 KECCAK256 SLOAD PUSH1 0xFF AND ISZERO PUSH2 0x1C99 JUMPI PUSH1 0x40 DUP1 MLOAD PUSH3 0x461BCD PUSH1 0xE5 SHL DUP2 MSTORE PUSH1 0x20 PUSH1 0x4 DUP3 ADD MSTORE PUSH1 0x15 PUSH1 0x24 DUP3 ADD MSTORE PUSH21 0x63546F6B656E20616C726561647920657869737473 PUSH1 0x58 SHL PUSH1 0x44 DUP3 ADD MSTORE SWAP1 MLOAD SWAP1 DUP2 SWAP1 SUB PUSH1 0x64 ADD SWAP1 REVERT JUMPDEST DUP1 SLOAD PUSH1 0xFF AND ISZERO PUSH2 0x1CE6 JUMPI PUSH1 0x40 DUP1 MLOAD PUSH3 0x461BCD PUSH1 0xE5 SHL DUP2 MSTORE PUSH1 0x20 PUSH1 0x4 DUP3 ADD MSTORE PUSH1 0x13 PUSH1 0x24 DUP3 ADD MSTORE PUSH19 0x62616E6B20616C726561647920657869737473 PUSH1 0x68 SHL PUSH1 0x44 DUP3 ADD MSTORE SWAP1 MLOAD SWAP1 DUP2 SWAP1 SUB PUSH1 0x64 ADD SWAP1 REVERT JUMPDEST PUSH1 0x1 PUSH1 0x1 PUSH1 0xA0 SHL SUB DUP3 AND PUSH1 0x0 SWAP1 DUP2 MSTORE PUSH1 0x8D PUSH1 0x20 MSTORE PUSH1 0x40 SWAP1 KECCAK256 DUP1 SLOAD PUSH1 0x1 PUSH1 0xFF NOT SWAP2 DUP3 AND DUP2 OR SWAP1 SWAP3 SSTORE DUP3 SLOAD AND OR DUP2 SSTORE PUSH1 0x8B SLOAD PUSH2 0x100 GT PUSH2 0x1D5E JUMPI PUSH1 0x40 DUP1 MLOAD PUSH3 0x461BCD PUSH1 0xE5 SHL DUP2 MSTORE PUSH1 0x20 PUSH1 0x4 DUP3 ADD MSTORE PUSH1 0x10 PUSH1 0x24 DUP3 ADD MSTORE PUSH16 0x1C995858DA0818985B9AC81B1A5B5A5D PUSH1 0x82 SHL PUSH1 0x44 DUP3 ADD MSTORE SWAP1 MLOAD SWAP1 DUP2 SWAP1 SUB PUSH1 0x64 ADD SWAP1 REVERT JUMPDEST PUSH1 0x8B SLOAD DUP2 SLOAD PUSH1 0x1 PUSH1 0x1 PUSH1 0xA0 SHL SUB DUP1 DUP6 AND PUSH3 0x10000 MUL PUSH3 0x10000 PUSH1 0x1 PUSH1 0xB0 SHL SUB NOT PUSH1 0xFF SWAP1 SWAP5 AND PUSH2 0x100 MUL PUSH2 0xFF00 NOT SWAP1 SWAP4 AND SWAP3 SWAP1 SWAP3 OR SWAP3 SWAP1 SWAP3 AND OR DUP3 SSTORE PUSH2 0x1DA7 SWAP1 DUP5 AND DUP4 PUSH1 0x0 PUSH2 0x407A JUMP JUMPDEST PUSH2 0x1DBD PUSH1 0x1 PUSH1 0x1 PUSH1 0xA0 SHL SUB DUP5 AND DUP4 PUSH1 0x0 NOT PUSH2 0x407A JUMP JUMPDEST PUSH1 0x8B DUP1 SLOAD PUSH1 0x1 DUP2 ADD DUP3 SSTORE PUSH1 0x0 SWAP2 SWAP1 SWAP2 MSTORE PUSH32 0x7B6BB1E9D1B017FF82945596CF3CFB1A6CEE971C1EBB16F2C6BD23C2D642728E ADD DUP1 SLOAD PUSH1 0x1 PUSH1 0x1 PUSH1 0xA0 SHL SUB NOT AND PUSH1 0x1 PUSH1 0x1 PUSH1 0xA0 SHL SUB DUP6 DUP2 AND SWAP2 DUP3 OR SWAP1 SWAP3 SSTORE PUSH1 0x40 DUP1 MLOAD SWAP2 DUP3 MSTORE SWAP2 DUP5 AND PUSH1 0x20 DUP3 ADD MSTORE DUP2 MLOAD PUSH32 0xA5AC30137C068C8FA636E5D085A93D6FDA52A1C2657DF058B91ECAF0044EA8C SWAP3 SWAP2 DUP2 SWAP1 SUB SWAP1 SWAP2 ADD SWAP1 LOG1 POP POP POP JUMP JUMPDEST PUSH1 0x93 SLOAD PUSH1 0x1 AND ISZERO ISZERO SWAP1 JUMP JUMPDEST PUSH1 0x0 NOT PUSH1 0x85 SLOAD EQ ISZERO PUSH2 0x1EA8 JUMPI PUSH1 0x40 DUP1 MLOAD PUSH3 0x461BCD PUSH1 0xE5 SHL DUP2 MSTORE PUSH1 0x20 PUSH1 0x4 DUP3 ADD MSTORE PUSH1 0x14 PUSH1 0x24 DUP3 ADD MSTORE PUSH20 0x3737BA103BB4BA3434B71032BC32B1BABA34B7B7 PUSH1 0x61 SHL PUSH1 0x44 DUP3 ADD MSTORE SWAP1 MLOAD SWAP1 DUP2 SWAP1 SUB PUSH1 0x64 ADD SWAP1 REVERT JUMPDEST PUSH1 0x86 SLOAD PUSH1 0x1 PUSH1 0x1 PUSH1 0xA0 SHL SUB AND CALLER EQ PUSH2 0x1EF8 JUMPI PUSH1 0x40 DUP1 MLOAD PUSH3 0x461BCD PUSH1 0xE5 SHL DUP2 MSTORE PUSH1 0x20 PUSH1 0x4 DUP3 ADD MSTORE PUSH1 0xE PUSH1 0x24 DUP3 ADD MSTORE PUSH14 0x1B9BDD08199C9BDB481CDC195B1B PUSH1 0x92 SHL PUSH1 0x44 DUP3 ADD MSTORE SWAP1 MLOAD SWAP1 DUP2 SWAP1 SUB PUSH1 0x64 ADD SWAP1 REVERT JUMPDEST PUSH1 0x1 PUSH1 0x84 SLOAD EQ PUSH2 0x1F3E JUMPI PUSH1 0x40 DUP1 MLOAD PUSH3 0x461BCD PUSH1 0xE5 SHL DUP2 MSTORE PUSH1 0x20 PUSH1 0x4 DUP3 ADD MSTORE PUSH1 0xC PUSH1 0x24 DUP3 ADD MSTORE PUSH12 0x696E2065786563206C6F636B PUSH1 0xA0 SHL PUSH1 0x44 DUP3 ADD MSTORE SWAP1 MLOAD SWAP1 DUP2 SWAP1 SUB PUSH1 0x64 ADD SWAP1 REVERT JUMPDEST PUSH1 0x2 PUSH1 0x84 SSTORE PUSH1 0x85 SLOAD PUSH1 0x0 SWAP1 DUP2 MSTORE PUSH1 0x8E PUSH1 0x20 MSTORE PUSH1 0x40 SWAP1 KECCAK256 DUP1 SLOAD PUSH2 0x1F6E SWAP1 PUSH1 0x1 PUSH1 0x1 PUSH1 0xA0 SHL SUB DUP6 DUP2 AND SWAP2 AND CALLER DUP6 PUSH2 0x418D JUMP JUMPDEST POP POP PUSH1 0x1 PUSH1 0x84 SSTORE POP JUMP JUMPDEST PUSH1 0x0 NOT PUSH1 0x85 SLOAD EQ ISZERO PUSH2 0x1FC8 JUMPI PUSH1 0x40 DUP1 MLOAD PUSH3 0x461BCD PUSH1 0xE5 SHL DUP2 MSTORE PUSH1 0x20 PUSH1 0x4 DUP3 ADD MSTORE PUSH1 0x14 PUSH1 0x24 DUP3 ADD MSTORE PUSH20 0x3737BA103BB4BA3434B71032BC32B1BABA34B7B7 PUSH1 0x61 SHL PUSH1 0x44 DUP3 ADD MSTORE SWAP1 MLOAD SWAP1 DUP2 SWAP1 SUB PUSH1 0x64 ADD SWAP1 REVERT JUMPDEST PUSH1 0x86 SLOAD PUSH1 0x1 PUSH1 0x1 PUSH1 0xA0 SHL SUB AND CALLER EQ PUSH2 0x2018 JUMPI PUSH1 0x40 DUP1 MLOAD PUSH3 0x461BCD PUSH1 0xE5 SHL DUP2 MSTORE PUSH1 0x20 PUSH1 0x4 DUP3 ADD MSTORE PUSH1 0xE PUSH1 0x24 DUP3 ADD MSTORE PUSH14 0x1B9BDD08199C9BDB481CDC195B1B PUSH1 0x92 SHL PUSH1 0x44 DUP3 ADD MSTORE SWAP1 MLOAD SWAP1 DUP2 SWAP1 SUB PUSH1 0x64 ADD SWAP1 REVERT JUMPDEST PUSH1 0x1 PUSH1 0x84 SLOAD EQ PUSH2 0x205E JUMPI PUSH1 0x40 DUP1 MLOAD PUSH3 0x461BCD PUSH1 0xE5 SHL DUP2 MSTORE PUSH1 0x20 PUSH1 0x4 DUP3 ADD MSTORE PUSH1 0xC PUSH1 0x24 DUP3 ADD MSTORE PUSH12 0x696E2065786563206C6F636B PUSH1 0xA0 SHL PUSH1 0x44 DUP3 ADD MSTORE SWAP1 MLOAD SWAP1 DUP2 SWAP1 SUB PUSH1 0x64 ADD SWAP1 REVERT JUMPDEST PUSH1 0x2 PUSH1 0x84 SSTORE DUP2 PUSH2 0x206D DUP2 PUSH2 0x241F JUMP JUMPDEST PUSH2 0x2075 PUSH2 0x1E4D JUMP JUMPDEST PUSH2 0x20BB JUMPI PUSH1 0x40 DUP1 MLOAD PUSH3 0x461BCD PUSH1 0xE5 SHL DUP2 MSTORE PUSH1 0x20 PUSH1 0x4 DUP3 ADD MSTORE PUSH1 0x12 PUSH1 0x24 DUP3 ADD MSTORE PUSH18 0x189BDC9C9BDDC81B9BDD08185B1B1BDDD959 PUSH1 0x72 SHL PUSH1 0x44 DUP3 ADD MSTORE SWAP1 MLOAD SWAP1 DUP2 SWAP1 SUB PUSH1 0x64 ADD SWAP1 REVERT JUMPDEST PUSH1 0x1 PUSH1 0x1 PUSH1 0xA0 SHL SUB DUP4 AND PUSH1 0x0 SWAP1 DUP2 MSTORE PUSH1 0x90 PUSH1 0x20 MSTORE PUSH1 0x40 SWAP1 KECCAK256 SLOAD PUSH1 0xFF AND PUSH2 0x2120 JUMPI PUSH1 0x40 DUP1 MLOAD PUSH3 0x461BCD PUSH1 0xE5 SHL DUP2 MSTORE PUSH1 0x20 PUSH1 0x4 DUP3 ADD MSTORE PUSH1 0x15 PUSH1 0x24 DUP3 ADD MSTORE PUSH21 0x1D1BDAD95B881B9BDD081DDA1A5D195B1A5CDD1959 PUSH1 0x5A SHL PUSH1 0x44 DUP3 ADD MSTORE SWAP1 MLOAD SWAP1 DUP2 SWAP1 SUB PUSH1 0x64 ADD SWAP1 REVERT JUMPDEST PUSH1 0x1 PUSH1 0x1 PUSH1 0xA0 SHL SUB DUP4 AND PUSH1 0x0 SWAP1 DUP2 MSTORE PUSH1 0x8C PUSH1 0x20 SWAP1 DUP2 MSTORE PUSH1 0x40 DUP1 DUP4 KECCAK256 PUSH1 0x85 SLOAD DUP5 MSTORE PUSH1 0x8E SWAP1 SWAP3 MSTORE DUP3 KECCAK256 PUSH1 0x3 DUP3 ADD SLOAD PUSH1 0x2 DUP4 ADD SLOAD SWAP3 SWAP4 SWAP2 SWAP3 SWAP1 SWAP2 DUP3 ISZERO PUSH2 0x2176 JUMPI PUSH2 0x2171 DUP3 PUSH2 0x216B DUP10 DUP7 PUSH2 0x41E7 JUMP JUMPDEST SWAP1 PUSH2 0x4240 JUMP JUMPDEST PUSH2 0x2178 JUMP JUMPDEST DUP7 JUMPDEST PUSH1 0x3 DUP7 ADD SLOAD SWAP1 SWAP2 POP PUSH2 0x218A SWAP1 DUP3 PUSH2 0x4020 JUMP JUMPDEST PUSH1 0x3 DUP7 ADD SSTORE PUSH1 0x1 PUSH1 0x1 PUSH1 0xA0 SHL SUB DUP9 AND PUSH1 0x0 SWAP1 DUP2 MSTORE PUSH1 0x5 DUP6 ADD PUSH1 0x20 MSTORE PUSH1 0x40 DUP2 KECCAK256 SLOAD PUSH2 0x21B4 SWAP1 DUP4 PUSH2 0x4020 JUMP JUMPDEST PUSH1 0x1 PUSH1 0x1 PUSH1 0xA0 SHL SUB DUP11 AND PUSH1 0x0 SWAP1 DUP2 MSTORE PUSH1 0x5 DUP8 ADD PUSH1 0x20 MSTORE PUSH1 0x40 SWAP1 KECCAK256 DUP2 SWAP1 SSTORE SWAP1 POP DUP1 ISZERO PUSH2 0x21F6 JUMPI DUP6 SLOAD PUSH1 0x4 DUP7 ADD DUP1 SLOAD PUSH1 0x1 PUSH2 0x100 SWAP1 SWAP4 DIV PUSH1 0xFF AND SWAP3 SWAP1 SWAP3 SHL SWAP1 SWAP2 OR SWAP1 SSTORE JUMPDEST PUSH2 0x2215 CALLER PUSH2 0x2204 DUP12 DUP12 PUSH2 0x425B JUMP JUMPDEST PUSH1 0x1 PUSH1 0x1 PUSH1 0xA0 SHL SUB DUP13 AND SWAP2 SWAP1 PUSH2 0x3CDA JUMP JUMPDEST PUSH1 0x85 SLOAD PUSH1 0x40 DUP1 MLOAD SWAP2 DUP3 MSTORE CALLER PUSH1 0x20 DUP4 ADD MSTORE PUSH1 0x1 PUSH1 0x1 PUSH1 0xA0 SHL SUB DUP12 AND DUP3 DUP3 ADD MSTORE PUSH1 0x60 DUP3 ADD DUP11 SWAP1 MSTORE PUSH1 0x80 DUP3 ADD DUP5 SWAP1 MSTORE MLOAD PUSH32 0xEF18174796A5D2F91D51DC5E907A4D7867BBD6E800F6225168E0453D581D0DCD SWAP2 DUP2 SWAP1 SUB PUSH1 0xA0 ADD SWAP1 LOG1 POP POP PUSH1 0x1 PUSH1 0x84 SSTORE POP POP POP POP POP POP POP JUMP JUMPDEST PUSH1 0x0 SLOAD PUSH3 0x10000 SWAP1 DIV PUSH1 0x1 PUSH1 0x1 PUSH1 0xA0 SHL SUB AND CALLER EQ PUSH2 0x22D4 JUMPI PUSH1 0x40 DUP1 MLOAD PUSH3 0x461BCD PUSH1 0xE5 SHL DUP2 MSTORE PUSH1 0x20 PUSH1 0x4 DUP3 ADD MSTORE PUSH1 0x10 PUSH1 0x24 DUP3 ADD MSTORE PUSH16 0x3737BA103A34329033B7BB32B93737B9 PUSH1 0x81 SHL PUSH1 0x44 DUP3 ADD MSTORE SWAP1 MLOAD SWAP1 DUP2 SWAP1 SUB PUSH1 0x64 ADD SWAP1 REVERT JUMPDEST DUP3 DUP2 EQ PUSH2 0x2312 JUMPI PUSH1 0x40 MLOAD PUSH3 0x461BCD PUSH1 0xE5 SHL DUP2 MSTORE PUSH1 0x4 ADD DUP1 DUP1 PUSH1 0x20 ADD DUP3 DUP2 SUB DUP3 MSTORE PUSH1 0x23 DUP2 MSTORE PUSH1 0x20 ADD DUP1 PUSH2 0x4DB5 PUSH1 0x23 SWAP2 CODECOPY PUSH1 0x40 ADD SWAP2 POP POP PUSH1 0x40 MLOAD DUP1 SWAP2 SUB SWAP1 REVERT JUMPDEST PUSH1 0x0 JUMPDEST DUP4 DUP2 LT ISZERO PUSH2 0x1B7B JUMPI DUP3 DUP3 DUP3 DUP2 DUP2 LT PUSH2 0x2329 JUMPI INVALID JUMPDEST SWAP1 POP PUSH1 0x20 MUL ADD CALLDATALOAD ISZERO ISZERO PUSH1 0x91 PUSH1 0x0 DUP8 DUP8 DUP6 DUP2 DUP2 LT PUSH2 0x2342 JUMPI INVALID JUMPDEST PUSH1 0x20 SWAP1 DUP2 MUL SWAP3 SWAP1 SWAP3 ADD CALLDATALOAD PUSH1 0x1 PUSH1 0x1 PUSH1 0xA0 SHL SUB AND DUP4 MSTORE POP DUP2 ADD SWAP2 SWAP1 SWAP2 MSTORE PUSH1 0x40 ADD PUSH1 0x0 KECCAK256 DUP1 SLOAD PUSH1 0xFF NOT AND SWAP2 ISZERO ISZERO SWAP2 SWAP1 SWAP2 OR SWAP1 SSTORE PUSH1 0x1 ADD PUSH2 0x2315 JUMP JUMPDEST PUSH1 0x0 SWAP1 DUP2 MSTORE PUSH1 0x8E PUSH1 0x20 MSTORE PUSH1 0x40 SWAP1 KECCAK256 DUP1 SLOAD PUSH1 0x1 DUP3 ADD SLOAD PUSH1 0x2 DUP4 ADD SLOAD PUSH1 0x3 SWAP1 SWAP4 ADD SLOAD PUSH1 0x1 PUSH1 0x1 PUSH1 0xA0 SHL SUB SWAP3 DUP4 AND SWAP5 SWAP3 SWAP1 SWAP2 AND SWAP3 SWAP2 JUMP JUMPDEST PUSH1 0x85 SLOAD PUSH1 0x0 SWAP1 PUSH1 0x0 NOT DUP2 EQ ISZERO PUSH2 0x2402 JUMPI PUSH1 0x40 DUP1 MLOAD PUSH3 0x461BCD PUSH1 0xE5 SHL DUP2 MSTORE PUSH1 0x20 PUSH1 0x4 DUP3 ADD MSTORE PUSH1 0x13 PUSH1 0x24 DUP3 ADD MSTORE PUSH19 0x3737BA103AB73232B91032BC32B1BABA34B7B7 PUSH1 0x69 SHL PUSH1 0x44 DUP3 ADD MSTORE SWAP1 MLOAD SWAP1 DUP2 SWAP1 SUB PUSH1 0x64 ADD SWAP1 REVERT JUMPDEST PUSH1 0x0 SWAP1 DUP2 MSTORE PUSH1 0x8E PUSH1 0x20 MSTORE PUSH1 0x40 SWAP1 KECCAK256 SLOAD PUSH1 0x1 PUSH1 0x1 PUSH1 0xA0 SHL SUB AND SWAP1 POP SWAP1 JUMP JUMPDEST PUSH1 0x1 PUSH1 0x1 PUSH1 0xA0 SHL SUB DUP2 AND PUSH1 0x0 SWAP1 DUP2 MSTORE PUSH1 0x8C PUSH1 0x20 MSTORE PUSH1 0x40 SWAP1 KECCAK256 DUP1 SLOAD PUSH1 0xFF AND PUSH2 0x247E JUMPI PUSH1 0x40 DUP1 MLOAD PUSH3 0x461BCD PUSH1 0xE5 SHL DUP2 MSTORE PUSH1 0x20 PUSH1 0x4 DUP3 ADD MSTORE PUSH1 0xE PUSH1 0x24 DUP3 ADD MSTORE PUSH14 0x18985B9AC81B9BDD08195E1A5CDD PUSH1 0x92 SHL PUSH1 0x44 DUP3 ADD MSTORE SWAP1 MLOAD SWAP1 DUP2 SWAP1 SUB PUSH1 0x64 ADD SWAP1 REVERT JUMPDEST PUSH1 0x2 DUP2 ADD SLOAD DUP2 SLOAD PUSH1 0x40 DUP1 MLOAD PUSH4 0x5EFF7EF PUSH1 0xE2 SHL DUP2 MSTORE ADDRESS PUSH1 0x4 DUP3 ADD MSTORE SWAP1 MLOAD PUSH1 0x0 SWAP3 PUSH3 0x10000 SWAP1 DIV PUSH1 0x1 PUSH1 0x1 PUSH1 0xA0 SHL SUB AND SWAP2 PUSH4 0x17BFDFBC SWAP2 PUSH1 0x24 DUP1 DUP4 ADD SWAP3 PUSH1 0x20 SWAP3 SWAP2 SWAP1 DUP3 SWAP1 SUB ADD DUP2 DUP8 DUP8 DUP1 EXTCODESIZE ISZERO DUP1 ISZERO PUSH2 0x24D4 JUMPI PUSH1 0x0 DUP1 REVERT JUMPDEST POP GAS CALL ISZERO DUP1 ISZERO PUSH2 0x24E8 JUMPI RETURNDATASIZE PUSH1 0x0 DUP1 RETURNDATACOPY RETURNDATASIZE PUSH1 0x0 REVERT JUMPDEST POP POP POP POP PUSH1 0x40 MLOAD RETURNDATASIZE PUSH1 0x20 DUP2 LT ISZERO PUSH2 0x24FE JUMPI PUSH1 0x0 DUP1 REVERT JUMPDEST POP MLOAD SWAP1 POP DUP2 DUP2 GT ISZERO PUSH2 0x2563 JUMPI PUSH1 0x0 PUSH2 0x2537 PUSH2 0x2710 PUSH2 0x2531 PUSH1 0x89 SLOAD PUSH2 0x252B DUP8 DUP8 PUSH2 0x3C7D SWAP1 SWAP2 SWAP1 PUSH4 0xFFFFFFFF AND JUMP JUMPDEST SWAP1 PUSH2 0x41E7 JUMP JUMPDEST SWAP1 PUSH2 0x4446 JUMP JUMPDEST PUSH1 0x2 DUP6 ADD DUP4 SWAP1 SSTORE SWAP1 POP PUSH2 0x2558 PUSH2 0x254D DUP7 DUP4 PUSH2 0x425B JUMP JUMPDEST PUSH1 0x1 DUP7 ADD SLOAD SWAP1 PUSH2 0x4020 JUMP JUMPDEST PUSH1 0x1 DUP6 ADD SSTORE POP PUSH2 0x2572 JUMP JUMPDEST DUP1 DUP3 EQ PUSH2 0x2572 JUMPI PUSH1 0x2 DUP4 ADD DUP2 SWAP1 SSTORE JUMPDEST POP POP POP POP JUMP JUMPDEST PUSH1 0x0 NOT PUSH1 0x85 SLOAD EQ ISZERO PUSH2 0x25C8 JUMPI PUSH1 0x40 DUP1 MLOAD PUSH3 0x461BCD PUSH1 0xE5 SHL DUP2 MSTORE PUSH1 0x20 PUSH1 0x4 DUP3 ADD MSTORE PUSH1 0x14 PUSH1 0x24 DUP3 ADD MSTORE PUSH20 0x3737BA103BB4BA3434B71032BC32B1BABA34B7B7 PUSH1 0x61 SHL PUSH1 0x44 DUP3 ADD MSTORE SWAP1 MLOAD SWAP1 DUP2 SWAP1 SUB PUSH1 0x64 ADD SWAP1 REVERT JUMPDEST PUSH1 0x86 SLOAD PUSH1 0x1 PUSH1 0x1 PUSH1 0xA0 SHL SUB AND CALLER EQ PUSH2 0x2618 JUMPI PUSH1 0x40 DUP1 MLOAD PUSH3 0x461BCD PUSH1 0xE5 SHL DUP2 MSTORE PUSH1 0x20 PUSH1 0x4 DUP3 ADD MSTORE PUSH1 0xE PUSH1 0x24 DUP3 ADD MSTORE PUSH14 0x1B9BDD08199C9BDB481CDC195B1B PUSH1 0x92 SHL PUSH1 0x44 DUP3 ADD MSTORE SWAP1 MLOAD SWAP1 DUP2 SWAP1 SUB PUSH1 0x64 ADD SWAP1 REVERT JUMPDEST PUSH1 0x1 PUSH1 0x84 SLOAD EQ PUSH2 0x265E JUMPI PUSH1 0x40 DUP1 MLOAD PUSH3 0x461BCD PUSH1 0xE5 SHL DUP2 MSTORE PUSH1 0x20 PUSH1 0x4 DUP3 ADD MSTORE PUSH1 0xC PUSH1 0x24 DUP3 ADD MSTORE PUSH12 0x696E2065786563206C6F636B PUSH1 0xA0 SHL PUSH1 0x44 DUP3 ADD MSTORE SWAP1 MLOAD SWAP1 DUP2 SWAP1 SUB PUSH1 0x64 ADD SWAP1 REVERT JUMPDEST PUSH1 0x2 PUSH1 0x84 SSTORE PUSH1 0x85 SLOAD PUSH1 0x0 SWAP1 DUP2 MSTORE PUSH1 0x8E PUSH1 0x20 MSTORE PUSH1 0x40 SWAP1 KECCAK256 PUSH1 0x1 DUP2 ADD SLOAD PUSH1 0x1 PUSH1 0x1 PUSH1 0xA0 SHL SUB DUP6 DUP2 AND SWAP2 AND EQ PUSH2 0x26D3 JUMPI PUSH1 0x40 DUP1 MLOAD PUSH3 0x461BCD PUSH1 0xE5 SHL DUP2 MSTORE PUSH1 0x20 PUSH1 0x4 DUP3 ADD MSTORE PUSH1 0x18 PUSH1 0x24 DUP3 ADD MSTORE PUSH24 0x34B73B30B634B21031B7B63630BA32B930B6103A37B5B2B7 PUSH1 0x41 SHL PUSH1 0x44 DUP3 ADD MSTORE SWAP1 MLOAD SWAP1 DUP2 SWAP1 SUB PUSH1 0x64 ADD SWAP1 REVERT JUMPDEST DUP1 PUSH1 0x2 ADD SLOAD DUP4 EQ PUSH2 0x2726 JUMPI PUSH1 0x40 DUP1 MLOAD PUSH3 0x461BCD PUSH1 0xE5 SHL DUP2 MSTORE PUSH1 0x20 PUSH1 0x4 DUP3 ADD MSTORE PUSH1 0x18 PUSH1 0x24 DUP3 ADD MSTORE PUSH24 0x34B73B30B634B21031B7B63630BA32B930B6103A37B5B2B7 PUSH1 0x41 SHL PUSH1 0x44 DUP3 ADD MSTORE SWAP1 MLOAD SWAP1 DUP2 SWAP1 SUB PUSH1 0x64 ADD SWAP1 REVERT JUMPDEST PUSH1 0x0 NOT DUP3 EQ ISZERO PUSH2 0x2738 JUMPI DUP1 PUSH1 0x3 ADD SLOAD SWAP2 POP JUMPDEST PUSH1 0x3 DUP2 ADD SLOAD PUSH2 0x2747 SWAP1 DUP4 PUSH2 0x3C7D JUMP JUMPDEST PUSH1 0x3 DUP3 ADD SSTORE PUSH1 0x40 DUP1 MLOAD PUSH4 0x79212195 PUSH1 0xE1 SHL DUP2 MSTORE ADDRESS PUSH1 0x4 DUP3 ADD MSTORE CALLER PUSH1 0x24 DUP3 ADD MSTORE PUSH1 0x44 DUP2 ADD DUP6 SWAP1 MSTORE PUSH1 0x64 DUP2 ADD DUP5 SWAP1 MSTORE PUSH1 0xA0 PUSH1 0x84 DUP3 ADD MSTORE PUSH1 0x0 PUSH1 0xA4 DUP3 ADD DUP2 SWAP1 MSTORE SWAP2 MLOAD PUSH1 0x1 PUSH1 0x1 PUSH1 0xA0 SHL SUB DUP8 AND SWAP3 PUSH4 0xF242432A SWAP3 PUSH1 0xE4 DUP1 DUP3 ADD SWAP4 SWAP2 DUP3 SWAP1 SUB ADD DUP2 DUP4 DUP8 DUP1 EXTCODESIZE ISZERO DUP1 ISZERO PUSH2 0x27B3 JUMPI PUSH1 0x0 DUP1 REVERT JUMPDEST POP GAS CALL ISZERO DUP1 ISZERO PUSH2 0x27C7 JUMPI RETURNDATASIZE PUSH1 0x0 DUP1 RETURNDATACOPY RETURNDATASIZE PUSH1 0x0 REVERT JUMPDEST POP POP PUSH1 0x85 SLOAD PUSH1 0x40 DUP1 MLOAD SWAP2 DUP3 MSTORE CALLER PUSH1 0x20 DUP4 ADD MSTORE PUSH1 0x1 PUSH1 0x1 PUSH1 0xA0 SHL SUB DUP9 AND DUP3 DUP3 ADD MSTORE PUSH1 0x60 DUP3 ADD DUP8 SWAP1 MSTORE PUSH1 0x80 DUP3 ADD DUP7 SWAP1 MSTORE MLOAD PUSH32 0xA61EE435E629EECBCB5DF77D05E802C71092439CDBEB225D95305F5A159755A3 SWAP4 POP SWAP1 DUP2 SWAP1 SUB PUSH1 0xA0 ADD SWAP2 POP LOG1 POP POP PUSH1 0x1 PUSH1 0x84 SSTORE POP POP JUMP JUMPDEST PUSH1 0x0 DUP2 DUP2 MSTORE PUSH1 0x8E PUSH1 0x20 MSTORE PUSH1 0x40 DUP2 KECCAK256 PUSH1 0x4 DUP2 ADD SLOAD PUSH1 0x60 SWAP3 DUP4 SWAP3 SWAP2 JUMPDEST DUP1 ISZERO PUSH2 0x2866 JUMPI PUSH1 0x1 DUP2 AND ISZERO PUSH2 0x285E JUMPI PUSH1 0x1 SWAP1 SWAP2 ADD SWAP1 JUMPDEST PUSH1 0x1 SHR PUSH2 0x2848 JUMP JUMPDEST DUP2 PUSH8 0xFFFFFFFFFFFFFFFF DUP2 GT DUP1 ISZERO PUSH2 0x287D JUMPI PUSH1 0x0 DUP1 REVERT JUMPDEST POP PUSH1 0x40 MLOAD SWAP1 DUP1 DUP3 MSTORE DUP1 PUSH1 0x20 MUL PUSH1 0x20 ADD DUP3 ADD PUSH1 0x40 MSTORE DUP1 ISZERO PUSH2 0x28A7 JUMPI DUP2 PUSH1 0x20 ADD PUSH1 0x20 DUP3 MUL DUP1 CALLDATASIZE DUP4 CALLDATACOPY ADD SWAP1 POP JUMPDEST POP SWAP5 POP DUP2 PUSH8 0xFFFFFFFFFFFFFFFF DUP2 GT DUP1 ISZERO PUSH2 0x28C1 JUMPI PUSH1 0x0 DUP1 REVERT JUMPDEST POP PUSH1 0x40 MLOAD SWAP1 DUP1 DUP3 MSTORE DUP1 PUSH1 0x20 MUL PUSH1 0x20 ADD DUP3 ADD PUSH1 0x40 MSTORE DUP1 ISZERO PUSH2 0x28EB JUMPI DUP2 PUSH1 0x20 ADD PUSH1 0x20 DUP3 MUL DUP1 CALLDATASIZE DUP4 CALLDATACOPY ADD SWAP1 POP JUMPDEST POP SWAP4 POP DUP3 PUSH1 0x4 ADD SLOAD SWAP1 POP PUSH1 0x0 SWAP2 POP PUSH1 0x0 JUMPDEST DUP2 ISZERO PUSH2 0x29C5 JUMPI PUSH1 0x1 DUP3 AND ISZERO PUSH2 0x29B9 JUMPI PUSH1 0x0 PUSH1 0x8B DUP3 DUP2 SLOAD DUP2 LT PUSH2 0x291A JUMPI INVALID JUMPDEST PUSH1 0x0 SWAP2 DUP3 MSTORE PUSH1 0x20 DUP1 DUP4 KECCAK256 SWAP1 SWAP2 ADD SLOAD PUSH1 0x1 PUSH1 0x1 PUSH1 0xA0 SHL SUB AND DUP1 DUP4 MSTORE PUSH1 0x8C SWAP1 SWAP2 MSTORE PUSH1 0x40 SWAP1 SWAP2 KECCAK256 DUP9 MLOAD SWAP2 SWAP3 POP SWAP1 DUP3 SWAP1 DUP10 SWAP1 DUP8 SWAP1 DUP2 LT PUSH2 0x2952 JUMPI INVALID JUMPDEST PUSH1 0x1 PUSH1 0x1 PUSH1 0xA0 SHL SUB SWAP3 DUP4 AND PUSH1 0x20 SWAP2 DUP3 MUL SWAP3 SWAP1 SWAP3 ADD DUP2 ADD SWAP2 SWAP1 SWAP2 MSTORE PUSH1 0x3 DUP4 ADD SLOAD PUSH1 0x2 DUP5 ADD SLOAD SWAP3 DUP6 AND PUSH1 0x0 SWAP1 DUP2 MSTORE PUSH1 0x5 DUP11 ADD SWAP1 SWAP3 MSTORE PUSH1 0x40 SWAP1 SWAP2 KECCAK256 SLOAD PUSH2 0x2999 SWAP3 PUSH2 0x216B SWAP2 SWAP1 PUSH2 0x41E7 JUMP JUMPDEST DUP8 DUP7 DUP2 MLOAD DUP2 LT PUSH2 0x29A5 JUMPI INVALID JUMPDEST PUSH1 0x20 SWAP1 DUP2 MUL SWAP2 SWAP1 SWAP2 ADD ADD MSTORE POP POP PUSH1 0x1 SWAP1 SWAP3 ADD SWAP2 JUMPDEST PUSH1 0x1 SWAP2 DUP3 SHR SWAP2 ADD PUSH2 0x28FC JUMP JUMPDEST POP POP POP POP SWAP2 POP SWAP2 JUMP JUMPDEST PUSH1 0x0 PUSH1 0x1 PUSH1 0x83 SLOAD EQ PUSH2 0x2A16 JUMPI PUSH1 0x40 DUP1 MLOAD PUSH3 0x461BCD PUSH1 0xE5 SHL DUP2 MSTORE PUSH1 0x20 PUSH1 0x4 DUP3 ADD MSTORE PUSH1 0xC PUSH1 0x24 DUP3 ADD MSTORE PUSH12 0x67656E6572616C206C6F636B PUSH1 0xA0 SHL PUSH1 0x44 DUP3 ADD MSTORE SWAP1 MLOAD SWAP1 DUP2 SWAP1 SUB PUSH1 0x64 ADD SWAP1 REVERT JUMPDEST PUSH1 0x2 PUSH1 0x83 SSTORE PUSH1 0x8F SLOAD PUSH1 0xFF AND ISZERO DUP1 ISZERO PUSH2 0x2A3E JUMPI POP CALLER PUSH1 0x0 SWAP1 DUP2 MSTORE PUSH1 0x92 PUSH1 0x20 MSTORE PUSH1 0x40 SWAP1 KECCAK256 SLOAD PUSH1 0xFF AND ISZERO JUMPDEST ISZERO PUSH2 0x2A81 JUMPI CALLER ORIGIN EQ PUSH2 0x2A81 JUMPI PUSH1 0x40 DUP1 MLOAD PUSH3 0x461BCD PUSH1 0xE5 SHL DUP2 MSTORE PUSH1 0x20 PUSH1 0x4 DUP3 ADD MSTORE PUSH1 0x7 PUSH1 0x24 DUP3 ADD MSTORE PUSH7 0x6E6F7420656F61 PUSH1 0xC8 SHL PUSH1 0x44 DUP3 ADD MSTORE SWAP1 MLOAD SWAP1 DUP2 SWAP1 SUB PUSH1 0x64 ADD SWAP1 REVERT JUMPDEST PUSH1 0x1 PUSH1 0x1 PUSH1 0xA0 SHL SUB DUP4 AND PUSH1 0x0 SWAP1 DUP2 MSTORE PUSH1 0x91 PUSH1 0x20 MSTORE PUSH1 0x40 SWAP1 KECCAK256 SLOAD PUSH1 0xFF AND PUSH2 0x2AE6 JUMPI PUSH1 0x40 DUP1 MLOAD PUSH3 0x461BCD PUSH1 0xE5 SHL DUP2 MSTORE PUSH1 0x20 PUSH1 0x4 DUP3 ADD MSTORE PUSH1 0x15 PUSH1 0x24 DUP3 ADD MSTORE PUSH21 0x1CDC195B1B081B9BDD081DDA1A5D195B1A5CDD1959 PUSH1 0x5A SHL PUSH1 0x44 DUP3 ADD MSTORE SWAP1 MLOAD SWAP1 DUP2 SWAP1 SUB PUSH1 0x64 ADD SWAP1 REVERT JUMPDEST DUP4 PUSH2 0x2B1B JUMPI PUSH1 0x8A DUP1 SLOAD PUSH1 0x1 DUP2 ADD SWAP1 SWAP2 SSTORE PUSH1 0x0 DUP2 DUP2 MSTORE PUSH1 0x8E PUSH1 0x20 MSTORE PUSH1 0x40 SWAP1 KECCAK256 DUP1 SLOAD PUSH1 0x1 PUSH1 0x1 PUSH1 0xA0 SHL SUB NOT AND CALLER OR SWAP1 SSTORE SWAP4 POP PUSH2 0x2BCA JUMP JUMPDEST PUSH1 0x8A SLOAD DUP5 LT PUSH2 0x2B6A JUMPI PUSH1 0x40 DUP1 MLOAD PUSH3 0x461BCD PUSH1 0xE5 SHL DUP2 MSTORE PUSH1 0x20 PUSH1 0x4 DUP3 ADD MSTORE PUSH1 0x16 PUSH1 0x24 DUP3 ADD MSTORE PUSH22 0x706F736974696F6E206964206E6F7420657869737473 PUSH1 0x50 SHL PUSH1 0x44 DUP3 ADD MSTORE SWAP1 MLOAD SWAP1 DUP2 SWAP1 SUB PUSH1 0x64 ADD SWAP1 REVERT JUMPDEST PUSH1 0x0 DUP5 DUP2 MSTORE PUSH1 0x8E PUSH1 0x20 MSTORE PUSH1 0x40 SWAP1 KECCAK256 SLOAD PUSH1 0x1 PUSH1 0x1 PUSH1 0xA0 SHL SUB AND CALLER EQ PUSH2 0x2BCA JUMPI PUSH1 0x40 DUP1 MLOAD PUSH3 0x461BCD PUSH1 0xE5 SHL DUP2 MSTORE PUSH1 0x20 PUSH1 0x4 DUP3 ADD MSTORE PUSH1 0x12 PUSH1 0x24 DUP3 ADD MSTORE PUSH18 0x3737BA103837B9B4BA34B7B71037BBB732B9 PUSH1 0x71 SHL PUSH1 0x44 DUP3 ADD MSTORE SWAP1 MLOAD SWAP1 DUP2 SWAP1 SUB PUSH1 0x64 ADD SWAP1 REVERT JUMPDEST PUSH1 0x85 DUP5 SWAP1 SSTORE PUSH1 0x86 DUP1 SLOAD PUSH1 0x1 PUSH1 0x1 PUSH1 0xA0 SHL SUB NOT AND PUSH1 0x1 PUSH1 0x1 PUSH1 0xA0 SHL SUB DUP6 DUP2 AND SWAP2 DUP3 OR SWAP1 SWAP3 SSTORE PUSH1 0x87 SLOAD PUSH1 0x40 DUP1 MLOAD PUSH4 0xBE2A1F79 PUSH1 0xE0 SHL DUP2 MSTORE PUSH1 0x4 DUP2 ADD SWAP4 DUP5 MSTORE PUSH1 0x24 DUP2 ADD SWAP2 DUP3 MSTORE DUP7 MLOAD PUSH1 0x44 DUP3 ADD MSTORE DUP7 MLOAD SWAP3 SWAP1 SWAP5 AND SWAP4 PUSH4 0xBE2A1F79 SWAP4 CALLVALUE SWAP4 DUP10 SWAP4 DUP10 SWAP4 SWAP1 SWAP2 PUSH1 0x64 SWAP1 SWAP2 ADD SWAP1 PUSH1 0x20 DUP6 ADD SWAP1 DUP1 DUP4 DUP4 PUSH1 0x0 JUMPDEST DUP4 DUP2 LT ISZERO PUSH2 0x2C52 JUMPI DUP2 DUP2 ADD MLOAD DUP4 DUP3 ADD MSTORE PUSH1 0x20 ADD PUSH2 0x2C3A JUMP JUMPDEST POP POP POP POP SWAP1 POP SWAP1 DUP2 ADD SWAP1 PUSH1 0x1F AND DUP1 ISZERO PUSH2 0x2C7F JUMPI DUP1 DUP3 SUB DUP1 MLOAD PUSH1 0x1 DUP4 PUSH1 0x20 SUB PUSH2 0x100 EXP SUB NOT AND DUP2 MSTORE PUSH1 0x20 ADD SWAP2 POP JUMPDEST POP SWAP4 POP POP POP POP PUSH1 0x0 PUSH1 0x40 MLOAD DUP1 DUP4 SUB DUP2 DUP6 DUP9 DUP1 EXTCODESIZE ISZERO DUP1 ISZERO PUSH2 0x2C9E JUMPI PUSH1 0x0 DUP1 REVERT JUMPDEST POP GAS CALL ISZERO DUP1 ISZERO PUSH2 0x2CB2 JUMPI RETURNDATASIZE PUSH1 0x0 DUP1 RETURNDATACOPY RETURNDATASIZE PUSH1 0x0 REVERT JUMPDEST POP POP POP POP POP PUSH1 0x0 PUSH2 0x2CC2 DUP6 PUSH2 0x3350 JUMP JUMPDEST SWAP1 POP PUSH1 0x0 PUSH2 0x2CCF DUP7 PUSH2 0x383A JUMP JUMPDEST SWAP1 POP DUP1 DUP3 LT ISZERO PUSH2 0x2D26 JUMPI PUSH1 0x40 DUP1 MLOAD PUSH3 0x461BCD PUSH1 0xE5 SHL DUP2 MSTORE PUSH1 0x20 PUSH1 0x4 DUP3 ADD MSTORE PUSH1 0x17 PUSH1 0x24 DUP3 ADD MSTORE PUSH32 0x696E73756666696369656E7420636F6C6C61746572616C000000000000000000 PUSH1 0x44 DUP3 ADD MSTORE SWAP1 MLOAD SWAP1 DUP2 SWAP1 SUB PUSH1 0x64 ADD SWAP1 REVERT JUMPDEST POP POP PUSH1 0x0 NOT PUSH1 0x85 SSTORE POP PUSH1 0x86 DUP1 SLOAD PUSH1 0x1 PUSH1 0x1 PUSH1 0xA0 SHL SUB NOT AND PUSH1 0x1 OR SWAP1 SSTORE DUP3 PUSH1 0x1 PUSH1 0x83 SSTORE SWAP4 SWAP3 POP POP POP JUMP JUMPDEST PUSH1 0x0 SLOAD PUSH3 0x10000 SWAP1 DIV PUSH1 0x1 PUSH1 0x1 PUSH1 0xA0 SHL SUB AND CALLER EQ PUSH2 0x2DA7 JUMPI PUSH1 0x40 DUP1 MLOAD PUSH3 0x461BCD PUSH1 0xE5 SHL DUP2 MSTORE PUSH1 0x20 PUSH1 0x4 DUP3 ADD MSTORE PUSH1 0x10 PUSH1 0x24 DUP3 ADD MSTORE PUSH16 0x3737BA103A34329033B7BB32B93737B9 PUSH1 0x81 SHL PUSH1 0x44 DUP3 ADD MSTORE SWAP1 MLOAD SWAP1 DUP2 SWAP1 SUB PUSH1 0x64 ADD SWAP1 REVERT JUMPDEST PUSH2 0x2710 DUP2 GT ISZERO PUSH2 0x2DED JUMPI PUSH1 0x40 DUP1 MLOAD PUSH3 0x461BCD PUSH1 0xE5 SHL DUP2 MSTORE PUSH1 0x20 PUSH1 0x4 DUP3 ADD MSTORE PUSH1 0xC PUSH1 0x24 DUP3 ADD MSTORE PUSH12 0xCCCACA40E8DEDE40D0D2CED PUSH1 0xA3 SHL PUSH1 0x44 DUP3 ADD MSTORE SWAP1 MLOAD SWAP1 DUP2 SWAP1 SUB PUSH1 0x64 ADD SWAP1 REVERT JUMPDEST PUSH1 0x89 DUP2 SWAP1 SSTORE PUSH1 0x40 DUP1 MLOAD DUP3 DUP2 MSTORE SWAP1 MLOAD PUSH32 0x15B86359C2A1E342EF965D15A848EDA1666E575175D1907EA284DAB1DCF64FFB SWAP2 DUP2 SWAP1 SUB PUSH1 0x20 ADD SWAP1 LOG1 POP JUMP JUMPDEST PUSH1 0x86 SLOAD PUSH1 0x1 PUSH1 0x1 PUSH1 0xA0 SHL SUB AND DUP2 JUMP JUMPDEST PUSH1 0x1 PUSH1 0x83 SLOAD EQ PUSH2 0x2E7D JUMPI PUSH1 0x40 DUP1 MLOAD PUSH3 0x461BCD PUSH1 0xE5 SHL DUP2 MSTORE PUSH1 0x20 PUSH1 0x4 DUP3 ADD MSTORE PUSH1 0xC PUSH1 0x24 DUP3 ADD MSTORE PUSH12 0x67656E6572616C206C6F636B PUSH1 0xA0 SHL PUSH1 0x44 DUP3 ADD MSTORE SWAP1 MLOAD SWAP1 DUP2 SWAP1 SUB PUSH1 0x64 ADD SWAP1 REVERT JUMPDEST PUSH1 0x2 PUSH1 0x83 SSTORE DUP2 PUSH2 0x2E8C DUP2 PUSH2 0x241F JUMP JUMPDEST PUSH1 0x0 PUSH2 0x2E97 DUP6 PUSH2 0x3350 JUMP JUMPDEST SWAP1 POP PUSH1 0x0 PUSH2 0x2EA4 DUP7 PUSH2 0x383A JUMP JUMPDEST SWAP1 POP DUP1 DUP3 LT PUSH2 0x2EF3 JUMPI PUSH1 0x40 DUP1 MLOAD PUSH3 0x461BCD PUSH1 0xE5 SHL DUP2 MSTORE PUSH1 0x20 PUSH1 0x4 DUP3 ADD MSTORE PUSH1 0x16 PUSH1 0x24 DUP3 ADD MSTORE PUSH22 0x706F736974696F6E207374696C6C206865616C746879 PUSH1 0x50 SHL PUSH1 0x44 DUP3 ADD MSTORE SWAP1 MLOAD SWAP1 DUP2 SWAP1 SUB PUSH1 0x64 ADD SWAP1 REVERT JUMPDEST PUSH1 0x0 DUP7 DUP2 MSTORE PUSH1 0x8E PUSH1 0x20 MSTORE PUSH1 0x40 DUP2 KECCAK256 SWAP1 DUP1 PUSH2 0x2F0E DUP10 DUP10 DUP10 PUSH2 0x3D2C JUMP JUMPDEST PUSH1 0x1 DUP6 ADD SLOAD SWAP2 SWAP4 POP SWAP2 POP PUSH1 0x1 PUSH1 0x1 PUSH1 0xA0 SHL SUB AND PUSH2 0x2F69 JUMPI PUSH1 0x40 DUP1 MLOAD PUSH3 0x461BCD PUSH1 0xE5 SHL DUP2 MSTORE PUSH1 0x20 PUSH1 0x4 DUP3 ADD MSTORE PUSH1 0x14 PUSH1 0x24 DUP3 ADD MSTORE PUSH20 0x3130B21031B7B63630BA32B930B6103A37B5B2B7 PUSH1 0x61 SHL PUSH1 0x44 DUP3 ADD MSTORE SWAP1 MLOAD SWAP1 DUP2 SWAP1 SUB PUSH1 0x64 ADD SWAP1 REVERT JUMPDEST PUSH1 0x88 SLOAD PUSH1 0x1 DUP5 ADD SLOAD PUSH1 0x2 DUP6 ADD SLOAD PUSH1 0x40 DUP1 MLOAD PUSH4 0x30E39E57 PUSH1 0xE2 SHL DUP2 MSTORE PUSH1 0x1 PUSH1 0x1 PUSH1 0xA0 SHL SUB DUP14 DUP2 AND PUSH1 0x4 DUP4 ADD MSTORE SWAP4 DUP5 AND PUSH1 0x24 DUP3 ADD MSTORE PUSH1 0x44 DUP2 ADD SWAP3 SWAP1 SWAP3 MSTORE PUSH1 0x64 DUP3 ADD DUP7 SWAP1 MSTORE MLOAD PUSH1 0x0 SWAP4 PUSH2 0x3010 SWAP4 AND SWAP2 PUSH4 0xC38E795C SWAP2 PUSH1 0x84 DUP1 DUP4 ADD SWAP3 PUSH1 0x20 SWAP3 SWAP2 SWAP1 DUP3 SWAP1 SUB ADD DUP2 DUP7 DUP1 EXTCODESIZE ISZERO DUP1 ISZERO PUSH2 0x2FDA JUMPI PUSH1 0x0 DUP1 REVERT JUMPDEST POP GAS STATICCALL ISZERO DUP1 ISZERO PUSH2 0x2FEE JUMPI RETURNDATASIZE PUSH1 0x0 DUP1 RETURNDATACOPY RETURNDATASIZE PUSH1 0x0 REVERT JUMPDEST POP POP POP POP PUSH1 0x40 MLOAD RETURNDATASIZE PUSH1 0x20 DUP2 LT ISZERO PUSH2 0x3004 JUMPI PUSH1 0x0 DUP1 REVERT JUMPDEST POP MLOAD PUSH1 0x3 DUP7 ADD SLOAD PUSH2 0x44AD JUMP JUMPDEST PUSH1 0x3 DUP6 ADD SLOAD SWAP1 SWAP2 POP PUSH2 0x3022 SWAP1 DUP3 PUSH2 0x3C7D JUMP JUMPDEST PUSH1 0x3 DUP6 ADD SSTORE PUSH1 0x1 DUP5 ADD SLOAD PUSH1 0x2 DUP6 ADD SLOAD PUSH1 0x40 DUP1 MLOAD PUSH4 0x79212195 PUSH1 0xE1 SHL DUP2 MSTORE ADDRESS PUSH1 0x4 DUP3 ADD MSTORE CALLER PUSH1 0x24 DUP3 ADD MSTORE PUSH1 0x44 DUP2 ADD SWAP3 SWAP1 SWAP3 MSTORE PUSH1 0x64 DUP3 ADD DUP5 SWAP1 MSTORE PUSH1 0xA0 PUSH1 0x84 DUP4 ADD MSTORE PUSH1 0x0 PUSH1 0xA4 DUP4 ADD DUP2 SWAP1 MSTORE SWAP1 MLOAD PUSH1 0x1 PUSH1 0x1 PUSH1 0xA0 SHL SUB SWAP1 SWAP4 AND SWAP3 PUSH4 0xF242432A SWAP3 PUSH1 0xE4 DUP1 DUP3 ADD SWAP4 SWAP3 SWAP2 DUP3 SWAP1 SUB ADD DUP2 DUP4 DUP8 DUP1 EXTCODESIZE ISZERO DUP1 ISZERO PUSH2 0x309B JUMPI PUSH1 0x0 DUP1 REVERT JUMPDEST POP GAS CALL ISZERO DUP1 ISZERO PUSH2 0x30AF JUMPI RETURNDATASIZE PUSH1 0x0 DUP1 RETURNDATACOPY RETURNDATASIZE PUSH1 0x0 REVERT JUMPDEST POP POP PUSH1 0x40 DUP1 MLOAD DUP14 DUP2 MSTORE CALLER PUSH1 0x20 DUP3 ADD MSTORE PUSH1 0x1 PUSH1 0x1 PUSH1 0xA0 SHL SUB DUP14 AND DUP2 DUP4 ADD MSTORE PUSH1 0x60 DUP2 ADD DUP8 SWAP1 MSTORE PUSH1 0x80 DUP2 ADD DUP7 SWAP1 MSTORE PUSH1 0xA0 DUP2 ADD DUP6 SWAP1 MSTORE SWAP1 MLOAD PUSH32 0xAA05373FFF4A28318417DC16D03C4ED7B22197CB65240CFF73FA530F02217349 SWAP4 POP SWAP1 DUP2 SWAP1 SUB PUSH1 0xC0 ADD SWAP2 POP LOG1 POP POP PUSH1 0x1 PUSH1 0x83 SSTORE POP POP POP POP POP POP POP POP JUMP JUMPDEST PUSH1 0x0 SLOAD PUSH3 0x10000 SWAP1 DIV PUSH1 0x1 PUSH1 0x1 PUSH1 0xA0 SHL SUB AND CALLER EQ PUSH2 0x3179 JUMPI PUSH1 0x40 DUP1 MLOAD PUSH3 0x461BCD PUSH1 0xE5 SHL DUP2 MSTORE PUSH1 0x20 PUSH1 0x4 DUP3 ADD MSTORE PUSH1 0x10 PUSH1 0x24 DUP3 ADD MSTORE PUSH16 0x3737BA103A34329033B7BB32B93737B9 PUSH1 0x81 SHL PUSH1 0x44 DUP3 ADD MSTORE SWAP1 MLOAD SWAP1 DUP2 SWAP1 SUB PUSH1 0x64 ADD SWAP1 REVERT JUMPDEST PUSH1 0x1 PUSH1 0x1 PUSH1 0xA0 SHL SUB DUP2 AND PUSH2 0x31D4 JUMPI PUSH1 0x40 DUP1 MLOAD PUSH3 0x461BCD PUSH1 0xE5 SHL DUP2 MSTORE PUSH1 0x20 PUSH1 0x4 DUP3 ADD MSTORE PUSH1 0x1E PUSH1 0x24 DUP3 ADD MSTORE PUSH32 0x63616E6E6F7420736574207A65726F2061646472657373206F7261636C650000 PUSH1 0x44 DUP3 ADD MSTORE SWAP1 MLOAD SWAP1 DUP2 SWAP1 SUB PUSH1 0x64 ADD SWAP1 REVERT JUMPDEST PUSH1 0x88 DUP1 SLOAD PUSH1 0x1 PUSH1 0x1 PUSH1 0xA0 SHL SUB DUP4 AND PUSH1 0x1 PUSH1 0x1 PUSH1 0xA0 SHL SUB NOT SWAP1 SWAP2 AND DUP2 OR SWAP1 SWAP2 SSTORE PUSH1 0x40 DUP1 MLOAD SWAP2 DUP3 MSTORE MLOAD PUSH32 0xD3B5D1E0FFAEFF528910F3663F0ADACE7694AB8241D58E17A91351CED2E08031 SWAP2 DUP2 SWAP1 SUB PUSH1 0x20 ADD SWAP1 LOG1 POP JUMP JUMPDEST PUSH1 0x1 PUSH1 0x1 PUSH1 0xA0 SHL SUB SWAP1 DUP2 AND PUSH1 0x0 SWAP1 DUP2 MSTORE PUSH1 0x8C PUSH1 0x20 MSTORE PUSH1 0x40 SWAP1 KECCAK256 DUP1 SLOAD PUSH1 0x1 DUP3 ADD SLOAD PUSH1 0x2 DUP4 ADD SLOAD PUSH1 0x3 SWAP1 SWAP4 ADD SLOAD PUSH1 0xFF DUP4 AND SWAP6 PUSH3 0x10000 SWAP1 SWAP4 DIV SWAP1 SWAP5 AND SWAP4 SWAP1 SWAP3 SWAP2 JUMP JUMPDEST PUSH1 0x0 SLOAD PUSH3 0x10000 SWAP1 DIV PUSH1 0x1 PUSH1 0x1 PUSH1 0xA0 SHL SUB AND CALLER EQ PUSH2 0x32C0 JUMPI PUSH1 0x40 DUP1 MLOAD PUSH3 0x461BCD PUSH1 0xE5 SHL DUP2 MSTORE PUSH1 0x20 PUSH1 0x4 DUP3 ADD MSTORE PUSH1 0x10 PUSH1 0x24 DUP3 ADD MSTORE PUSH16 0x3737BA103A34329033B7BB32B93737B9 PUSH1 0x81 SHL PUSH1 0x44 DUP3 ADD MSTORE SWAP1 MLOAD SWAP1 DUP2 SWAP1 SUB PUSH1 0x64 ADD SWAP1 REVERT JUMPDEST PUSH1 0x93 SSTORE JUMP JUMPDEST PUSH1 0x88 SLOAD PUSH1 0x1 PUSH1 0x1 PUSH1 0xA0 SHL SUB AND DUP2 JUMP JUMPDEST PUSH1 0x8C PUSH1 0x20 MSTORE PUSH1 0x0 SWAP1 DUP2 MSTORE PUSH1 0x40 SWAP1 KECCAK256 DUP1 SLOAD PUSH1 0x1 DUP3 ADD SLOAD PUSH1 0x2 DUP4 ADD SLOAD PUSH1 0x3 SWAP1 SWAP4 ADD SLOAD PUSH1 0xFF DUP1 DUP5 AND SWAP5 PUSH2 0x100 DUP6 DIV SWAP1 SWAP2 AND SWAP4 PUSH3 0x10000 SWAP1 DIV PUSH1 0x1 PUSH1 0x1 PUSH1 0xA0 SHL SUB AND SWAP3 SWAP2 DUP7 JUMP JUMPDEST PUSH1 0x0 PUSH2 0x3322 DUP3 PUSH2 0x241F JUMP JUMPDEST PUSH2 0x332C DUP4 DUP4 PUSH2 0x3C07 JUMP JUMPDEST SWAP1 POP JUMPDEST SWAP3 SWAP2 POP POP JUMP JUMPDEST PUSH1 0x91 PUSH1 0x20 MSTORE PUSH1 0x0 SWAP1 DUP2 MSTORE PUSH1 0x40 SWAP1 KECCAK256 SLOAD PUSH1 0xFF AND DUP2 JUMP JUMPDEST PUSH1 0x8A SLOAD DUP2 JUMP JUMPDEST PUSH1 0x0 DUP2 DUP2 MSTORE PUSH1 0x8E PUSH1 0x20 MSTORE PUSH1 0x40 DUP2 KECCAK256 PUSH1 0x3 DUP2 ADD SLOAD DUP1 PUSH2 0x3373 JUMPI PUSH1 0x0 SWAP3 POP POP POP PUSH2 0x12D4 JUMP JUMPDEST PUSH1 0x1 DUP3 ADD SLOAD PUSH1 0x1 PUSH1 0x1 PUSH1 0xA0 SHL SUB AND PUSH2 0x33C9 JUMPI PUSH1 0x40 DUP1 MLOAD PUSH3 0x461BCD PUSH1 0xE5 SHL DUP2 MSTORE PUSH1 0x20 PUSH1 0x4 DUP3 ADD MSTORE PUSH1 0x14 PUSH1 0x24 DUP3 ADD MSTORE PUSH20 0x3130B21031B7B63630BA32B930B6103A37B5B2B7 PUSH1 0x61 SHL PUSH1 0x44 DUP3 ADD MSTORE SWAP1 MLOAD SWAP1 DUP2 SWAP1 SUB PUSH1 0x64 ADD SWAP1 REVERT JUMPDEST PUSH1 0x88 SLOAD PUSH1 0x1 DUP4 ADD SLOAD PUSH1 0x2 DUP5 ADD SLOAD DUP5 SLOAD PUSH1 0x40 DUP1 MLOAD PUSH4 0x2AD5CC77 PUSH1 0xE1 SHL DUP2 MSTORE PUSH1 0x1 PUSH1 0x1 PUSH1 0xA0 SHL SUB SWAP5 DUP6 AND PUSH1 0x4 DUP3 ADD MSTORE PUSH1 0x24 DUP2 ADD SWAP4 SWAP1 SWAP4 MSTORE PUSH1 0x44 DUP4 ADD DUP7 SWAP1 MSTORE SWAP1 DUP4 AND PUSH1 0x64 DUP4 ADD MSTORE MLOAD SWAP2 SWAP1 SWAP3 AND SWAP2 PUSH4 0x55AB98EE SWAP2 PUSH1 0x84 DUP1 DUP4 ADD SWAP3 PUSH1 0x20 SWAP3 SWAP2 SWAP1 DUP3 SWAP1 SUB ADD DUP2 DUP7 DUP1 EXTCODESIZE ISZERO DUP1 ISZERO PUSH2 0x3438 JUMPI PUSH1 0x0 DUP1 REVERT JUMPDEST POP GAS STATICCALL ISZERO DUP1 ISZERO PUSH2 0x344C JUMPI RETURNDATASIZE PUSH1 0x0 DUP1 RETURNDATACOPY RETURNDATASIZE PUSH1 0x0 REVERT JUMPDEST POP POP POP POP PUSH1 0x40 MLOAD RETURNDATASIZE PUSH1 0x20 DUP2 LT ISZERO PUSH2 0x3462 JUMPI PUSH1 0x0 DUP1 REVERT JUMPDEST POP MLOAD SWAP3 POP PUSH2 0x12D4 SWAP2 POP POP JUMP JUMPDEST PUSH1 0x87 SLOAD PUSH1 0x1 PUSH1 0x1 PUSH1 0xA0 SHL SUB AND DUP2 JUMP JUMPDEST PUSH1 0x8E PUSH1 0x20 MSTORE PUSH1 0x0 SWAP1 DUP2 MSTORE PUSH1 0x40 SWAP1 KECCAK256 DUP1 SLOAD PUSH1 0x1 DUP3 ADD SLOAD PUSH1 0x2 DUP4 ADD SLOAD PUSH1 0x3 DUP5 ADD SLOAD PUSH1 0x4 SWAP1 SWAP5 ADD SLOAD PUSH1 0x1 PUSH1 0x1 PUSH1 0xA0 SHL SUB SWAP4 DUP5 AND SWAP5 SWAP4 SWAP1 SWAP3 AND SWAP3 SWAP1 SWAP2 DUP6 JUMP JUMPDEST PUSH1 0x0 SLOAD PUSH3 0x10000 SWAP1 DIV PUSH1 0x1 PUSH1 0x1 PUSH1 0xA0 SHL SUB AND CALLER EQ PUSH2 0x3510 JUMPI PUSH1 0x40 DUP1 MLOAD PUSH3 0x461BCD PUSH1 0xE5 SHL DUP2 MSTORE PUSH1 0x20 PUSH1 0x4 DUP3 ADD MSTORE PUSH1 0x10 PUSH1 0x24 DUP3 ADD MSTORE PUSH16 0x3737BA103A34329033B7BB32B93737B9 PUSH1 0x81 SHL PUSH1 0x44 DUP3 ADD MSTORE SWAP1 MLOAD SWAP1 DUP2 SWAP1 SUB PUSH1 0x64 ADD SWAP1 REVERT JUMPDEST DUP3 DUP2 EQ PUSH2 0x354E JUMPI PUSH1 0x40 MLOAD PUSH3 0x461BCD PUSH1 0xE5 SHL DUP2 MSTORE PUSH1 0x4 ADD DUP1 DUP1 PUSH1 0x20 ADD DUP3 DUP2 SUB DUP3 MSTORE PUSH1 0x22 DUP2 MSTORE PUSH1 0x20 ADD DUP1 PUSH2 0x4D93 PUSH1 0x22 SWAP2 CODECOPY PUSH1 0x40 ADD SWAP2 POP POP PUSH1 0x40 MLOAD DUP1 SWAP2 SUB SWAP1 REVERT JUMPDEST PUSH1 0x0 JUMPDEST DUP4 DUP2 LT ISZERO PUSH2 0x1B7B JUMPI DUP3 DUP3 DUP3 DUP2 DUP2 LT PUSH2 0x3565 JUMPI INVALID JUMPDEST SWAP1 POP PUSH1 0x20 MUL ADD CALLDATALOAD ISZERO ISZERO PUSH1 0x92 PUSH1 0x0 DUP8 DUP8 DUP6 DUP2 DUP2 LT PUSH2 0x357E JUMPI INVALID JUMPDEST PUSH1 0x20 SWAP1 DUP2 MUL SWAP3 SWAP1 SWAP3 ADD CALLDATALOAD PUSH1 0x1 PUSH1 0x1 PUSH1 0xA0 SHL SUB AND DUP4 MSTORE POP DUP2 ADD SWAP2 SWAP1 SWAP2 MSTORE PUSH1 0x40 ADD PUSH1 0x0 KECCAK256 DUP1 SLOAD PUSH1 0xFF NOT AND SWAP2 ISZERO ISZERO SWAP2 SWAP1 SWAP2 OR SWAP1 SSTORE PUSH1 0x1 ADD PUSH2 0x3551 JUMP JUMPDEST PUSH4 0xBC197C81 PUSH1 0xE0 SHL SWAP9 SWAP8 POP POP POP POP POP POP POP POP JUMP JUMPDEST PUSH1 0x84 SLOAD DUP2 JUMP JUMPDEST PUSH1 0x0 SLOAD PUSH2 0x100 SWAP1 DIV PUSH1 0xFF AND DUP1 PUSH2 0x35EA JUMPI POP PUSH2 0x35EA PUSH2 0x44C3 JUMP JUMPDEST DUP1 PUSH2 0x35F8 JUMPI POP PUSH1 0x0 SLOAD PUSH1 0xFF AND ISZERO JUMPDEST PUSH2 0x3633 JUMPI PUSH1 0x40 MLOAD PUSH3 0x461BCD PUSH1 0xE5 SHL DUP2 MSTORE PUSH1 0x4 ADD DUP1 DUP1 PUSH1 0x20 ADD DUP3 DUP2 SUB DUP3 MSTORE PUSH1 0x2E DUP2 MSTORE PUSH1 0x20 ADD DUP1 PUSH2 0x4D44 PUSH1 0x2E SWAP2 CODECOPY PUSH1 0x40 ADD SWAP2 POP POP PUSH1 0x40 MLOAD DUP1 SWAP2 SUB SWAP1 REVERT JUMPDEST PUSH1 0x0 SLOAD PUSH2 0x100 SWAP1 DIV PUSH1 0xFF AND ISZERO DUP1 ISZERO PUSH2 0x365E JUMPI PUSH1 0x0 DUP1 SLOAD PUSH1 0xFF NOT PUSH2 0xFF00 NOT SWAP1 SWAP2 AND PUSH2 0x100 OR AND PUSH1 0x1 OR SWAP1 SSTORE JUMPDEST PUSH2 0x3666 PUSH2 0x44D4 JUMP JUMPDEST PUSH1 0x1 PUSH1 0x83 DUP2 SWAP1 SSTORE PUSH1 0x84 DUP2 SWAP1 SSTORE PUSH1 0x0 NOT PUSH1 0x85 SSTORE PUSH1 0x86 DUP1 SLOAD PUSH1 0x1 PUSH1 0x1 PUSH1 0xA0 SHL SUB NOT AND SWAP1 SWAP2 OR SWAP1 SSTORE PUSH1 0x40 MLOAD PUSH2 0x3697 SWAP1 PUSH2 0x4B27 JUMP JUMPDEST PUSH1 0x40 MLOAD DUP1 SWAP2 SUB SWAP1 PUSH1 0x0 CREATE DUP1 ISZERO DUP1 ISZERO PUSH2 0x36B3 JUMPI RETURNDATASIZE PUSH1 0x0 DUP1 RETURNDATACOPY RETURNDATASIZE PUSH1 0x0 REVERT JUMPDEST POP PUSH1 0x87 DUP1 SLOAD PUSH1 0x1 PUSH1 0x1 PUSH1 0xA0 SHL SUB SWAP3 DUP4 AND PUSH1 0x1 PUSH1 0x1 PUSH1 0xA0 SHL SUB NOT SWAP2 DUP3 AND OR SWAP1 SWAP2 SSTORE PUSH1 0x88 DUP1 SLOAD SWAP3 DUP7 AND SWAP3 SWAP1 SWAP2 AND DUP3 OR SWAP1 SSTORE PUSH2 0x3728 JUMPI PUSH1 0x40 DUP1 MLOAD PUSH3 0x461BCD PUSH1 0xE5 SHL DUP2 MSTORE PUSH1 0x20 PUSH1 0x4 DUP3 ADD MSTORE PUSH1 0x12 PUSH1 0x24 DUP3 ADD MSTORE PUSH18 0x626164206F7261636C652061646472657373 PUSH1 0x70 SHL PUSH1 0x44 DUP3 ADD MSTORE SWAP1 MLOAD SWAP1 DUP2 SWAP1 SUB PUSH1 0x64 ADD SWAP1 REVERT JUMPDEST PUSH1 0x89 DUP3 SWAP1 SSTORE PUSH1 0x1 PUSH1 0x8A SSTORE PUSH1 0x3 PUSH1 0x93 SSTORE PUSH1 0x40 DUP1 MLOAD PUSH1 0x1 PUSH1 0x1 PUSH1 0xA0 SHL SUB DUP6 AND DUP2 MSTORE SWAP1 MLOAD PUSH32 0xD3B5D1E0FFAEFF528910F3663F0ADACE7694AB8241D58E17A91351CED2E08031 SWAP2 DUP2 SWAP1 SUB PUSH1 0x20 ADD SWAP1 LOG1 PUSH1 0x40 DUP1 MLOAD DUP4 DUP2 MSTORE SWAP1 MLOAD PUSH32 0x15B86359C2A1E342EF965D15A848EDA1666E575175D1907EA284DAB1DCF64FFB SWAP2 DUP2 SWAP1 SUB PUSH1 0x20 ADD SWAP1 LOG1 DUP1 ISZERO PUSH2 0x37B8 JUMPI PUSH1 0x0 DUP1 SLOAD PUSH2 0xFF00 NOT AND SWAP1 SSTORE JUMPDEST POP POP POP JUMP JUMPDEST PUSH1 0x83 SLOAD DUP2 JUMP JUMPDEST PUSH1 0x8F SLOAD PUSH1 0xFF AND DUP2 JUMP JUMPDEST PUSH1 0x0 DUP3 DUP2 MSTORE PUSH1 0x8E PUSH1 0x20 SWAP1 DUP2 MSTORE PUSH1 0x40 DUP1 DUP4 KECCAK256 PUSH1 0x1 PUSH1 0x1 PUSH1 0xA0 SHL SUB DUP6 AND DUP5 MSTORE PUSH1 0x5 ADD SWAP1 SWAP2 MSTORE SWAP1 KECCAK256 SLOAD SWAP3 SWAP2 POP POP JUMP JUMPDEST PUSH1 0x85 SLOAD DUP2 JUMP JUMPDEST PUSH1 0x90 PUSH1 0x20 MSTORE PUSH1 0x0 SWAP1 DUP2 MSTORE PUSH1 0x40 SWAP1 KECCAK256 SLOAD PUSH1 0xFF AND DUP2 JUMP JUMPDEST PUSH1 0x8B DUP2 DUP2 SLOAD DUP2 LT PUSH2 0x3820 JUMPI INVALID JUMPDEST PUSH1 0x0 SWAP2 DUP3 MSTORE PUSH1 0x20 SWAP1 SWAP2 KECCAK256 ADD SLOAD PUSH1 0x1 PUSH1 0x1 PUSH1 0xA0 SHL SUB AND SWAP1 POP DUP2 JUMP JUMPDEST PUSH1 0x0 DUP2 DUP2 MSTORE PUSH1 0x8E PUSH1 0x20 MSTORE PUSH1 0x40 DUP2 KECCAK256 DUP1 SLOAD PUSH1 0x4 DUP3 ADD SLOAD DUP4 SWAP3 SWAP2 PUSH1 0x1 PUSH1 0x1 PUSH1 0xA0 SHL SUB AND SWAP1 DUP4 JUMPDEST DUP2 ISZERO PUSH2 0x3975 JUMPI PUSH1 0x1 DUP3 AND ISZERO PUSH2 0x3969 JUMPI PUSH1 0x0 PUSH1 0x8B DUP3 DUP2 SLOAD DUP2 LT PUSH2 0x387C JUMPI INVALID JUMPDEST PUSH1 0x0 SWAP2 DUP3 MSTORE PUSH1 0x20 DUP1 DUP4 KECCAK256 SWAP1 SWAP2 ADD SLOAD PUSH1 0x1 PUSH1 0x1 PUSH1 0xA0 SHL SUB AND DUP1 DUP4 MSTORE PUSH1 0x5 DUP9 ADD DUP3 MSTORE PUSH1 0x40 DUP1 DUP5 KECCAK256 SLOAD PUSH1 0x8C SWAP1 SWAP4 MSTORE DUP4 KECCAK256 PUSH1 0x3 DUP2 ADD SLOAD PUSH1 0x2 DUP3 ADD SLOAD SWAP3 SWAP6 POP SWAP3 SWAP4 SWAP1 SWAP3 SWAP1 SWAP2 PUSH2 0x38CC SWAP2 SWAP1 PUSH2 0x216B SWAP1 DUP7 SWAP1 PUSH2 0x41E7 JUMP JUMPDEST PUSH1 0x88 SLOAD PUSH1 0x40 DUP1 MLOAD PUSH4 0x3C7C6A3 PUSH1 0xE3 SHL DUP2 MSTORE PUSH1 0x1 PUSH1 0x1 PUSH1 0xA0 SHL SUB DUP9 DUP2 AND PUSH1 0x4 DUP4 ADD MSTORE PUSH1 0x24 DUP3 ADD DUP6 SWAP1 MSTORE DUP12 DUP2 AND PUSH1 0x44 DUP4 ADD MSTORE SWAP2 MLOAD SWAP4 SWAP5 POP PUSH2 0x3962 SWAP4 SWAP2 SWAP1 SWAP3 AND SWAP2 PUSH4 0x1E3E3518 SWAP2 PUSH1 0x64 DUP1 DUP4 ADD SWAP3 PUSH1 0x20 SWAP3 SWAP2 SWAP1 DUP3 SWAP1 SUB ADD DUP2 DUP7 DUP1 EXTCODESIZE ISZERO DUP1 ISZERO PUSH2 0x392F JUMPI PUSH1 0x0 DUP1 REVERT JUMPDEST POP GAS STATICCALL ISZERO DUP1 ISZERO PUSH2 0x3943 JUMPI RETURNDATASIZE PUSH1 0x0 DUP1 RETURNDATACOPY RETURNDATASIZE PUSH1 0x0 REVERT JUMPDEST POP POP POP POP PUSH1 0x40 MLOAD RETURNDATASIZE PUSH1 0x20 DUP2 LT ISZERO PUSH2 0x3959 JUMPI PUSH1 0x0 DUP1 REVERT JUMPDEST POP MLOAD DUP11 SWAP1 PUSH2 0x4020 JUMP JUMPDEST SWAP9 POP POP POP POP POP JUMPDEST PUSH1 0x1 SWAP2 DUP3 SHR SWAP2 ADD PUSH2 0x385E JUMP JUMPDEST POP SWAP3 SWAP6 SWAP5 POP POP POP POP POP JUMP JUMPDEST PUSH1 0x1 SLOAD PUSH1 0x1 PUSH1 0x1 PUSH1 0xA0 SHL SUB AND DUP2 JUMP JUMPDEST PUSH1 0x1 SLOAD PUSH1 0x1 PUSH1 0x1 PUSH1 0xA0 SHL SUB AND CALLER EQ PUSH2 0x39EE JUMPI PUSH1 0x40 DUP1 MLOAD PUSH3 0x461BCD PUSH1 0xE5 SHL DUP2 MSTORE PUSH1 0x20 PUSH1 0x4 DUP3 ADD MSTORE PUSH1 0x18 PUSH1 0x24 DUP3 ADD MSTORE PUSH32 0x6E6F74207468652070656E64696E6720676F7665726E6F720000000000000000 PUSH1 0x44 DUP3 ADD MSTORE SWAP1 MLOAD SWAP1 DUP2 SWAP1 SUB PUSH1 0x64 ADD SWAP1 REVERT JUMPDEST PUSH1 0x1 DUP1 SLOAD PUSH1 0x1 PUSH1 0x1 PUSH1 0xA0 SHL SUB NOT AND SWAP1 SSTORE PUSH1 0x0 DUP1 SLOAD PUSH3 0x10000 PUSH1 0x1 PUSH1 0xB0 SHL SUB NOT AND CALLER PUSH3 0x10000 DUP2 MUL SWAP2 SWAP1 SWAP2 OR SWAP1 SWAP2 SSTORE PUSH1 0x40 DUP1 MLOAD SWAP2 DUP3 MSTORE MLOAD PUSH32 0xD345D81CE68C70B119A17EEE79DC1421700BD9CB21CA148A62DC90983964E82F SWAP2 PUSH1 0x20 SWAP1 DUP3 SWAP1 SUB ADD SWAP1 LOG1 JUMP JUMPDEST PUSH1 0x88 SLOAD PUSH1 0x40 DUP1 MLOAD PUSH4 0x1CCC1981 PUSH1 0xE3 SHL DUP2 MSTORE PUSH1 0x1 PUSH1 0x1 PUSH1 0xA0 SHL SUB DUP5 DUP2 AND PUSH1 0x4 DUP4 ADD MSTORE SWAP2 MLOAD PUSH1 0x0 SWAP4 SWAP3 SWAP1 SWAP3 AND SWAP2 PUSH4 0xE660CC08 SWAP2 PUSH1 0x24 DUP1 DUP3 ADD SWAP3 PUSH1 0x20 SWAP3 SWAP1 SWAP2 SWAP1 DUP3 SWAP1 SUB ADD DUP2 DUP7 DUP1 EXTCODESIZE ISZERO DUP1 ISZERO PUSH2 0x3AA2 JUMPI PUSH1 0x0 DUP1 REVERT JUMPDEST POP GAS STATICCALL ISZERO DUP1 ISZERO PUSH2 0x3AB6 JUMPI RETURNDATASIZE PUSH1 0x0 DUP1 RETURNDATACOPY RETURNDATASIZE PUSH1 0x0 REVERT JUMPDEST POP POP POP POP PUSH1 0x40 MLOAD RETURNDATASIZE PUSH1 0x20 DUP2 LT ISZERO PUSH2 0x3ACC JUMPI PUSH1 0x0 DUP1 REVERT JUMPDEST POP MLOAD SWAP3 SWAP2 POP POP JUMP JUMPDEST PUSH1 0x0 SLOAD PUSH3 0x10000 SWAP1 DIV PUSH1 0x1 PUSH1 0x1 PUSH1 0xA0 SHL SUB AND CALLER EQ PUSH2 0x3B2C JUMPI PUSH1 0x40 DUP1 MLOAD PUSH3 0x461BCD PUSH1 0xE5 SHL DUP2 MSTORE PUSH1 0x20 PUSH1 0x4 DUP3 ADD MSTORE PUSH1 0x10 PUSH1 0x24 DUP3 ADD MSTORE PUSH16 0x3737BA103A34329033B7BB32B93737B9 PUSH1 0x81 SHL PUSH1 0x44 DUP3 ADD MSTORE SWAP1 MLOAD SWAP1 DUP2 SWAP1 SUB PUSH1 0x64 ADD SWAP1 REVERT JUMPDEST PUSH1 0x1 DUP1 SLOAD PUSH1 0x1 PUSH1 0x1 PUSH1 0xA0 SHL SUB DUP4 AND PUSH1 0x1 PUSH1 0x1 PUSH1 0xA0 SHL SUB NOT SWAP1 SWAP2 AND DUP2 OR SWAP1 SWAP2 SSTORE PUSH1 0x40 DUP1 MLOAD SWAP2 DUP3 MSTORE MLOAD PUSH32 0x964DEA888B00B2AB53F13DFE7CA334B46E99338C222AE232D98547A1DA019F60 SWAP2 DUP2 SWAP1 SUB PUSH1 0x20 ADD SWAP1 LOG1 POP JUMP JUMPDEST PUSH4 0xF23A6E61 PUSH1 0xE0 SHL SWAP7 SWAP6 POP POP POP POP POP POP JUMP JUMPDEST PUSH1 0x92 PUSH1 0x20 MSTORE PUSH1 0x0 SWAP1 DUP2 MSTORE PUSH1 0x40 SWAP1 KECCAK256 SLOAD PUSH1 0xFF AND DUP2 JUMP JUMPDEST PUSH1 0x0 DUP1 PUSH1 0x0 DUP1 PUSH1 0x0 NOT PUSH1 0x85 SLOAD EQ ISZERO PUSH2 0x3BEE JUMPI PUSH1 0x40 DUP1 MLOAD PUSH3 0x461BCD PUSH1 0xE5 SHL DUP2 MSTORE PUSH1 0x20 PUSH1 0x4 DUP3 ADD MSTORE PUSH1 0x5 PUSH1 0x24 DUP3 ADD MSTORE PUSH5 0x1B9BC81A59 PUSH1 0xDA SHL PUSH1 0x44 DUP3 ADD MSTORE SWAP1 MLOAD SWAP1 DUP2 SWAP1 SUB PUSH1 0x64 ADD SWAP1 REVERT JUMPDEST PUSH2 0x3BF9 PUSH1 0x85 SLOAD PUSH2 0x237B JUMP JUMPDEST SWAP4 POP SWAP4 POP SWAP4 POP SWAP4 POP SWAP1 SWAP2 SWAP3 SWAP4 JUMP JUMPDEST PUSH1 0x1 PUSH1 0x1 PUSH1 0xA0 SHL SUB DUP2 AND PUSH1 0x0 DUP2 DUP2 MSTORE PUSH1 0x8C PUSH1 0x20 SWAP1 DUP2 MSTORE PUSH1 0x40 DUP1 DUP4 KECCAK256 PUSH1 0x2 DUP2 ADD SLOAD PUSH1 0x3 SWAP1 SWAP2 ADD SLOAD DUP8 DUP6 MSTORE PUSH1 0x8E DUP5 MSTORE DUP3 DUP6 KECCAK256 SWAP6 DUP6 MSTORE PUSH1 0x5 SWAP1 SWAP6 ADD SWAP1 SWAP3 MSTORE DUP3 KECCAK256 SLOAD SWAP2 SWAP3 SWAP1 SWAP2 DUP1 ISZERO DUP1 PUSH2 0x3C54 JUMPI POP DUP3 ISZERO JUMPDEST ISZERO PUSH2 0x3C65 JUMPI PUSH1 0x0 SWAP4 POP POP POP POP PUSH2 0x332F JUMP JUMPDEST PUSH2 0x3C73 DUP3 PUSH2 0x216B DUP4 DUP7 PUSH2 0x41E7 JUMP JUMPDEST SWAP4 POP POP POP POP PUSH2 0x332F JUMP JUMPDEST PUSH1 0x0 DUP3 DUP3 GT ISZERO PUSH2 0x3CD4 JUMPI PUSH1 0x40 DUP1 MLOAD PUSH3 0x461BCD PUSH1 0xE5 SHL DUP2 MSTORE PUSH1 0x20 PUSH1 0x4 DUP3 ADD MSTORE PUSH1 0x1E PUSH1 0x24 DUP3 ADD MSTORE PUSH32 0x536166654D6174683A207375627472616374696F6E206F766572666C6F770000 PUSH1 0x44 DUP3 ADD MSTORE SWAP1 MLOAD SWAP1 DUP2 SWAP1 SUB PUSH1 0x64 ADD SWAP1 REVERT JUMPDEST POP SWAP1 SUB SWAP1 JUMP JUMPDEST PUSH1 0x40 DUP1 MLOAD PUSH1 0x1 PUSH1 0x1 PUSH1 0xA0 SHL SUB DUP5 AND PUSH1 0x24 DUP3 ADD MSTORE PUSH1 0x44 DUP1 DUP3 ADD DUP5 SWAP1 MSTORE DUP3 MLOAD DUP1 DUP4 SUB SWAP1 SWAP2 ADD DUP2 MSTORE PUSH1 0x64 SWAP1 SWAP2 ADD SWAP1 SWAP2 MSTORE PUSH1 0x20 DUP2 ADD DUP1 MLOAD PUSH1 0x1 PUSH1 0x1 PUSH1 0xE0 SHL SUB AND PUSH4 0xA9059CBB PUSH1 0xE0 SHL OR SWAP1 MSTORE PUSH2 0x37B8 SWAP1 DUP5 SWAP1 PUSH2 0x45D7 JUMP JUMPDEST PUSH1 0x1 PUSH1 0x1 PUSH1 0xA0 SHL SUB DUP3 AND PUSH1 0x0 DUP2 DUP2 MSTORE PUSH1 0x8C PUSH1 0x20 SWAP1 DUP2 MSTORE PUSH1 0x40 DUP1 DUP4 KECCAK256 DUP8 DUP5 MSTORE PUSH1 0x8E DUP4 MSTORE DUP2 DUP5 KECCAK256 PUSH1 0x3 DUP3 ADD SLOAD PUSH1 0x2 DUP4 ADD SLOAD SWAP7 DUP7 MSTORE PUSH1 0x5 DUP3 ADD SWAP1 SWAP5 MSTORE SWAP2 DUP5 KECCAK256 SLOAD SWAP4 SWAP5 DUP6 SWAP5 SWAP2 SWAP4 SWAP2 DUP6 PUSH2 0x3D7F DUP5 PUSH2 0x216B DUP5 DUP7 PUSH2 0x41E7 JUMP JUMPDEST SWAP1 POP PUSH1 0x0 NOT DUP10 EQ ISZERO PUSH2 0x3D8F JUMPI DUP1 SWAP9 POP JUMPDEST PUSH1 0x0 PUSH2 0x3DA4 DUP12 PUSH2 0x3D9F DUP14 DUP14 PUSH2 0x4688 JUMP JUMPDEST PUSH2 0x47AB JUMP JUMPDEST SWAP1 POP DUP2 DUP2 GT ISZERO PUSH2 0x3DEF JUMPI PUSH1 0x40 DUP1 MLOAD PUSH3 0x461BCD PUSH1 0xE5 SHL DUP2 MSTORE PUSH1 0x20 PUSH1 0x4 DUP3 ADD MSTORE PUSH1 0x11 PUSH1 0x24 DUP3 ADD MSTORE PUSH17 0x1C185A5908195E18D959591CC81919589D PUSH1 0x7A SHL PUSH1 0x44 DUP3 ADD MSTORE SWAP1 MLOAD SWAP1 DUP2 SWAP1 SUB PUSH1 0x64 ADD SWAP1 REVERT JUMPDEST PUSH1 0x0 DUP3 DUP3 EQ PUSH2 0x3E0B JUMPI PUSH2 0x3E06 DUP6 PUSH2 0x2531 DUP5 DUP10 PUSH2 0x41E7 JUMP JUMPDEST PUSH2 0x3E0D JUMP JUMPDEST DUP4 JUMPDEST SWAP1 POP PUSH2 0x3E19 DUP7 DUP3 PUSH2 0x3C7D JUMP JUMPDEST PUSH1 0x3 DUP10 ADD SSTORE PUSH1 0x0 PUSH2 0x3E2A DUP6 DUP4 PUSH2 0x3C7D JUMP JUMPDEST PUSH1 0x1 PUSH1 0x1 PUSH1 0xA0 SHL SUB DUP15 AND PUSH1 0x0 SWAP1 DUP2 MSTORE PUSH1 0x5 DUP11 ADD PUSH1 0x20 MSTORE PUSH1 0x40 SWAP1 KECCAK256 DUP2 SWAP1 SSTORE SWAP1 POP DUP1 PUSH2 0x3E6C JUMPI DUP9 SLOAD PUSH1 0x4 DUP10 ADD DUP1 SLOAD PUSH1 0x1 PUSH2 0x100 SWAP1 SWAP4 DIV PUSH1 0xFF AND SWAP3 SWAP1 SWAP3 SHL NOT SWAP1 SWAP2 AND SWAP1 SSTORE JUMPDEST POP SWAP1 SWAP13 SWAP1 SWAP12 POP SWAP10 POP POP POP POP POP POP POP POP POP POP JUMP JUMPDEST PUSH1 0x0 DUP1 DUP5 PUSH1 0x1 PUSH1 0x1 PUSH1 0xA0 SHL SUB AND PUSH3 0xFDD58E ADDRESS DUP7 PUSH1 0x40 MLOAD DUP4 PUSH4 0xFFFFFFFF AND PUSH1 0xE0 SHL DUP2 MSTORE PUSH1 0x4 ADD DUP1 DUP4 PUSH1 0x1 PUSH1 0x1 PUSH1 0xA0 SHL SUB AND DUP2 MSTORE PUSH1 0x20 ADD DUP3 DUP2 MSTORE PUSH1 0x20 ADD SWAP3 POP POP POP PUSH1 0x20 PUSH1 0x40 MLOAD DUP1 DUP4 SUB DUP2 DUP7 DUP1 EXTCODESIZE ISZERO DUP1 ISZERO PUSH2 0x3ED6 JUMPI PUSH1 0x0 DUP1 REVERT JUMPDEST POP GAS STATICCALL ISZERO DUP1 ISZERO PUSH2 0x3EEA JUMPI RETURNDATASIZE PUSH1 0x0 DUP1 RETURNDATACOPY RETURNDATASIZE PUSH1 0x0 REVERT JUMPDEST POP POP POP POP PUSH1 0x40 MLOAD RETURNDATASIZE PUSH1 0x20 DUP2 LT ISZERO PUSH2 0x3F00 JUMPI PUSH1 0x0 DUP1 REVERT JUMPDEST POP MLOAD PUSH1 0x40 DUP1 MLOAD PUSH4 0x79212195 PUSH1 0xE1 SHL DUP2 MSTORE CALLER PUSH1 0x4 DUP3 ADD MSTORE ADDRESS PUSH1 0x24 DUP3 ADD MSTORE PUSH1 0x44 DUP2 ADD DUP8 SWAP1 MSTORE PUSH1 0x64 DUP2 ADD DUP7 SWAP1 MSTORE PUSH1 0xA0 PUSH1 0x84 DUP3 ADD MSTORE PUSH1 0x0 PUSH1 0xA4 DUP3 ADD DUP2 SWAP1 MSTORE SWAP2 MLOAD SWAP3 SWAP4 POP PUSH1 0x1 PUSH1 0x1 PUSH1 0xA0 SHL SUB DUP9 AND SWAP3 PUSH4 0xF242432A SWAP3 PUSH1 0xE4 DUP1 DUP5 ADD SWAP4 SWAP2 SWAP3 SWAP2 DUP3 SWAP1 SUB ADD DUP2 DUP4 DUP8 DUP1 EXTCODESIZE ISZERO DUP1 ISZERO PUSH2 0x3F6E JUMPI PUSH1 0x0 DUP1 REVERT JUMPDEST POP GAS CALL ISZERO DUP1 ISZERO PUSH2 0x3F82 JUMPI RETURNDATASIZE PUSH1 0x0 DUP1 RETURNDATACOPY RETURNDATASIZE PUSH1 0x0 REVERT JUMPDEST POP POP POP POP PUSH1 0x0 DUP6 PUSH1 0x1 PUSH1 0x1 PUSH1 0xA0 SHL SUB AND PUSH3 0xFDD58E ADDRESS DUP8 PUSH1 0x40 MLOAD DUP4 PUSH4 0xFFFFFFFF AND PUSH1 0xE0 SHL DUP2 MSTORE PUSH1 0x4 ADD DUP1 DUP4 PUSH1 0x1 PUSH1 0x1 PUSH1 0xA0 SHL SUB AND DUP2 MSTORE PUSH1 0x20 ADD DUP3 DUP2 MSTORE PUSH1 0x20 ADD SWAP3 POP POP POP PUSH1 0x20 PUSH1 0x40 MLOAD DUP1 DUP4 SUB DUP2 DUP7 DUP1 EXTCODESIZE ISZERO DUP1 ISZERO PUSH2 0x3FDC JUMPI PUSH1 0x0 DUP1 REVERT JUMPDEST POP GAS STATICCALL ISZERO DUP1 ISZERO PUSH2 0x3FF0 JUMPI RETURNDATASIZE PUSH1 0x0 DUP1 RETURNDATACOPY RETURNDATASIZE PUSH1 0x0 REVERT JUMPDEST POP POP POP POP PUSH1 0x40 MLOAD RETURNDATASIZE PUSH1 0x20 DUP2 LT ISZERO PUSH2 0x4006 JUMPI PUSH1 0x0 DUP1 REVERT JUMPDEST POP MLOAD SWAP1 POP PUSH2 0x4014 DUP2 DUP4 PUSH2 0x3C7D JUMP JUMPDEST SWAP3 POP POP POP JUMPDEST SWAP4 SWAP3 POP POP POP JUMP JUMPDEST PUSH1 0x0 DUP3 DUP3 ADD DUP4 DUP2 LT ISZERO PUSH2 0x332C JUMPI PUSH1 0x40 DUP1 MLOAD PUSH3 0x461BCD PUSH1 0xE5 SHL DUP2 MSTORE PUSH1 0x20 PUSH1 0x4 DUP3 ADD MSTORE PUSH1 0x1B PUSH1 0x24 DUP3 ADD MSTORE PUSH32 0x536166654D6174683A206164646974696F6E206F766572666C6F770000000000 PUSH1 0x44 DUP3 ADD MSTORE SWAP1 MLOAD SWAP1 DUP2 SWAP1 SUB PUSH1 0x64 ADD SWAP1 REVERT JUMPDEST DUP1 ISZERO DUP1 PUSH2 0x4100 JUMPI POP PUSH1 0x40 DUP1 MLOAD PUSH4 0x6EB1769F PUSH1 0xE1 SHL DUP2 MSTORE ADDRESS PUSH1 0x4 DUP3 ADD MSTORE PUSH1 0x1 PUSH1 0x1 PUSH1 0xA0 SHL SUB DUP5 DUP2 AND PUSH1 0x24 DUP4 ADD MSTORE SWAP2 MLOAD SWAP2 DUP6 AND SWAP2 PUSH4 0xDD62ED3E SWAP2 PUSH1 0x44 DUP1 DUP3 ADD SWAP3 PUSH1 0x20 SWAP3 SWAP1 SWAP2 SWAP1 DUP3 SWAP1 SUB ADD DUP2 DUP7 DUP1 EXTCODESIZE ISZERO DUP1 ISZERO PUSH2 0x40D2 JUMPI PUSH1 0x0 DUP1 REVERT JUMPDEST POP GAS STATICCALL ISZERO DUP1 ISZERO PUSH2 0x40E6 JUMPI RETURNDATASIZE PUSH1 0x0 DUP1 RETURNDATACOPY RETURNDATASIZE PUSH1 0x0 REVERT JUMPDEST POP POP POP POP PUSH1 0x40 MLOAD RETURNDATASIZE PUSH1 0x20 DUP2 LT ISZERO PUSH2 0x40FC JUMPI PUSH1 0x0 DUP1 REVERT JUMPDEST POP MLOAD ISZERO JUMPDEST PUSH2 0x413B JUMPI PUSH1 0x40 MLOAD PUSH3 0x461BCD PUSH1 0xE5 SHL DUP2 MSTORE PUSH1 0x4 ADD DUP1 DUP1 PUSH1 0x20 ADD DUP3 DUP2 SUB DUP3 MSTORE PUSH1 0x36 DUP2 MSTORE PUSH1 0x20 ADD DUP1 PUSH2 0x4E25 PUSH1 0x36 SWAP2 CODECOPY PUSH1 0x40 ADD SWAP2 POP POP PUSH1 0x40 MLOAD DUP1 SWAP2 SUB SWAP1 REVERT JUMPDEST PUSH1 0x40 DUP1 MLOAD PUSH1 0x1 PUSH1 0x1 PUSH1 0xA0 SHL SUB DUP5 AND PUSH1 0x24 DUP3 ADD MSTORE PUSH1 0x44 DUP1 DUP3 ADD DUP5 SWAP1 MSTORE DUP3 MLOAD DUP1 DUP4 SUB SWAP1 SWAP2 ADD DUP2 MSTORE PUSH1 0x64 SWAP1 SWAP2 ADD SWAP1 SWAP2 MSTORE PUSH1 0x20 DUP2 ADD DUP1 MLOAD PUSH1 0x1 PUSH1 0x1 PUSH1 0xE0 SHL SUB AND PUSH4 0x95EA7B3 PUSH1 0xE0 SHL OR SWAP1 MSTORE PUSH2 0x37B8 SWAP1 DUP5 SWAP1 PUSH2 0x45D7 JUMP JUMPDEST PUSH1 0x40 DUP1 MLOAD PUSH1 0x1 PUSH1 0x1 PUSH1 0xA0 SHL SUB DUP1 DUP7 AND PUSH1 0x24 DUP4 ADD MSTORE DUP5 AND PUSH1 0x44 DUP3 ADD MSTORE PUSH1 0x64 DUP1 DUP3 ADD DUP5 SWAP1 MSTORE DUP3 MLOAD DUP1 DUP4 SUB SWAP1 SWAP2 ADD DUP2 MSTORE PUSH1 0x84 SWAP1 SWAP2 ADD SWAP1 SWAP2 MSTORE PUSH1 0x20 DUP2 ADD DUP1 MLOAD PUSH1 0x1 PUSH1 0x1 PUSH1 0xE0 SHL SUB AND PUSH4 0x23B872DD PUSH1 0xE0 SHL OR SWAP1 MSTORE PUSH2 0x2572 SWAP1 DUP6 SWAP1 PUSH2 0x45D7 JUMP JUMPDEST PUSH1 0x0 DUP3 PUSH2 0x41F6 JUMPI POP PUSH1 0x0 PUSH2 0x332F JUMP JUMPDEST DUP3 DUP3 MUL DUP3 DUP5 DUP3 DUP2 PUSH2 0x4203 JUMPI INVALID JUMPDEST DIV EQ PUSH2 0x332C JUMPI PUSH1 0x40 MLOAD PUSH3 0x461BCD PUSH1 0xE5 SHL DUP2 MSTORE PUSH1 0x4 ADD DUP1 DUP1 PUSH1 0x20 ADD DUP3 DUP2 SUB DUP3 MSTORE PUSH1 0x21 DUP2 MSTORE PUSH1 0x20 ADD DUP1 PUSH2 0x4D72 PUSH1 0x21 SWAP2 CODECOPY PUSH1 0x40 ADD SWAP2 POP POP PUSH1 0x40 MLOAD DUP1 SWAP2 SUB SWAP1 REVERT JUMPDEST PUSH1 0x0 PUSH2 0x332C DUP3 PUSH2 0x2531 PUSH1 0x1 PUSH2 0x4255 DUP8 DUP5 PUSH2 0x4020 JUMP JUMPDEST SWAP1 PUSH2 0x3C7D JUMP JUMPDEST PUSH1 0x1 PUSH1 0x1 PUSH1 0xA0 SHL SUB DUP3 AND PUSH1 0x0 DUP2 DUP2 MSTORE PUSH1 0x8C PUSH1 0x20 SWAP1 DUP2 MSTORE PUSH1 0x40 DUP1 DUP4 KECCAK256 DUP2 MLOAD PUSH4 0x70A08231 PUSH1 0xE0 SHL DUP2 MSTORE ADDRESS PUSH1 0x4 DUP3 ADD MSTORE SWAP2 MLOAD SWAP4 SWAP5 SWAP1 SWAP4 DUP6 SWAP4 SWAP2 SWAP3 PUSH4 0x70A08231 SWAP3 PUSH1 0x24 DUP1 DUP4 ADD SWAP4 SWAP2 SWAP3 DUP3 SWAP1 SUB ADD DUP2 DUP7 DUP1 EXTCODESIZE ISZERO DUP1 ISZERO PUSH2 0x42B4 JUMPI PUSH1 0x0 DUP1 REVERT JUMPDEST POP GAS STATICCALL ISZERO DUP1 ISZERO PUSH2 0x42C8 JUMPI RETURNDATASIZE PUSH1 0x0 DUP1 RETURNDATACOPY RETURNDATASIZE PUSH1 0x0 REVERT JUMPDEST POP POP POP POP PUSH1 0x40 MLOAD RETURNDATASIZE PUSH1 0x20 DUP2 LT ISZERO PUSH2 0x42DE JUMPI PUSH1 0x0 DUP1 REVERT JUMPDEST POP MLOAD DUP3 SLOAD PUSH1 0x40 DUP1 MLOAD PUSH4 0x317AFABB PUSH1 0xE2 SHL DUP2 MSTORE PUSH1 0x4 DUP2 ADD DUP9 SWAP1 MSTORE SWAP1 MLOAD SWAP3 SWAP4 POP PUSH3 0x10000 SWAP1 SWAP2 DIV PUSH1 0x1 PUSH1 0x1 PUSH1 0xA0 SHL SUB AND SWAP2 PUSH4 0xC5EBEAEC SWAP2 PUSH1 0x24 DUP1 DUP3 ADD SWAP3 PUSH1 0x20 SWAP3 SWAP1 SWAP2 SWAP1 DUP3 SWAP1 SUB ADD DUP2 PUSH1 0x0 DUP8 DUP1 EXTCODESIZE ISZERO DUP1 ISZERO PUSH2 0x4335 JUMPI PUSH1 0x0 DUP1 REVERT JUMPDEST POP GAS CALL ISZERO DUP1 ISZERO PUSH2 0x4349 JUMPI RETURNDATASIZE PUSH1 0x0 DUP1 RETURNDATACOPY RETURNDATASIZE PUSH1 0x0 REVERT JUMPDEST POP POP POP POP PUSH1 0x40 MLOAD RETURNDATASIZE PUSH1 0x20 DUP2 LT ISZERO PUSH2 0x435F JUMPI PUSH1 0x0 DUP1 REVERT JUMPDEST POP MLOAD ISZERO PUSH2 0x43A0 JUMPI PUSH1 0x40 DUP1 MLOAD PUSH3 0x461BCD PUSH1 0xE5 SHL DUP2 MSTORE PUSH1 0x20 PUSH1 0x4 DUP3 ADD MSTORE PUSH1 0xA PUSH1 0x24 DUP3 ADD MSTORE PUSH10 0x62616420626F72726F77 PUSH1 0xB0 SHL PUSH1 0x44 DUP3 ADD MSTORE SWAP1 MLOAD SWAP1 DUP2 SWAP1 SUB PUSH1 0x64 ADD SWAP1 REVERT JUMPDEST PUSH1 0x0 DUP6 PUSH1 0x1 PUSH1 0x1 PUSH1 0xA0 SHL SUB AND PUSH4 0x70A08231 ADDRESS PUSH1 0x40 MLOAD DUP3 PUSH4 0xFFFFFFFF AND PUSH1 0xE0 SHL DUP2 MSTORE PUSH1 0x4 ADD DUP1 DUP3 PUSH1 0x1 PUSH1 0x1 PUSH1 0xA0 SHL SUB AND DUP2 MSTORE PUSH1 0x20 ADD SWAP2 POP POP PUSH1 0x20 PUSH1 0x40 MLOAD DUP1 DUP4 SUB DUP2 DUP7 DUP1 EXTCODESIZE ISZERO DUP1 ISZERO PUSH2 0x43EF JUMPI PUSH1 0x0 DUP1 REVERT JUMPDEST POP GAS STATICCALL ISZERO DUP1 ISZERO PUSH2 0x4403 JUMPI RETURNDATASIZE PUSH1 0x0 DUP1 RETURNDATACOPY RETURNDATASIZE PUSH1 0x0 REVERT JUMPDEST POP POP POP POP PUSH1 0x40 MLOAD RETURNDATASIZE PUSH1 0x20 DUP2 LT ISZERO PUSH2 0x4419 JUMPI PUSH1 0x0 DUP1 REVERT JUMPDEST POP MLOAD PUSH1 0x2 DUP5 ADD SLOAD SWAP1 SWAP2 POP PUSH2 0x442D SWAP1 DUP7 PUSH2 0x4020 JUMP JUMPDEST PUSH1 0x2 DUP5 ADD SSTORE PUSH2 0x443C DUP2 DUP4 PUSH2 0x3C7D JUMP JUMPDEST SWAP7 SWAP6 POP POP POP POP POP POP JUMP JUMPDEST PUSH1 0x0 DUP1 DUP3 GT PUSH2 0x449C JUMPI PUSH1 0x40 DUP1 MLOAD PUSH3 0x461BCD PUSH1 0xE5 SHL DUP2 MSTORE PUSH1 0x20 PUSH1 0x4 DUP3 ADD MSTORE PUSH1 0x1A PUSH1 0x24 DUP3 ADD MSTORE PUSH32 0x536166654D6174683A206469766973696F6E206279207A65726F000000000000 PUSH1 0x44 DUP3 ADD MSTORE SWAP1 MLOAD SWAP1 DUP2 SWAP1 SUB PUSH1 0x64 ADD SWAP1 REVERT JUMPDEST DUP2 DUP4 DUP2 PUSH2 0x44A5 JUMPI INVALID JUMPDEST DIV SWAP4 SWAP3 POP POP POP JUMP JUMPDEST PUSH1 0x0 DUP2 DUP4 LT PUSH2 0x44BC JUMPI DUP2 PUSH2 0x332C JUMP JUMPDEST POP SWAP1 SWAP2 SWAP1 POP JUMP JUMPDEST PUSH1 0x0 PUSH2 0x44CE ADDRESS PUSH2 0x491A JUMP JUMPDEST ISZERO SWAP1 POP SWAP1 JUMP JUMPDEST PUSH1 0x0 SLOAD PUSH2 0x100 SWAP1 DIV PUSH1 0xFF AND DUP1 PUSH2 0x44ED JUMPI POP PUSH2 0x44ED PUSH2 0x44C3 JUMP JUMPDEST DUP1 PUSH2 0x44FB JUMPI POP PUSH1 0x0 SLOAD PUSH1 0xFF AND ISZERO JUMPDEST PUSH2 0x4536 JUMPI PUSH1 0x40 MLOAD PUSH3 0x461BCD PUSH1 0xE5 SHL DUP2 MSTORE PUSH1 0x4 ADD DUP1 DUP1 PUSH1 0x20 ADD DUP3 DUP2 SUB DUP3 MSTORE PUSH1 0x2E DUP2 MSTORE PUSH1 0x20 ADD DUP1 PUSH2 0x4D44 PUSH1 0x2E SWAP2 CODECOPY PUSH1 0x40 ADD SWAP2 POP POP PUSH1 0x40 MLOAD DUP1 SWAP2 SUB SWAP1 REVERT JUMPDEST PUSH1 0x0 SLOAD PUSH2 0x100 SWAP1 DIV PUSH1 0xFF AND ISZERO DUP1 ISZERO PUSH2 0x4561 JUMPI PUSH1 0x0 DUP1 SLOAD PUSH1 0xFF NOT PUSH2 0xFF00 NOT SWAP1 SWAP2 AND PUSH2 0x100 OR AND PUSH1 0x1 OR SWAP1 SSTORE JUMPDEST PUSH1 0x0 DUP1 SLOAD PUSH3 0x10000 PUSH1 0x1 PUSH1 0xB0 SHL SUB NOT AND CALLER PUSH3 0x10000 DUP2 MUL SWAP2 SWAP1 SWAP2 OR SWAP1 SWAP2 SSTORE PUSH1 0x1 DUP1 SLOAD PUSH1 0x1 PUSH1 0x1 PUSH1 0xA0 SHL SUB NOT AND SWAP1 SSTORE PUSH1 0x40 DUP1 MLOAD SWAP2 DUP3 MSTORE MLOAD PUSH32 0xBCE074C8369E26E70E1AE2F14FC944DA352CFE6F52E2DE9572F0C9942A24B7FC SWAP2 PUSH1 0x20 SWAP1 DUP3 SWAP1 SUB ADD SWAP1 LOG1 DUP1 ISZERO PUSH2 0x45D4 JUMPI PUSH1 0x0 DUP1 SLOAD PUSH2 0xFF00 NOT AND SWAP1 SSTORE JUMPDEST POP JUMP JUMPDEST PUSH1 0x60 PUSH2 0x462C DUP3 PUSH1 0x40 MLOAD DUP1 PUSH1 0x40 ADD PUSH1 0x40 MSTORE DUP1 PUSH1 0x20 DUP2 MSTORE PUSH1 0x20 ADD PUSH32 0x5361666545524332303A206C6F772D6C6576656C2063616C6C206661696C6564 DUP2 MSTORE POP DUP6 PUSH1 0x1 PUSH1 0x1 PUSH1 0xA0 SHL SUB AND PUSH2 0x4920 SWAP1 SWAP3 SWAP2 SWAP1 PUSH4 0xFFFFFFFF AND JUMP JUMPDEST DUP1 MLOAD SWAP1 SWAP2 POP ISZERO PUSH2 0x37B8 JUMPI DUP1 DUP1 PUSH1 0x20 ADD SWAP1 MLOAD PUSH1 0x20 DUP2 LT ISZERO PUSH2 0x464B JUMPI PUSH1 0x0 DUP1 REVERT JUMPDEST POP MLOAD PUSH2 0x37B8 JUMPI PUSH1 0x40 MLOAD PUSH3 0x461BCD PUSH1 0xE5 SHL DUP2 MSTORE PUSH1 0x4 ADD DUP1 DUP1 PUSH1 0x20 ADD DUP3 DUP2 SUB DUP3 MSTORE PUSH1 0x2A DUP2 MSTORE PUSH1 0x20 ADD DUP1 PUSH2 0x4DFB PUSH1 0x2A SWAP2 CODECOPY PUSH1 0x40 ADD SWAP2 POP POP PUSH1 0x40 MLOAD DUP1 SWAP2 SUB SWAP1 REVERT JUMPDEST PUSH1 0x0 DUP1 DUP4 PUSH1 0x1 PUSH1 0x1 PUSH1 0xA0 SHL SUB AND PUSH4 0x70A08231 ADDRESS PUSH1 0x40 MLOAD DUP3 PUSH4 0xFFFFFFFF AND PUSH1 0xE0 SHL DUP2 MSTORE PUSH1 0x4 ADD DUP1 DUP3 PUSH1 0x1 PUSH1 0x1 PUSH1 0xA0 SHL SUB AND DUP2 MSTORE PUSH1 0x20 ADD SWAP2 POP POP PUSH1 0x20 PUSH1 0x40 MLOAD DUP1 DUP4 SUB DUP2 DUP7 DUP1 EXTCODESIZE ISZERO DUP1 ISZERO PUSH2 0x46D8 JUMPI PUSH1 0x0 DUP1 REVERT JUMPDEST POP GAS STATICCALL ISZERO DUP1 ISZERO PUSH2 0x46EC JUMPI RETURNDATASIZE PUSH1 0x0 DUP1 RETURNDATACOPY RETURNDATASIZE PUSH1 0x0 REVERT JUMPDEST POP POP POP POP PUSH1 0x40 MLOAD RETURNDATASIZE PUSH1 0x20 DUP2 LT ISZERO PUSH2 0x4702 JUMPI PUSH1 0x0 DUP1 REVERT JUMPDEST POP MLOAD SWAP1 POP PUSH2 0x471B PUSH1 0x1 PUSH1 0x1 PUSH1 0xA0 SHL SUB DUP6 AND CALLER ADDRESS DUP7 PUSH2 0x418D JUMP JUMPDEST PUSH1 0x0 DUP5 PUSH1 0x1 PUSH1 0x1 PUSH1 0xA0 SHL SUB AND PUSH4 0x70A08231 ADDRESS PUSH1 0x40 MLOAD DUP3 PUSH4 0xFFFFFFFF AND PUSH1 0xE0 SHL DUP2 MSTORE PUSH1 0x4 ADD DUP1 DUP3 PUSH1 0x1 PUSH1 0x1 PUSH1 0xA0 SHL SUB AND DUP2 MSTORE PUSH1 0x20 ADD SWAP2 POP POP PUSH1 0x20 PUSH1 0x40 MLOAD DUP1 DUP4 SUB DUP2 DUP7 DUP1 EXTCODESIZE ISZERO DUP1 ISZERO PUSH2 0x476A JUMPI PUSH1 0x0 DUP1 REVERT JUMPDEST POP GAS STATICCALL ISZERO DUP1 ISZERO PUSH2 0x477E JUMPI RETURNDATASIZE PUSH1 0x0 DUP1 RETURNDATACOPY RETURNDATASIZE PUSH1 0x0 REVERT JUMPDEST POP POP POP POP PUSH1 0x40 MLOAD RETURNDATASIZE PUSH1 0x20 DUP2 LT ISZERO PUSH2 0x4794 JUMPI PUSH1 0x0 DUP1 REVERT JUMPDEST POP MLOAD SWAP1 POP PUSH2 0x47A2 DUP2 DUP4 PUSH2 0x3C7D JUMP JUMPDEST SWAP6 SWAP5 POP POP POP POP POP JUMP JUMPDEST PUSH1 0x1 PUSH1 0x1 PUSH1 0xA0 SHL SUB DUP1 DUP4 AND PUSH1 0x0 SWAP1 DUP2 MSTORE PUSH1 0x8C PUSH1 0x20 SWAP1 DUP2 MSTORE PUSH1 0x40 DUP1 DUP4 KECCAK256 DUP1 SLOAD PUSH1 0x2 DUP3 ADD SLOAD DUP4 MLOAD PUSH4 0x73A9381 PUSH1 0xE1 SHL DUP2 MSTORE PUSH1 0x4 DUP2 ADD DUP10 SWAP1 MSTORE SWAP4 MLOAD SWAP6 SWAP7 SWAP3 SWAP6 PUSH3 0x10000 SWAP1 SWAP3 DIV SWAP1 SWAP3 AND SWAP4 SWAP2 SWAP3 DUP5 SWAP3 PUSH4 0xE752702 SWAP3 PUSH1 0x24 DUP1 DUP5 ADD SWAP4 DUP3 SWAP1 SUB ADD DUP2 DUP11 DUP8 DUP1 EXTCODESIZE ISZERO DUP1 ISZERO PUSH2 0x4817 JUMPI PUSH1 0x0 DUP1 REVERT JUMPDEST POP GAS CALL ISZERO DUP1 ISZERO PUSH2 0x482B JUMPI RETURNDATASIZE PUSH1 0x0 DUP1 RETURNDATACOPY RETURNDATASIZE PUSH1 0x0 REVERT JUMPDEST POP POP POP POP PUSH1 0x40 MLOAD RETURNDATASIZE PUSH1 0x20 DUP2 LT ISZERO PUSH2 0x4841 JUMPI PUSH1 0x0 DUP1 REVERT JUMPDEST POP MLOAD ISZERO PUSH2 0x4881 JUMPI PUSH1 0x40 DUP1 MLOAD PUSH3 0x461BCD PUSH1 0xE5 SHL DUP2 MSTORE PUSH1 0x20 PUSH1 0x4 DUP3 ADD MSTORE PUSH1 0x9 PUSH1 0x24 DUP3 ADD MSTORE PUSH9 0x626164207265706179 PUSH1 0xB8 SHL PUSH1 0x44 DUP3 ADD MSTORE SWAP1 MLOAD SWAP1 DUP2 SWAP1 SUB PUSH1 0x64 ADD SWAP1 REVERT JUMPDEST PUSH1 0x0 DUP3 PUSH1 0x1 PUSH1 0x1 PUSH1 0xA0 SHL SUB AND PUSH4 0x95DD9193 ADDRESS PUSH1 0x40 MLOAD DUP3 PUSH4 0xFFFFFFFF AND PUSH1 0xE0 SHL DUP2 MSTORE PUSH1 0x4 ADD DUP1 DUP3 PUSH1 0x1 PUSH1 0x1 PUSH1 0xA0 SHL SUB AND DUP2 MSTORE PUSH1 0x20 ADD SWAP2 POP POP PUSH1 0x20 PUSH1 0x40 MLOAD DUP1 DUP4 SUB DUP2 DUP7 DUP1 EXTCODESIZE ISZERO DUP1 ISZERO PUSH2 0x48D0 JUMPI PUSH1 0x0 DUP1 REVERT JUMPDEST POP GAS STATICCALL ISZERO DUP1 ISZERO PUSH2 0x48E4 JUMPI RETURNDATASIZE PUSH1 0x0 DUP1 RETURNDATACOPY RETURNDATASIZE PUSH1 0x0 REVERT JUMPDEST POP POP POP POP PUSH1 0x40 MLOAD RETURNDATASIZE PUSH1 0x20 DUP2 LT ISZERO PUSH2 0x48FA JUMPI PUSH1 0x0 DUP1 REVERT JUMPDEST POP MLOAD PUSH1 0x2 DUP6 ADD DUP2 SWAP1 SSTORE SWAP1 POP PUSH2 0x490F DUP3 DUP3 PUSH2 0x3C7D JUMP JUMPDEST SWAP8 SWAP7 POP POP POP POP POP POP POP JUMP JUMPDEST EXTCODESIZE ISZERO ISZERO SWAP1 JUMP JUMPDEST PUSH1 0x60 PUSH2 0x492F DUP5 DUP5 PUSH1 0x0 DUP6 PUSH2 0x4937 JUMP JUMPDEST SWAP5 SWAP4 POP POP POP POP JUMP JUMPDEST PUSH1 0x60 DUP3 SELFBALANCE LT ISZERO PUSH2 0x4978 JUMPI PUSH1 0x40 MLOAD PUSH3 0x461BCD PUSH1 0xE5 SHL DUP2 MSTORE PUSH1 0x4 ADD DUP1 DUP1 PUSH1 0x20 ADD DUP3 DUP2 SUB DUP3 MSTORE PUSH1 0x26 DUP2 MSTORE PUSH1 0x20 ADD DUP1 PUSH2 0x4D1E PUSH1 0x26 SWAP2 CODECOPY PUSH1 0x40 ADD SWAP2 POP POP PUSH1 0x40 MLOAD DUP1 SWAP2 SUB SWAP1 REVERT JUMPDEST PUSH2 0x4981 DUP6 PUSH2 0x491A JUMP JUMPDEST PUSH2 0x49D2 JUMPI PUSH1 0x40 DUP1 MLOAD PUSH3 0x461BCD PUSH1 0xE5 SHL DUP2 MSTORE PUSH1 0x20 PUSH1 0x4 DUP3 ADD MSTORE PUSH1 0x1D PUSH1 0x24 DUP3 ADD MSTORE PUSH32 0x416464726573733A2063616C6C20746F206E6F6E2D636F6E7472616374000000 PUSH1 0x44 DUP3 ADD MSTORE SWAP1 MLOAD SWAP1 DUP2 SWAP1 SUB PUSH1 0x64 ADD SWAP1 REVERT JUMPDEST PUSH1 0x0 PUSH1 0x60 DUP7 PUSH1 0x1 PUSH1 0x1 PUSH1 0xA0 SHL SUB AND DUP6 DUP8 PUSH1 0x40 MLOAD DUP1 DUP3 DUP1 MLOAD SWAP1 PUSH1 0x20 ADD SWAP1 DUP1 DUP4 DUP4 JUMPDEST PUSH1 0x20 DUP4 LT PUSH2 0x4A11 JUMPI DUP1 MLOAD DUP3 MSTORE PUSH1 0x1F NOT SWAP1 SWAP3 ADD SWAP2 PUSH1 0x20 SWAP2 DUP3 ADD SWAP2 ADD PUSH2 0x49F2 JUMP JUMPDEST PUSH1 0x1 DUP4 PUSH1 0x20 SUB PUSH2 0x100 EXP SUB DUP1 NOT DUP3 MLOAD AND DUP2 DUP5 MLOAD AND DUP1 DUP3 OR DUP6 MSTORE POP POP POP POP POP POP SWAP1 POP ADD SWAP2 POP POP PUSH1 0x0 PUSH1 0x40 MLOAD DUP1 DUP4 SUB DUP2 DUP6 DUP8 GAS CALL SWAP3 POP POP POP RETURNDATASIZE DUP1 PUSH1 0x0 DUP2 EQ PUSH2 0x4A73 JUMPI PUSH1 0x40 MLOAD SWAP2 POP PUSH1 0x1F NOT PUSH1 0x3F RETURNDATASIZE ADD AND DUP3 ADD PUSH1 0x40 MSTORE RETURNDATASIZE DUP3 MSTORE RETURNDATASIZE PUSH1 0x0 PUSH1 0x20 DUP5 ADD RETURNDATACOPY PUSH2 0x4A78 JUMP JUMPDEST PUSH1 0x60 SWAP2 POP JUMPDEST POP SWAP2 POP SWAP2 POP PUSH2 0x490F DUP3 DUP3 DUP7 PUSH1 0x60 DUP4 ISZERO PUSH2 0x4A92 JUMPI POP DUP2 PUSH2 0x4019 JUMP JUMPDEST DUP3 MLOAD ISZERO PUSH2 0x4AA2 JUMPI DUP3 MLOAD DUP1 DUP5 PUSH1 0x20 ADD REVERT JUMPDEST DUP2 PUSH1 0x40 MLOAD PUSH3 0x461BCD PUSH1 0xE5 SHL DUP2 MSTORE PUSH1 0x4 ADD DUP1 DUP1 PUSH1 0x20 ADD DUP3 DUP2 SUB DUP3 MSTORE DUP4 DUP2 DUP2 MLOAD DUP2 MSTORE PUSH1 0x20 ADD SWAP2 POP DUP1 MLOAD SWAP1 PUSH1 0x20 ADD SWAP1 DUP1 DUP4 DUP4 PUSH1 0x0 JUMPDEST DUP4 DUP2 LT ISZERO PUSH2 0x4AEC JUMPI DUP2 DUP2 ADD MLOAD DUP4 DUP3 ADD MSTORE PUSH1 0x20 ADD PUSH2 0x4AD4 JUMP JUMPDEST POP POP POP POP SWAP1 POP SWAP1 DUP2 ADD SWAP1 PUSH1 0x1F AND DUP1 ISZERO PUSH2 0x4B19 JUMPI DUP1 DUP3 SUB DUP1 MLOAD PUSH1 0x1 DUP4 PUSH1 0x20 SUB PUSH2 0x100 EXP SUB NOT AND DUP2 MSTORE PUSH1 0x20 ADD SWAP2 POP JUMPDEST POP SWAP3 POP POP POP PUSH1 0x40 MLOAD DUP1 SWAP2 SUB SWAP1 REVERT JUMPDEST PUSH2 0x1C0 DUP1 PUSH2 0x4B35 DUP4 CODECOPY ADD SWAP1 JUMP INVALID PUSH1 0x80 PUSH1 0x40 MSTORE CALLVALUE DUP1 ISZERO PUSH2 0x10 JUMPI PUSH1 0x0 DUP1 REVERT JUMPDEST POP PUSH2 0x1A0 DUP1 PUSH2 0x20 PUSH1 0x0 CODECOPY PUSH1 0x0 RETURN INVALID PUSH1 0x80 PUSH1 0x40 MSTORE PUSH1 0x4 CALLDATASIZE LT PUSH2 0x1E JUMPI PUSH1 0x0 CALLDATALOAD PUSH1 0xE0 SHR DUP1 PUSH4 0xBE2A1F79 EQ PUSH2 0x23 JUMPI JUMPDEST PUSH1 0x0 DUP1 REVERT JUMPDEST PUSH2 0xA3 PUSH1 0x4 DUP1 CALLDATASIZE SUB PUSH1 0x40 DUP2 LT ISZERO PUSH2 0x39 JUMPI PUSH1 0x0 DUP1 REVERT JUMPDEST PUSH1 0x1 PUSH1 0x1 PUSH1 0xA0 SHL SUB DUP3 CALLDATALOAD AND SWAP2 SWAP1 DUP2 ADD SWAP1 PUSH1 0x40 DUP2 ADD PUSH1 0x20 DUP3 ADD CALLDATALOAD PUSH5 0x100000000 DUP2 GT ISZERO PUSH2 0x64 JUMPI PUSH1 0x0 DUP1 REVERT JUMPDEST DUP3 ADD DUP4 PUSH1 0x20 DUP3 ADD GT ISZERO PUSH2 0x76 JUMPI PUSH1 0x0 DUP1 REVERT JUMPDEST DUP1 CALLDATALOAD SWAP1 PUSH1 0x20 ADD SWAP2 DUP5 PUSH1 0x1 DUP4 MUL DUP5 ADD GT PUSH5 0x100000000 DUP4 GT OR ISZERO PUSH2 0x98 JUMPI PUSH1 0x0 DUP1 REVERT JUMPDEST POP SWAP1 SWAP3 POP SWAP1 POP PUSH2 0xA5 JUMP JUMPDEST STOP JUMPDEST PUSH1 0x0 PUSH1 0x60 DUP5 PUSH1 0x1 PUSH1 0x1 PUSH1 0xA0 SHL SUB AND CALLVALUE DUP6 DUP6 PUSH1 0x40 MLOAD DUP1 DUP4 DUP4 DUP1 DUP3 DUP5 CALLDATACOPY PUSH1 0x40 MLOAD SWAP3 ADD SWAP5 POP PUSH1 0x0 SWAP4 POP SWAP1 SWAP2 POP POP DUP1 DUP4 SUB DUP2 DUP6 DUP8 GAS CALL SWAP3 POP POP POP RETURNDATASIZE DUP1 PUSH1 0x0 DUP2 EQ PUSH2 0x107 JUMPI PUSH1 0x40 MLOAD SWAP2 POP PUSH1 0x1F NOT PUSH1 0x3F RETURNDATASIZE ADD AND DUP3 ADD PUSH1 0x40 MSTORE RETURNDATASIZE DUP3 MSTORE RETURNDATASIZE PUSH1 0x0 PUSH1 0x20 DUP5 ADD RETURNDATACOPY PUSH2 0x10C JUMP JUMPDEST PUSH1 0x60 SWAP2 POP JUMPDEST POP SWAP2 POP SWAP2 POP DUP2 PUSH2 0x163 JUMPI DUP1 MLOAD ISZERO PUSH2 0x126 JUMPI DUP1 MLOAD DUP1 DUP3 PUSH1 0x20 ADD REVERT JUMPDEST PUSH1 0x40 DUP1 MLOAD PUSH3 0x461BCD PUSH1 0xE5 SHL DUP2 MSTORE PUSH1 0x20 PUSH1 0x4 DUP3 ADD MSTORE PUSH1 0xD PUSH1 0x24 DUP3 ADD MSTORE PUSH13 0x1898590818D85CDD0818D85B1B PUSH1 0x9A SHL PUSH1 0x44 DUP3 ADD MSTORE SWAP1 MLOAD SWAP1 DUP2 SWAP1 SUB PUSH1 0x64 ADD SWAP1 REVERT JUMPDEST POP POP POP POP POP JUMP INVALID LOG2 PUSH5 0x6970667358 0x22 SLT KECCAK256 PUSH26 0xF809D2D63483ACCE6BE7B71EFB4A6866506A8500550B9956C7F5 0x5D SWAP6 0xD5 0xBD EXTCODEHASH PUSH5 0x736F6C6343 STOP MOD 0xC STOP CALLER PUSH2 0x6E6F PUSH21 0x6865722074797065206F6620636F6C6C6174657261 PUSH13 0x20616C72656164792065786973 PUSH21 0x73416464726573733A20696E73756666696369656E PUSH21 0x2062616C616E636520666F722063616C6C496E6974 PUSH10 0x616C697A61626C653A20 PUSH4 0x6F6E7472 PUSH2 0x6374 KECCAK256 PUSH10 0x7320616C726561647920 PUSH10 0x6E697469616C697A6564 MSTORE8 PUSH2 0x6665 0x4D PUSH2 0x7468 GASPRICE KECCAK256 PUSH14 0x756C7469706C69636174696F6E20 PUSH16 0x766572666C6F77757365727320262073 PUSH21 0x617475736573206C656E677468206D69736D617463 PUSH9 0x65647370656C6C7320 0x26 KECCAK256 PUSH20 0x74617475736573206C656E677468206D69736D61 PUSH21 0x63686564746F6B656E732026207374617475736573 KECCAK256 PUSH13 0x656E677468206D69736D617463 PUSH9 0x656453616665455243 ORIGIN ADDRESS GASPRICE KECCAK256 GASLIMIT MSTORE NUMBER ORIGIN ADDRESS KECCAK256 PUSH16 0x7065726174696F6E20646964206E6F74 KECCAK256 PUSH20 0x7563636565645361666545524332303A20617070 PUSH19 0x6F76652066726F6D206E6F6E2D7A65726F2074 PUSH16 0x206E6F6E2D7A65726F20616C6C6F7761 PUSH15 0x6365A2646970667358221220BABFA4 0xED SWAP10 SIGNEXTEND GAS RETURN PUSH28 0xF285A2E899BD68E7570336C8CD6F8B03829D4034D9EA4664736F6C63 NUMBER STOP MOD 0xC STOP CALLER ",
  "sha1": "d863499d14bfcec565ee5cc18aebf1acf8dfb8b9",
  "source": "// SPDX-License-Identifier: MIT\n\npragma solidity 0.6.12;\n\nimport 'OpenZeppelin/openzeppelin-contracts@3.4.0/contracts/token/ERC20/IERC20.sol';\nimport 'OpenZeppelin/openzeppelin-contracts@3.4.0/contracts/token/ERC20/SafeERC20.sol';\nimport 'OpenZeppelin/openzeppelin-contracts@3.4.0/contracts/token/ERC1155/IERC1155.sol';\nimport 'OpenZeppelin/openzeppelin-contracts@3.4.0/contracts/math/SafeMath.sol';\nimport 'OpenZeppelin/openzeppelin-contracts@3.4.0/contracts/math/Math.sol';\n\nimport './Governable.sol';\nimport './utils/ERC1155NaiveReceiver.sol';\nimport '../interfaces/IBank.sol';\nimport '../interfaces/ICErc20.sol';\nimport '../interfaces/IOracle.sol';\n\nlibrary HomoraSafeMath {\n  using SafeMath for uint;\n\n  /// @dev Computes round-up division.\n  function ceilDiv(uint a, uint b) internal pure returns (uint) {\n    return a.add(b).sub(1).div(b);\n  }\n}\n\ncontract HomoraCaster {\n  /// @dev Call to the target using the given data.\n  /// @param target The address target to call.\n  /// @param data The data used in the call.\n  function cast(address target, bytes calldata data) external payable {\n    (bool ok, bytes memory returndata) = target.call{value: msg.value}(data);\n    if (!ok) {\n      if (returndata.length > 0) {\n        // The easiest way to bubble the revert reason is using memory via assembly\n        // solhint-disable-next-line no-inline-assembly\n        assembly {\n          let returndata_size := mload(returndata)\n          revert(add(32, returndata), returndata_size)\n        }\n      } else {\n        revert('bad cast call');\n      }\n    }\n  }\n}\n\ncontract HomoraBank is Governable, ERC1155NaiveReceiver, IBank {\n  using SafeMath for uint;\n  using HomoraSafeMath for uint;\n  using SafeERC20 for IERC20;\n\n  uint private constant _NOT_ENTERED = 1;\n  uint private constant _ENTERED = 2;\n  uint private constant _NO_ID = uint(-1);\n  address private constant _NO_ADDRESS = address(1);\n\n  struct Bank {\n    bool isListed; // Whether this market exists.\n    uint8 index; // Reverse look up index for this bank.\n    address cToken; // The CToken to draw liquidity from.\n    uint reserve; // The reserve portion allocated to Homora protocol.\n    uint totalDebt; // The last recorded total debt since last action.\n    uint totalShare; // The total debt share count across all open positions.\n  }\n\n  struct Position {\n    address owner; // The owner of this position.\n    address collToken; // The ERC1155 token used as collateral for this position.\n    uint collId; // The token id used as collateral.\n    uint collateralSize; // The size of collateral token for this position.\n    uint debtMap; // Bitmap of nonzero debt. i^th bit is set iff debt share of i^th bank is nonzero.\n    mapping(address => uint) debtShareOf; // The debt share for each token.\n  }\n\n  uint public _GENERAL_LOCK; // TEMPORARY: re-entrancy lock guard.\n  uint public _IN_EXEC_LOCK; // TEMPORARY: exec lock guard.\n  uint public override POSITION_ID; // TEMPORARY: position ID currently under execution.\n  address public override SPELL; // TEMPORARY: spell currently under execution.\n\n  address public caster; // The caster address for untrusted execution.\n  IOracle public oracle; // The oracle address for determining prices.\n  uint public feeBps; // The fee collected as protocol reserve in basis points from interest.\n  uint public override nextPositionId; // Next available position ID, starting from 1 (see initialize).\n\n  address[] public allBanks; // The list of all listed banks.\n  mapping(address => Bank) public banks; // Mapping from token to bank data.\n  mapping(address => bool) public cTokenInBank; // Mapping from cToken to its existence in bank.\n  mapping(uint => Position) public positions; // Mapping from position ID to position data.\n\n  bool public allowContractCalls; // The boolean status whether to allow call from contract (false = onlyEOA)\n  mapping(address => bool) public whitelistedTokens; // Mapping from token to whitelist status\n  mapping(address => bool) public whitelistedSpells; // Mapping from spell to whitelist status\n  mapping(address => bool) public whitelistedUsers; // Mapping from user to whitelist status\n\n  uint public bankStatus; // Each bit stores certain bank status, e.g. borrow allowed, repay allowed\n\n  /// @dev Ensure that the function is called from EOA when allowContractCalls is set to false and caller is not whitelisted\n  modifier onlyEOAEx() {\n    if (!allowContractCalls && !whitelistedUsers[msg.sender]) {\n      require(msg.sender == tx.origin, 'not eoa');\n    }\n    _;\n  }\n\n  /// @dev Reentrancy lock guard.\n  modifier lock() {\n    require(_GENERAL_LOCK == _NOT_ENTERED, 'general lock');\n    _GENERAL_LOCK = _ENTERED;\n    _;\n    _GENERAL_LOCK = _NOT_ENTERED;\n  }\n\n  /// @dev Ensure that the function is called from within the execution scope.\n  modifier inExec() {\n    require(POSITION_ID != _NO_ID, 'not within execution');\n    require(SPELL == msg.sender, 'not from spell');\n    require(_IN_EXEC_LOCK == _NOT_ENTERED, 'in exec lock');\n    _IN_EXEC_LOCK = _ENTERED;\n    _;\n    _IN_EXEC_LOCK = _NOT_ENTERED;\n  }\n\n  /// @dev Ensure that the interest rate of the given token is accrued.\n  modifier poke(address token) {\n    accrue(token);\n    _;\n  }\n\n  /// @dev Initialize the bank smart contract, using msg.sender as the first governor.\n  /// @param _oracle The oracle smart contract address.\n  /// @param _feeBps The fee collected to Homora bank.\n  function initialize(IOracle _oracle, uint _feeBps) external initializer {\n    __Governable__init();\n    _GENERAL_LOCK = _NOT_ENTERED;\n    _IN_EXEC_LOCK = _NOT_ENTERED;\n    POSITION_ID = _NO_ID;\n    SPELL = _NO_ADDRESS;\n    caster = address(new HomoraCaster());\n    oracle = _oracle;\n    require(address(_oracle) != address(0), 'bad oracle address');\n    feeBps = _feeBps;\n    nextPositionId = 1;\n    bankStatus = 3; // allow both borrow and repay\n    emit SetOracle(address(_oracle));\n    emit SetFeeBps(_feeBps);\n  }\n\n  /// @dev Return the current executor (the owner of the current position).\n  function EXECUTOR() external view override returns (address) {\n    uint positionId = POSITION_ID;\n    require(positionId != _NO_ID, 'not under execution');\n    return positions[positionId].owner;\n  }\n\n  /// @dev Set allowContractCalls\n  /// @param ok The status to set allowContractCalls to (false = onlyEOA)\n  function setAllowContractCalls(bool ok) external onlyGov {\n    allowContractCalls = ok;\n  }\n\n  /// @dev Set whitelist spell status\n  /// @param spells list of spells to change status\n  /// @param statuses list of statuses to change to\n  function setWhitelistSpells(address[] calldata spells, bool[] calldata statuses)\n    external\n    onlyGov\n  {\n    require(spells.length == statuses.length, 'spells & statuses length mismatched');\n    for (uint idx = 0; idx < spells.length; idx++) {\n      whitelistedSpells[spells[idx]] = statuses[idx];\n    }\n  }\n\n  /// @dev Set whitelist token status\n  /// @param tokens list of tokens to change status\n  /// @param statuses list of statuses to change to\n  function setWhitelistTokens(address[] calldata tokens, bool[] calldata statuses)\n    external\n    onlyGov\n  {\n    require(tokens.length == statuses.length, 'tokens & statuses length mismatched');\n    for (uint idx = 0; idx < tokens.length; idx++) {\n      if (statuses[idx]) {\n        // check oracle suppport\n        require(support(tokens[idx]), 'oracle not support token');\n      }\n      whitelistedTokens[tokens[idx]] = statuses[idx];\n    }\n  }\n\n  /// @dev Set whitelist user status\n  /// @param users list of users to change status\n  /// @param statuses list of statuses to change to\n  function setWhitelistUsers(address[] calldata users, bool[] calldata statuses) external onlyGov {\n    require(users.length == statuses.length, 'users & statuses length mismatched');\n    for (uint idx = 0; idx < users.length; idx++) {\n      whitelistedUsers[users[idx]] = statuses[idx];\n    }\n  }\n\n  /// @dev Check whether the oracle supports the token\n  /// @param token ERC-20 token to check for support\n  function support(address token) public view override returns (bool) {\n    return oracle.support(token);\n  }\n\n  /// @dev Set bank status\n  /// @param _bankStatus new bank status to change to\n  function setBankStatus(uint _bankStatus) external onlyGov {\n    bankStatus = _bankStatus;\n  }\n\n  /// @dev Bank borrow status allowed or not\n  /// @notice check last bit of bankStatus\n  function allowBorrowStatus() public view returns (bool) {\n    return (bankStatus & 0x01) > 0;\n  }\n\n  /// @dev Bank repay status allowed or not\n  /// @notice Check second-to-last bit of bankStatus\n  function allowRepayStatus() public view returns (bool) {\n    return (bankStatus & 0x02) > 0;\n  }\n\n  /// @dev Trigger interest accrual for the given bank.\n  /// @param token The underlying token to trigger the interest accrual.\n  function accrue(address token) public override {\n    Bank storage bank = banks[token];\n    require(bank.isListed, 'bank not exist');\n    uint totalDebt = bank.totalDebt;\n    uint debt = ICErc20(bank.cToken).borrowBalanceCurrent(address(this));\n    if (debt > totalDebt) {\n      uint fee = debt.sub(totalDebt).mul(feeBps).div(10000);\n      bank.totalDebt = debt;\n      bank.reserve = bank.reserve.add(doBorrow(token, fee));\n    } else if (totalDebt != debt) {\n      // We should never reach here because CREAMv2 does not support *repayBorrowBehalf*\n      // functionality. We set bank.totalDebt = debt nonetheless to ensure consistency. But do\n      // note that if *repayBorrowBehalf* exists, an attacker can maliciously deflate debt\n      // share value and potentially make this contract stop working due to math overflow.\n      bank.totalDebt = debt;\n    }\n  }\n\n  /// @dev Convenient function to trigger interest accrual for a list of banks.\n  /// @param tokens The list of banks to trigger interest accrual.\n  function accrueAll(address[] memory tokens) external {\n    for (uint idx = 0; idx < tokens.length; idx++) {\n      accrue(tokens[idx]);\n    }\n  }\n\n  /// @dev Return the borrow balance for given position and token without triggering interest accrual.\n  /// @param positionId The position to query for borrow balance.\n  /// @param token The token to query for borrow balance.\n  function borrowBalanceStored(uint positionId, address token) public view override returns (uint) {\n    uint totalDebt = banks[token].totalDebt;\n    uint totalShare = banks[token].totalShare;\n    uint share = positions[positionId].debtShareOf[token];\n    if (share == 0 || totalDebt == 0) {\n      return 0;\n    } else {\n      return share.mul(totalDebt).ceilDiv(totalShare);\n    }\n  }\n\n  /// @dev Trigger interest accrual and return the current borrow balance.\n  /// @param positionId The position to query for borrow balance.\n  /// @param token The token to query for borrow balance.\n  function borrowBalanceCurrent(uint positionId, address token) external override returns (uint) {\n    accrue(token);\n    return borrowBalanceStored(positionId, token);\n  }\n\n  /// @dev Return bank information for the given token.\n  /// @param token The token address to query for bank information.\n  function getBankInfo(address token)\n    external\n    view\n    override\n    returns (\n      bool isListed,\n      address cToken,\n      uint reserve,\n      uint totalDebt,\n      uint totalShare\n    )\n  {\n    Bank storage bank = banks[token];\n    return (bank.isListed, bank.cToken, bank.reserve, bank.totalDebt, bank.totalShare);\n  }\n\n  /// @dev Return position information for the given position id.\n  /// @param positionId The position id to query for position information.\n  function getPositionInfo(uint positionId)\n    public\n    view\n    override\n    returns (\n      address owner,\n      address collToken,\n      uint collId,\n      uint collateralSize\n    )\n  {\n    Position storage pos = positions[positionId];\n    return (pos.owner, pos.collToken, pos.collId, pos.collateralSize);\n  }\n\n  /// @dev Return current position information\n  function getCurrentPositionInfo()\n    external\n    view\n    override\n    returns (\n      address owner,\n      address collToken,\n      uint collId,\n      uint collateralSize\n    )\n  {\n    require(POSITION_ID != _NO_ID, 'no id');\n    return getPositionInfo(POSITION_ID);\n  }\n\n  /// @dev Return the debt share of the given bank token for the given position id.\n  /// @param positionId position id to get debt of\n  /// @param token ERC20 debt token to query\n  function getPositionDebtShareOf(uint positionId, address token) external view returns (uint) {\n    return positions[positionId].debtShareOf[token];\n  }\n\n  /// @dev Return the list of all debts for the given position id.\n  /// @param positionId position id to get debts of\n  function getPositionDebts(uint positionId)\n    external\n    view\n    returns (address[] memory tokens, uint[] memory debts)\n  {\n    Position storage pos = positions[positionId];\n    uint count = 0;\n    uint bitMap = pos.debtMap;\n    while (bitMap > 0) {\n      if ((bitMap & 1) != 0) {\n        count++;\n      }\n      bitMap >>= 1;\n    }\n    tokens = new address[](count);\n    debts = new uint[](count);\n    bitMap = pos.debtMap;\n    count = 0;\n    uint idx = 0;\n    while (bitMap > 0) {\n      if ((bitMap & 1) != 0) {\n        address token = allBanks[idx];\n        Bank storage bank = banks[token];\n        tokens[count] = token;\n        debts[count] = pos.debtShareOf[token].mul(bank.totalDebt).ceilDiv(bank.totalShare);\n        count++;\n      }\n      idx++;\n      bitMap >>= 1;\n    }\n  }\n\n  /// @dev Return the total collateral value of the given position in CELO.\n  /// @param positionId The position ID to query for the collateral value.\n  function getCollateralCELOValue(uint positionId) public view returns (uint) {\n    Position storage pos = positions[positionId];\n    uint size = pos.collateralSize;\n    if (size == 0) {\n      return 0;\n    } else {\n      require(pos.collToken != address(0), 'bad collateral token');\n      return oracle.asCELOCollateral(pos.collToken, pos.collId, size, pos.owner);\n    }\n  }\n\n  /// @dev Return the total borrow value of the given position in CELO.\n  /// @param positionId The position ID to query for the borrow value.\n  function getBorrowCELOValue(uint positionId) public view override returns (uint) {\n    uint value = 0;\n    Position storage pos = positions[positionId];\n    address owner = pos.owner;\n    uint bitMap = pos.debtMap;\n    uint idx = 0;\n    while (bitMap > 0) {\n      if ((bitMap & 1) != 0) {\n        address token = allBanks[idx];\n        uint share = pos.debtShareOf[token];\n        Bank storage bank = banks[token];\n        uint debt = share.mul(bank.totalDebt).ceilDiv(bank.totalShare);\n        value = value.add(oracle.asCELOBorrow(token, debt, owner));\n      }\n      idx++;\n      bitMap >>= 1;\n    }\n    return value;\n  }\n\n  /// @dev Add a new bank to the ecosystem.\n  /// @param token The underlying token for the bank.\n  /// @param cToken The address of the cToken smart contract.\n  function addBank(address token, address cToken) external onlyGov {\n    Bank storage bank = banks[token];\n    require(!cTokenInBank[cToken], 'cToken already exists');\n    require(!bank.isListed, 'bank already exists');\n    cTokenInBank[cToken] = true;\n    bank.isListed = true;\n    require(allBanks.length < 256, 'reach bank limit');\n    bank.index = uint8(allBanks.length);\n    bank.cToken = cToken;\n    IERC20(token).safeApprove(cToken, 0);\n    IERC20(token).safeApprove(cToken, uint(-1));\n    allBanks.push(token);\n    emit AddBank(token, cToken);\n  }\n\n  /// @dev Set the oracle smart contract address.\n  /// @param _oracle The new oracle smart contract address.\n  function setOracle(IOracle _oracle) external onlyGov {\n    require(address(_oracle) != address(0), 'cannot set zero address oracle');\n    oracle = _oracle;\n    emit SetOracle(address(_oracle));\n  }\n\n  /// @dev Set the fee bps value that Homora bank charges.\n  /// @param _feeBps The new fee bps value.\n  function setFeeBps(uint _feeBps) external onlyGov {\n    require(_feeBps <= 10000, 'fee too high');\n    feeBps = _feeBps;\n    emit SetFeeBps(_feeBps);\n  }\n\n  /// @dev Withdraw the reserve portion of the bank.\n  /// @param amount The amount of tokens to withdraw.\n  function withdrawReserve(address token, uint amount) external onlyGov lock {\n    Bank storage bank = banks[token];\n    require(bank.isListed, 'bank not exist');\n    bank.reserve = bank.reserve.sub(amount);\n    IERC20(token).safeTransfer(msg.sender, amount);\n    emit WithdrawReserve(msg.sender, token, amount);\n  }\n\n  /// @dev Liquidate a position. Pay debt for its owner and take the collateral.\n  /// @param positionId The position ID to liquidate.\n  /// @param debtToken The debt token to repay.\n  /// @param amountCall The amount to repay when doing transferFrom call.\n  function liquidate(\n    uint positionId,\n    address debtToken,\n    uint amountCall\n  ) external override lock poke(debtToken) {\n    uint collateralValue = getCollateralCELOValue(positionId);\n    uint borrowValue = getBorrowCELOValue(positionId);\n    require(collateralValue < borrowValue, 'position still healthy');\n    Position storage pos = positions[positionId];\n    (uint amountPaid, uint share) = repayInternal(positionId, debtToken, amountCall);\n    require(pos.collToken != address(0), 'bad collateral token');\n    uint bounty =\n      Math.min(\n        oracle.convertForLiquidation(debtToken, pos.collToken, pos.collId, amountPaid),\n        pos.collateralSize\n      );\n    pos.collateralSize = pos.collateralSize.sub(bounty);\n    IERC1155(pos.collToken).safeTransferFrom(address(this), msg.sender, pos.collId, bounty, '');\n    emit Liquidate(positionId, msg.sender, debtToken, amountPaid, share, bounty);\n  }\n\n  /// @dev Execute the action via HomoraCaster, calling its function with the supplied data.\n  /// @param positionId The position ID to execute the action, or zero for new position.\n  /// @param spell The target spell to invoke the execution via HomoraCaster.\n  /// @param data Extra data to pass to the target for the execution.\n  function execute(\n    uint positionId,\n    address spell,\n    bytes memory data\n  ) external payable lock onlyEOAEx returns (uint) {\n    require(whitelistedSpells[spell], 'spell not whitelisted');\n    if (positionId == 0) {\n      positionId = nextPositionId++;\n      positions[positionId].owner = msg.sender;\n    } else {\n      require(positionId < nextPositionId, 'position id not exists');\n      require(msg.sender == positions[positionId].owner, 'not position owner');\n    }\n    POSITION_ID = positionId;\n    SPELL = spell;\n    HomoraCaster(caster).cast{value: msg.value}(spell, data);\n    uint collateralValue = getCollateralCELOValue(positionId);\n    uint borrowValue = getBorrowCELOValue(positionId);\n    require(collateralValue >= borrowValue, 'insufficient collateral');\n    POSITION_ID = _NO_ID;\n    SPELL = _NO_ADDRESS;\n    return positionId;\n  }\n\n  /// @dev Borrow tokens from that bank. Must only be called while under execution.\n  /// @param token The token to borrow from the bank.\n  /// @param amount The amount of tokens to borrow.\n  function borrow(address token, uint amount) external override inExec poke(token) {\n    require(allowBorrowStatus(), 'borrow not allowed');\n    require(whitelistedTokens[token], 'token not whitelisted');\n    Bank storage bank = banks[token];\n    Position storage pos = positions[POSITION_ID];\n    uint totalShare = bank.totalShare;\n    uint totalDebt = bank.totalDebt;\n    uint share = totalShare == 0 ? amount : amount.mul(totalShare).ceilDiv(totalDebt);\n    bank.totalShare = bank.totalShare.add(share);\n    uint newShare = pos.debtShareOf[token].add(share);\n    pos.debtShareOf[token] = newShare;\n    if (newShare > 0) {\n      pos.debtMap |= (1 << uint(bank.index));\n    }\n    IERC20(token).safeTransfer(msg.sender, doBorrow(token, amount));\n    emit Borrow(POSITION_ID, msg.sender, token, amount, share);\n  }\n\n  /// @dev Repay tokens to the bank. Must only be called while under execution.\n  /// @param token The token to repay to the bank.\n  /// @param amountCall The amount of tokens to repay via transferFrom.\n  function repay(address token, uint amountCall) external override inExec poke(token) {\n    require(allowRepayStatus(), 'repay not allowed');\n    require(whitelistedTokens[token], 'token not whitelisted');\n    (uint amount, uint share) = repayInternal(POSITION_ID, token, amountCall);\n    emit Repay(POSITION_ID, msg.sender, token, amount, share);\n  }\n\n  /// @dev Perform repay action. Return the amount actually taken and the debt share reduced.\n  /// @param positionId The position ID to repay the debt.\n  /// @param token The bank token to pay the debt.\n  /// @param amountCall The amount to repay by calling transferFrom, or -1 for debt size.\n  function repayInternal(\n    uint positionId,\n    address token,\n    uint amountCall\n  ) internal returns (uint, uint) {\n    Bank storage bank = banks[token];\n    Position storage pos = positions[positionId];\n    uint totalShare = bank.totalShare;\n    uint totalDebt = bank.totalDebt;\n    uint oldShare = pos.debtShareOf[token];\n    uint oldDebt = oldShare.mul(totalDebt).ceilDiv(totalShare);\n    if (amountCall == uint(-1)) {\n      amountCall = oldDebt;\n    }\n    uint paid = doRepay(token, doERC20TransferIn(token, amountCall));\n    require(paid <= oldDebt, 'paid exceeds debt'); // prevent share overflow attack\n    uint lessShare = paid == oldDebt ? oldShare : paid.mul(totalShare).div(totalDebt);\n    bank.totalShare = totalShare.sub(lessShare);\n    uint newShare = oldShare.sub(lessShare);\n    pos.debtShareOf[token] = newShare;\n    if (newShare == 0) {\n      pos.debtMap &= ~(1 << uint(bank.index));\n    }\n    return (paid, lessShare);\n  }\n\n  /// @dev Transmit user assets to the caller, so users only need to approve Bank for spending.\n  /// @param token The token to transfer from user to the caller.\n  /// @param amount The amount to transfer.\n  function transmit(address token, uint amount) external override inExec {\n    Position storage pos = positions[POSITION_ID];\n    IERC20(token).safeTransferFrom(pos.owner, msg.sender, amount);\n  }\n\n  /// @dev Put more collateral for users. Must only be called during execution.\n  /// @param collToken The ERC1155 token to collateral.\n  /// @param collId The token id to collateral.\n  /// @param amountCall The amount of tokens to put via transferFrom.\n  function putCollateral(\n    address collToken,\n    uint collId,\n    uint amountCall\n  ) external override inExec {\n    Position storage pos = positions[POSITION_ID];\n    if (pos.collToken != collToken || pos.collId != collId) {\n      require(oracle.supportWrappedToken(collToken, collId), 'collateral not supported');\n      require(pos.collateralSize == 0, 'another type of collateral already exists');\n      pos.collToken = collToken;\n      pos.collId = collId;\n    }\n    uint amount = doERC1155TransferIn(collToken, collId, amountCall);\n    pos.collateralSize = pos.collateralSize.add(amount);\n    emit PutCollateral(POSITION_ID, msg.sender, collToken, collId, amount);\n  }\n\n  /// @dev Take some collateral back. Must only be called during execution.\n  /// @param collToken The ERC1155 token to take back.\n  /// @param collId The token id to take back.\n  /// @param amount The amount of tokens to take back via transfer.\n  function takeCollateral(\n    address collToken,\n    uint collId,\n    uint amount\n  ) external override inExec {\n    Position storage pos = positions[POSITION_ID];\n    require(collToken == pos.collToken, 'invalid collateral token');\n    require(collId == pos.collId, 'invalid collateral token');\n    if (amount == uint(-1)) {\n      amount = pos.collateralSize;\n    }\n    pos.collateralSize = pos.collateralSize.sub(amount);\n    IERC1155(collToken).safeTransferFrom(address(this), msg.sender, collId, amount, '');\n    emit TakeCollateral(POSITION_ID, msg.sender, collToken, collId, amount);\n  }\n\n  /// @dev Internal function to perform borrow from the bank and return the amount received.\n  /// @param token The token to perform borrow action.\n  /// @param amountCall The amount use in the transferFrom call.\n  /// NOTE: Caller must ensure that cToken interest was already accrued up to this block.\n  function doBorrow(address token, uint amountCall) internal returns (uint) {\n    Bank storage bank = banks[token]; // assume the input is already sanity checked.\n    uint balanceBefore = IERC20(token).balanceOf(address(this));\n    require(ICErc20(bank.cToken).borrow(amountCall) == 0, 'bad borrow');\n    uint balanceAfter = IERC20(token).balanceOf(address(this));\n    bank.totalDebt = bank.totalDebt.add(amountCall);\n    return balanceAfter.sub(balanceBefore);\n  }\n\n  /// @dev Internal function to perform repay to the bank and return the amount actually repaid.\n  /// @param token The token to perform repay action.\n  /// @param amountCall The amount to use in the repay call.\n  /// NOTE: Caller must ensure that cToken interest was already accrued up to this block.\n  function doRepay(address token, uint amountCall) internal returns (uint) {\n    Bank storage bank = banks[token]; // assume the input is already sanity checked.\n    ICErc20 cToken = ICErc20(bank.cToken);\n    uint oldDebt = bank.totalDebt;\n    require(cToken.repayBorrow(amountCall) == 0, 'bad repay');\n    uint newDebt = cToken.borrowBalanceStored(address(this));\n    bank.totalDebt = newDebt;\n    return oldDebt.sub(newDebt);\n  }\n\n  /// @dev Internal function to perform ERC20 transfer in and return amount actually received.\n  /// @param token The token to perform transferFrom action.\n  /// @param amountCall The amount use in the transferFrom call.\n  function doERC20TransferIn(address token, uint amountCall) internal returns (uint) {\n    uint balanceBefore = IERC20(token).balanceOf(address(this));\n    IERC20(token).safeTransferFrom(msg.sender, address(this), amountCall);\n    uint balanceAfter = IERC20(token).balanceOf(address(this));\n    return balanceAfter.sub(balanceBefore);\n  }\n\n  /// @dev Internal function to perform ERC1155 transfer in and return amount actually received.\n  /// @param token The token to perform transferFrom action.\n  /// @param id The id to perform transferFrom action.\n  /// @param amountCall The amount use in the transferFrom call.\n  function doERC1155TransferIn(\n    address token,\n    uint id,\n    uint amountCall\n  ) internal returns (uint) {\n    uint balanceBefore = IERC1155(token).balanceOf(address(this), id);\n    IERC1155(token).safeTransferFrom(msg.sender, address(this), id, amountCall, '');\n    uint balanceAfter = IERC1155(token).balanceOf(address(this), id);\n    return balanceAfter.sub(balanceBefore);\n  }\n}\n",
  "sourcePath": "contracts/HomoraBank.sol",
  "type": "contract"
}