{
  "abi": [
    {
      "inputs": [
        {
          "internalType": "contract IBaseOracle",
          "name": "_source",
          "type": "address"
        }
      ],
      "stateMutability": "nonpayable",
      "type": "constructor"
    },
    {
      "anonymous": false,
      "inputs": [
        {
          "indexed": false,
          "internalType": "address",
          "name": "governor",
          "type": "address"
        }
      ],
      "name": "AcceptGovernor",
      "type": "event"
    },
    {
      "anonymous": false,
      "inputs": [
        {
          "indexed": false,
          "internalType": "address",
          "name": "governor",
          "type": "address"
        }
      ],
      "name": "SetGovernor",
      "type": "event"
    },
    {
      "anonymous": false,
      "inputs": [
        {
          "indexed": false,
          "internalType": "address",
          "name": "pendingGovernor",
          "type": "address"
        }
      ],
      "name": "SetPendingGovernor",
      "type": "event"
    },
    {
      "anonymous": false,
      "inputs": [
        {
          "indexed": true,
          "internalType": "address",
          "name": "token",
          "type": "address"
        },
        {
          "components": [
            {
              "internalType": "uint16",
              "name": "borrowFactor",
              "type": "uint16"
            },
            {
              "internalType": "uint16",
              "name": "collateralFactor",
              "type": "uint16"
            },
            {
              "internalType": "uint16",
              "name": "liqIncentive",
              "type": "uint16"
            }
          ],
          "indexed": false,
          "internalType": "struct ProxyOracle.TokenFactors",
          "name": "tokenFactor",
          "type": "tuple"
        }
      ],
      "name": "SetTokenFactor",
      "type": "event"
    },
    {
      "anonymous": false,
      "inputs": [
        {
          "indexed": true,
          "internalType": "address",
          "name": "token",
          "type": "address"
        },
        {
          "indexed": false,
          "internalType": "bool",
          "name": "ok",
          "type": "bool"
        }
      ],
      "name": "SetWhitelist",
      "type": "event"
    },
    {
      "anonymous": false,
      "inputs": [
        {
          "indexed": true,
          "internalType": "address",
          "name": "token",
          "type": "address"
        }
      ],
      "name": "UnsetTokenFactor",
      "type": "event"
    },
    {
      "inputs": [],
      "name": "acceptGovernor",
      "outputs": [],
      "stateMutability": "nonpayable",
      "type": "function"
    },
    {
      "inputs": [
        {
          "internalType": "address",
          "name": "token",
          "type": "address"
        },
        {
          "internalType": "uint256",
          "name": "amount",
          "type": "uint256"
        },
        {
          "internalType": "address",
          "name": "owner",
          "type": "address"
        }
      ],
      "name": "asCELOBorrow",
      "outputs": [
        {
          "internalType": "uint256",
          "name": "",
          "type": "uint256"
        }
      ],
      "stateMutability": "view",
      "type": "function"
    },
    {
      "inputs": [
        {
          "internalType": "address",
          "name": "token",
          "type": "address"
        },
        {
          "internalType": "uint256",
          "name": "id",
          "type": "uint256"
        },
        {
          "internalType": "uint256",
          "name": "amount",
          "type": "uint256"
        },
        {
          "internalType": "address",
          "name": "owner",
          "type": "address"
        }
      ],
      "name": "asCELOCollateral",
      "outputs": [
        {
          "internalType": "uint256",
          "name": "",
          "type": "uint256"
        }
      ],
      "stateMutability": "view",
      "type": "function"
    },
    {
      "inputs": [
        {
          "internalType": "address",
          "name": "tokenIn",
          "type": "address"
        },
        {
          "internalType": "address",
          "name": "tokenOut",
          "type": "address"
        },
        {
          "internalType": "uint256",
          "name": "tokenOutId",
          "type": "uint256"
        },
        {
          "internalType": "uint256",
          "name": "amountIn",
          "type": "uint256"
        }
      ],
      "name": "convertForLiquidation",
      "outputs": [
        {
          "internalType": "uint256",
          "name": "",
          "type": "uint256"
        }
      ],
      "stateMutability": "view",
      "type": "function"
    },
    {
      "inputs": [],
      "name": "governor",
      "outputs": [
        {
          "internalType": "address",
          "name": "",
          "type": "address"
        }
      ],
      "stateMutability": "view",
      "type": "function"
    },
    {
      "inputs": [],
      "name": "pendingGovernor",
      "outputs": [
        {
          "internalType": "address",
          "name": "",
          "type": "address"
        }
      ],
      "stateMutability": "view",
      "type": "function"
    },
    {
      "inputs": [
        {
          "internalType": "address",
          "name": "_pendingGovernor",
          "type": "address"
        }
      ],
      "name": "setPendingGovernor",
      "outputs": [],
      "stateMutability": "nonpayable",
      "type": "function"
    },
    {
      "inputs": [
        {
          "internalType": "address[]",
          "name": "tokens",
          "type": "address[]"
        },
        {
          "components": [
            {
              "internalType": "uint16",
              "name": "borrowFactor",
              "type": "uint16"
            },
            {
              "internalType": "uint16",
              "name": "collateralFactor",
              "type": "uint16"
            },
            {
              "internalType": "uint16",
              "name": "liqIncentive",
              "type": "uint16"
            }
          ],
          "internalType": "struct ProxyOracle.TokenFactors[]",
          "name": "_tokenFactors",
          "type": "tuple[]"
        }
      ],
      "name": "setTokenFactors",
      "outputs": [],
      "stateMutability": "nonpayable",
      "type": "function"
    },
    {
      "inputs": [
        {
          "internalType": "address[]",
          "name": "tokens",
          "type": "address[]"
        },
        {
          "internalType": "bool",
          "name": "ok",
          "type": "bool"
        }
      ],
      "name": "setWhitelistERC1155",
      "outputs": [],
      "stateMutability": "nonpayable",
      "type": "function"
    },
    {
      "inputs": [],
      "name": "source",
      "outputs": [
        {
          "internalType": "contract IBaseOracle",
          "name": "",
          "type": "address"
        }
      ],
      "stateMutability": "view",
      "type": "function"
    },
    {
      "inputs": [
        {
          "internalType": "address",
          "name": "token",
          "type": "address"
        }
      ],
      "name": "support",
      "outputs": [
        {
          "internalType": "bool",
          "name": "",
          "type": "bool"
        }
      ],
      "stateMutability": "view",
      "type": "function"
    },
    {
      "inputs": [
        {
          "internalType": "address",
          "name": "token",
          "type": "address"
        },
        {
          "internalType": "uint256",
          "name": "id",
          "type": "uint256"
        }
      ],
      "name": "supportWrappedToken",
      "outputs": [
        {
          "internalType": "bool",
          "name": "",
          "type": "bool"
        }
      ],
      "stateMutability": "view",
      "type": "function"
    },
    {
      "inputs": [
        {
          "internalType": "address",
          "name": "",
          "type": "address"
        }
      ],
      "name": "tokenFactors",
      "outputs": [
        {
          "internalType": "uint16",
          "name": "borrowFactor",
          "type": "uint16"
        },
        {
          "internalType": "uint16",
          "name": "collateralFactor",
          "type": "uint16"
        },
        {
          "internalType": "uint16",
          "name": "liqIncentive",
          "type": "uint16"
        }
      ],
      "stateMutability": "view",
      "type": "function"
    },
    {
      "inputs": [
        {
          "internalType": "address[]",
          "name": "tokens",
          "type": "address[]"
        }
      ],
      "name": "unsetTokenFactors",
      "outputs": [],
      "stateMutability": "nonpayable",
      "type": "function"
    },
    {
      "inputs": [
        {
          "internalType": "address",
          "name": "",
          "type": "address"
        }
      ],
      "name": "whitelistERC1155",
      "outputs": [
        {
          "internalType": "bool",
          "name": "",
          "type": "bool"
        }
      ],
      "stateMutability": "view",
      "type": "function"
    }
  ],
  "bytecode": "60a06040523480156200001157600080fd5b5060405162001b2938038062001b29833981016040819052620000349162000176565b6001600160601b0319606082901b166080526200005062000057565b5062000208565b600054610100900460ff16806200007357506200007362000152565b8062000082575060005460ff16155b620000aa5760405162461bcd60e51b8152600401620000a190620001ba565b60405180910390fd5b600054610100900460ff16158015620000d6576000805460ff1961ff0019909116610100171660011790555b6000805462010000600160b01b0319163362010000810291909117909155600180546001600160a01b03191690556040517fbce074c8369e26e70e1ae2f14fc944da352cfe6f52e2de9572f0c9942a24b7fc916200013491620001a6565b60405180910390a180156200014f576000805461ff00191690555b50565b60006200016a306200017060201b6200110d1760201c565b15905090565b3b151590565b60006020828403121562000188578081fd5b81516001600160a01b03811681146200019f578182fd5b9392505050565b6001600160a01b0391909116815260200190565b6020808252602e908201527f496e697469616c697a61626c653a20636f6e747261637420697320616c72656160408201526d191e481a5b9a5d1a585b1a5e995960921b606082015260800190565b60805160601c6118ea6200023f600039806102cf528061065f52806107af5280610b2c5280610bb75280610d7152506118ea6000f3fe608060405234801561001057600080fd5b50600436106100f55760003560e01c80637851323011610097578063e58bb63911610066578063e58bb639146101eb578063e660cc08146101f3578063e7a9883e14610206578063f235757f14610219576100f5565b8063785132301461019b5780637b3b022d146101ae578063c38e795c146101d0578063e3056a34146101e3576100f5565b8063495621fb116100d3578063495621fb1461015857806355ab98ee1461016b5780636437388a1461017e57806367e828bf14610193576100f5565b80630c340a24146100fa5780631e3e3518146101185780632461a40914610138575b600080fd5b61010261022c565b60405161010f9190611508565b60405180910390f35b61012b6101263660046112d7565b610241565b60405161010f919061184c565b61014b6101463660046112ac565b6103a2565b60405161010f919061151c565b61014b61016636600461122f565b610478565b61012b610179366004611318565b61048d565b61019161018c366004611361565b6106da565b005b6101026107ad565b6101916101a936600461149c565b6107d1565b6101c16101bc36600461122f565b6108be565b60405161010f9392919061182e565b61012b6101de366004611267565b6108e9565b610102610cb8565b610191610cc7565b61014b61020136600461122f565b610d57565b61019161021436600461139c565b610e34565b61019161022736600461122f565b611087565b6000546201000090046001600160a01b031681565b600061024b611186565b506001600160a01b0384166000908152604260209081526040918290208251606081018452905461ffff8082168352620100008204811693830193909352600160201b9004909116918101829052906102bf5760405162461bcd60e51b81526004016102b690611645565b60405180910390fd5b6000610375600160701b61036f877f00000000000000000000000000000000000000000000000000000000000000006001600160a01b03166311e56aff8b6040518263ffffffff1660e01b81526004016103199190611508565b60206040518083038186803b15801561033157600080fd5b505afa158015610345573d6000803e3d6000fd5b505050506040513d601f19601f8201168201806040525081019061036991906114f0565b90611113565b90611154565b905061039861271061036f846000015161ffff168461111390919063ffffffff16565b9695505050505050565b6001600160a01b03821660009081526043602052604081205460ff166103ca57506000610472565b60405163523babb960e11b81526000906001600160a01b0385169063a4775772906103f990869060040161184c565b60206040518083038186803b15801561041157600080fd5b505afa158015610425573d6000803e3d6000fd5b505050506040513d601f19601f82011682018060405250810190610449919061124b565b6001600160a01b0316600090815260426020526040902054600160201b900461ffff1615159150505b92915050565b60436020526000908152604090205460ff1681565b6001600160a01b03841660009081526043602052604081205460ff166104c55760405162461bcd60e51b81526004016102b690611622565b60405163523babb960e11b81526000906001600160a01b0387169063a4775772906104f490889060040161184c565b60206040518083038186803b15801561050c57600080fd5b505afa158015610520573d6000803e3d6000fd5b505050506040513d601f19601f82011682018060405250810190610544919061124b565b90506000866001600160a01b031663af8002df876040518263ffffffff1660e01b8152600401610574919061184c565b60206040518083038186803b15801561058c57600080fd5b505afa1580156105a0573d6000803e3d6000fd5b505050506040513d601f19601f820116820180604052508101906105c491906114f0565b905060006105da600160701b61036f8885611113565b90506105e4611186565b506001600160a01b0383166000908152604260209081526040918290208251606081018452905461ffff8082168352620100008204811693830193909352600160201b90049091169181018290529061064f5760405162461bcd60e51b81526004016102b690611527565b60006106a9600160701b61036f857f00000000000000000000000000000000000000000000000000000000000000006001600160a01b03166311e56aff8a6040518263ffffffff1660e01b81526004016103199190611508565b90506106cc61271061036f846020015161ffff168461111390919063ffffffff16565b9a9950505050505050505050565b6000546201000090046001600160a01b0316331461070a5760405162461bcd60e51b81526004016102b6906115f8565b60005b81518110156107a9576042600083838151811061072657fe5b6020908102919091018101516001600160a01b03168252810191909152604001600020805465ffffffffffff19169055815182908290811061076457fe5b60200260200101516001600160a01b03167f995b73152d62a9a92bd554852db356f087e63690e0cb9656cedd21a8d0e27c1b60405160405180910390a260010161070d565b5050565b7f000000000000000000000000000000000000000000000000000000000000000081565b6000546201000090046001600160a01b031633146108015760405162461bcd60e51b81526004016102b6906115f8565b60005b82518110156108b957816043600085848151811061081e57fe5b60200260200101516001600160a01b03166001600160a01b0316815260200190815260200160002060006101000a81548160ff02191690831515021790555082818151811061086957fe5b60200260200101516001600160a01b03167ff6019ec0a78d156d249a1ec7579e2321f6ac7521d6e1d2eacf90ba4a184dcceb836040516108a9919061151c565b60405180910390a2600101610804565b505050565b60426020526000908152604090205461ffff80821691620100008104821691600160201b9091041683565b6001600160a01b03831660009081526043602052604081205460ff166109215760405162461bcd60e51b81526004016102b690611622565b60405163523babb960e11b81526000906001600160a01b0386169063a47757729061095090879060040161184c565b60206040518083038186803b15801561096857600080fd5b505afa15801561097c573d6000803e3d6000fd5b505050506040513d601f19601f820116820180604052508101906109a0919061124b565b90506000856001600160a01b031663af8002df866040518263ffffffff1660e01b81526004016109d0919061184c565b60206040518083038186803b1580156109e857600080fd5b505afa1580156109fc573d6000803e3d6000fd5b505050506040513d601f19601f82011682018060405250810190610a2091906114f0565b9050610a2a611186565b506001600160a01b0387166000908152604260209081526040918290208251606081018452905461ffff8082168352620100008204811693830193909352600160201b900490911691810191909152610a81611186565b506001600160a01b0383166000908152604260209081526040918290208251606081018452905461ffff8082168352620100008204811693830193909352600160201b90048216818401529183015116610aed5760405162461bcd60e51b81526004016102b690611775565b604081015161ffff16610b125760405162461bcd60e51b81526004016102b69061155e565b6040516311e56aff60e01b81526000906001600160a01b037f000000000000000000000000000000000000000000000000000000000000000016906311e56aff90610b61908d90600401611508565b60206040518083038186803b158015610b7957600080fd5b505afa158015610b8d573d6000803e3d6000fd5b505050506040513d601f19601f82011682018060405250810190610bb191906114f0565b905060007f00000000000000000000000000000000000000000000000000000000000000006001600160a01b03166311e56aff876040518263ffffffff1660e01b8152600401610c019190611508565b60206040518083038186803b158015610c1957600080fd5b505afa158015610c2d573d6000803e3d6000fd5b505050506040513d601f19601f82011682018060405250810190610c5191906114f0565b90506000610c638261036f8b86611113565b9050610c778661036f83600160701b611113565b9050610ca86305f5e10061036f866040015161ffff16610369896040015161ffff168661111390919063ffffffff16565b9c9b505050505050505050505050565b6001546001600160a01b031681565b6001546001600160a01b03163314610cf15760405162461bcd60e51b81526004016102b69061158a565b600180546001600160a01b03191690556000805462010000600160b01b03191633620100008102919091179091556040517fd345d81ce68c70b119a17eee79dc1421700bd9cb21ca148a62dc90983964e82f91610d4d91611508565b60405180910390a1565b6040516311e56aff60e01b81526000906001600160a01b037f000000000000000000000000000000000000000000000000000000000000000016906311e56aff90610da6908590600401611508565b60206040518083038186803b158015610dbe57600080fd5b505afa925050508015610dee575060408051601f3d908101601f19168201909252610deb918101906114f0565b60015b610dfa57506000610e2f565b8015801590610e2b57506001600160a01b038316600090815260426020526040902054600160201b900461ffff1615155b9150505b919050565b6000546201000090046001600160a01b03163314610e645760405162461bcd60e51b81526004016102b6906115f8565b8051825114610e855760405162461bcd60e51b81526004016102b6906117a0565b60005b82518110156108b957612710828281518110610ea057fe5b60200260200101516000015161ffff161015610ece5760405162461bcd60e51b81526004016102b690611732565b612710828281518110610edd57fe5b60200260200101516020015161ffff161115610f0b5760405162461bcd60e51b81526004016102b6906116b5565b612710828281518110610f1a57fe5b60200260200101516040015161ffff161015610f485760405162461bcd60e51b81526004016102b6906116fb565b614e20828281518110610f5757fe5b60200260200101516040015161ffff161115610f855760405162461bcd60e51b81526004016102b6906117cd565b818181518110610f9157fe5b602002602001015160426000858481518110610fa957fe5b6020908102919091018101516001600160a01b031682528181019290925260409081016000208351815493850151949092015161ffff1990931661ffff9283161763ffff0000191662010000948316949094029390931765ffff000000001916600160201b9190921602179055825183908290811061102457fe5b60200260200101516001600160a01b03167fc35b295ca62f561378f46da3a41b523fb1dc01cfb8d4036f8aa13363958ed45883838151811061106257fe5b60200260200101516040516110779190611804565b60405180910390a2600101610e88565b6000546201000090046001600160a01b031633146110b75760405162461bcd60e51b81526004016102b6906115f8565b600180546001600160a01b0319166001600160a01b0383161790556040517f964dea888b00b2ab53f13dfe7ca334b46e99338c222ae232d98547a1da019f6090611102908390611508565b60405180910390a150565b3b151590565b60008261112257506000610472565b8282028284828161112f57fe5b041461114d5760405162461bcd60e51b81526004016102b690611674565b9392505050565b60008082116111755760405162461bcd60e51b81526004016102b6906115c1565b81838161117e57fe5b049392505050565b604080516060810182526000808252602082018190529181019190915290565b600082601f8301126111b6578081fd5b81356111c96111c48261187c565b611855565b8181529150602080830190848101818402860182018710156111ea57600080fd5b60005b848110156112125781356112008161189c565b845292820192908201906001016111ed565b505050505092915050565b803561ffff8116811461047257600080fd5b600060208284031215611240578081fd5b813561114d8161189c565b60006020828403121561125c578081fd5b815161114d8161189c565b6000806000806080858703121561127c578283fd5b84356112878161189c565b935060208501356112978161189c565b93969395505050506040820135916060013590565b600080604083850312156112be578182fd5b82356112c98161189c565b946020939093013593505050565b6000806000606084860312156112eb578283fd5b83356112f68161189c565b925060208401359150604084013561130d8161189c565b809150509250925092565b6000806000806080858703121561132d578384fd5b84356113388161189c565b9350602085013592506040850135915060608501356113568161189c565b939692955090935050565b600060208284031215611372578081fd5b813567ffffffffffffffff811115611388578182fd5b611394848285016111a6565b949350505050565b60008060408084860312156113af578283fd5b833567ffffffffffffffff808211156113c6578485fd5b6113d2878388016111a6565b94506020915081860135818111156113e8578485fd5b86019050601f810187136113fa578384fd5b80356114086111c48261187c565b818152838101908385016060808502860187018c1015611426578889fd5b8895505b8486101561148b5780828d031215611440578889fd5b61144981611855565b6114538d8461121d565b81526114618d89850161121d565b888201526114718d8a850161121d565b818a0152845260019590950194928601929081019061142a565b50979a909950975050505050505050565b600080604083850312156114ae578182fd5b823567ffffffffffffffff8111156114c4578283fd5b6114d0858286016111a6565b925050602083013580151581146114e5578182fd5b809150509250929050565b600060208284031215611501578081fd5b5051919050565b6001600160a01b0391909116815260200190565b901515815260200190565b60208082526019908201527f62616420756e6465726c79696e6720636f6c6c61746572616c00000000000000604082015260600190565b602080825260129082015271189859081d5b99195c9b1e5a5b99c81bdd5d60721b604082015260600190565b60208082526018908201527f6e6f74207468652070656e64696e6720676f7665726e6f720000000000000000604082015260600190565b6020808252601a908201527f536166654d6174683a206469766973696f6e206279207a65726f000000000000604082015260600190565b60208082526010908201526f3737ba103a34329033b7bb32b93737b960811b604082015260600190565b6020808252600990820152683130b2103a37b5b2b760b91b604082015260600190565b60208082526015908201527462616420756e6465726c79696e6720626f72726f7760581b604082015260600190565b60208082526021908201527f536166654d6174683a206d756c7469706c69636174696f6e206f766572666c6f6040820152607760f81b606082015260800190565b60208082526026908201527f636f6c6c61746572616c20666163746f72206d757374206265206174206d6f7360408201526574203130302560d01b606082015260800190565b6020808252601f908201527f696e63656e74697665206d757374206265206174206c65617374203130302500604082015260600190565b60208082526023908201527f626f72726f7720666163746f72206d757374206265206174206c65617374203160408201526230302560e81b606082015260800190565b6020808252601190820152703130b2103ab73232b9363cb4b7339034b760791b604082015260600190565b6020808252601390820152720d2dcc6dedce6d2e6e8cadce840d8cadccee8d606b1b604082015260600190565b6020808252601e908201527f696e63656e74697665206d757374206265206174206d6f737420323030250000604082015260600190565b815161ffff9081168252602080840151821690830152604092830151169181019190915260600190565b61ffff93841681529183166020830152909116604082015260600190565b90815260200190565b60405181810167ffffffffffffffff8111828210171561187457600080fd5b604052919050565b600067ffffffffffffffff821115611892578081fd5b5060209081020190565b6001600160a01b03811681146118b157600080fd5b5056fea2646970667358221220c578ff249210f7c7b50c7afe2e3669b0a912c46d3135107cf2c0ca5296f8639c64736f6c634300060c0033",
  "bytecodeSha1": "4f0de3438ddfc0de0441e5f9f5c79cdda4fd46ab",
  "compiler": {
    "evm_version": "istanbul",
    "optimizer": {
      "enabled": true,
      "runs": 200
    },
    "version": "0.6.12+commit.27d51765"
  },
  "contractName": "ProxyOracle",
  "language": "Solidity",
  "natspec": {
    "kind": "dev",
    "methods": {
      "acceptGovernor()": {
        "details": "Accept to become the new governor. Must be called by the pending governor."
      },
      "asCELOBorrow(address,uint256,address)": {
        "details": "Return the value of the given input as CELO for borrow purpose.",
        "params": {
          "amount": "ERC20 token amount to get borrow value",
          "owner": "Token owner address (currently unused by this implementation)",
          "token": "ERC20 token address to get borrow value"
        }
      },
      "asCELOCollateral(address,uint256,uint256,address)": {
        "details": "Return the value of the given input as CELO for collateral purpose.",
        "params": {
          "amount": "Token amount to get collateral value",
          "id": "ERC1155 token id to get collateral value",
          "owner": "Token owner address (currently unused by this implementation)",
          "token": "ERC1155 token address to get collateral value"
        }
      },
      "constructor": {
        "details": "Create the contract and initialize the first governor."
      },
      "convertForLiquidation(address,address,uint256,uint256)": {
        "details": "Return the amount of token out as liquidation reward for liquidating token in.",
        "params": {
          "amountIn": "Input ERC20 token amount",
          "tokenIn": "Input ERC20 token",
          "tokenOut": "Output ERC1155 token",
          "tokenOutId": "Output ERC1155 token id"
        }
      },
      "setPendingGovernor(address)": {
        "details": "Set the pending governor, which will be the governor once accepted.",
        "params": {
          "_pendingGovernor": "The address to become the pending governor."
        }
      },
      "setTokenFactors(address[],(uint16,uint16,uint16)[])": {
        "details": "Set oracle token factors for the given list of token addresses.",
        "params": {
          "_tokenFactors": "List of oracle token factors",
          "tokens": "List of tokens to set info"
        }
      },
      "setWhitelistERC1155(address[],bool)": {
        "details": "Set whitelist status for the given list of token addresses.",
        "params": {
          "ok": "Whitelist status",
          "tokens": "List of tokens to set whitelist status"
        }
      },
      "support(address)": {
        "details": "Return whether the ERC20 token is supported",
        "params": {
          "token": "The ERC20 token to check for support"
        }
      },
      "supportWrappedToken(address,uint256)": {
        "details": "Return whether the oracle supports evaluating collateral value of the given token.",
        "params": {
          "id": "ERC1155 token id to check for support",
          "token": "ERC1155 token address to check for support"
        }
      },
      "unsetTokenFactors(address[])": {
        "details": "Unset token factors for the given list of token addresses",
        "params": {
          "tokens": "List of tokens to unset info"
        }
      }
    },
    "version": 1
  },
  "opcodes": "PUSH1 0x80 PUSH1 0x40 MSTORE CALLVALUE DUP1 ISZERO PUSH2 0x10 JUMPI PUSH1 0x0 DUP1 REVERT JUMPDEST POP PUSH1 0x4 CALLDATASIZE LT PUSH2 0xF5 JUMPI PUSH1 0x0 CALLDATALOAD PUSH1 0xE0 SHR DUP1 PUSH4 0x78513230 GT PUSH2 0x97 JUMPI DUP1 PUSH4 0xE58BB639 GT PUSH2 0x66 JUMPI DUP1 PUSH4 0xE58BB639 EQ PUSH2 0x1EB JUMPI DUP1 PUSH4 0xE660CC08 EQ PUSH2 0x1F3 JUMPI DUP1 PUSH4 0xE7A9883E EQ PUSH2 0x206 JUMPI DUP1 PUSH4 0xF235757F EQ PUSH2 0x219 JUMPI PUSH2 0xF5 JUMP JUMPDEST DUP1 PUSH4 0x78513230 EQ PUSH2 0x19B JUMPI DUP1 PUSH4 0x7B3B022D EQ PUSH2 0x1AE JUMPI DUP1 PUSH4 0xC38E795C EQ PUSH2 0x1D0 JUMPI DUP1 PUSH4 0xE3056A34 EQ PUSH2 0x1E3 JUMPI PUSH2 0xF5 JUMP JUMPDEST DUP1 PUSH4 0x495621FB GT PUSH2 0xD3 JUMPI DUP1 PUSH4 0x495621FB EQ PUSH2 0x158 JUMPI DUP1 PUSH4 0x55AB98EE EQ PUSH2 0x16B JUMPI DUP1 PUSH4 0x6437388A EQ PUSH2 0x17E JUMPI DUP1 PUSH4 0x67E828BF EQ PUSH2 0x193 JUMPI PUSH2 0xF5 JUMP JUMPDEST DUP1 PUSH4 0xC340A24 EQ PUSH2 0xFA JUMPI DUP1 PUSH4 0x1E3E3518 EQ PUSH2 0x118 JUMPI DUP1 PUSH4 0x2461A409 EQ PUSH2 0x138 JUMPI JUMPDEST PUSH1 0x0 DUP1 REVERT JUMPDEST PUSH2 0x102 PUSH2 0x22C JUMP JUMPDEST PUSH1 0x40 MLOAD PUSH2 0x10F SWAP2 SWAP1 PUSH2 0x1508 JUMP JUMPDEST PUSH1 0x40 MLOAD DUP1 SWAP2 SUB SWAP1 RETURN JUMPDEST PUSH2 0x12B PUSH2 0x126 CALLDATASIZE PUSH1 0x4 PUSH2 0x12D7 JUMP JUMPDEST PUSH2 0x241 JUMP JUMPDEST PUSH1 0x40 MLOAD PUSH2 0x10F SWAP2 SWAP1 PUSH2 0x184C JUMP JUMPDEST PUSH2 0x14B PUSH2 0x146 CALLDATASIZE PUSH1 0x4 PUSH2 0x12AC JUMP JUMPDEST PUSH2 0x3A2 JUMP JUMPDEST PUSH1 0x40 MLOAD PUSH2 0x10F SWAP2 SWAP1 PUSH2 0x151C JUMP JUMPDEST PUSH2 0x14B PUSH2 0x166 CALLDATASIZE PUSH1 0x4 PUSH2 0x122F JUMP JUMPDEST PUSH2 0x478 JUMP JUMPDEST PUSH2 0x12B PUSH2 0x179 CALLDATASIZE PUSH1 0x4 PUSH2 0x1318 JUMP JUMPDEST PUSH2 0x48D JUMP JUMPDEST PUSH2 0x191 PUSH2 0x18C CALLDATASIZE PUSH1 0x4 PUSH2 0x1361 JUMP JUMPDEST PUSH2 0x6DA JUMP JUMPDEST STOP JUMPDEST PUSH2 0x102 PUSH2 0x7AD JUMP JUMPDEST PUSH2 0x191 PUSH2 0x1A9 CALLDATASIZE PUSH1 0x4 PUSH2 0x149C JUMP JUMPDEST PUSH2 0x7D1 JUMP JUMPDEST PUSH2 0x1C1 PUSH2 0x1BC CALLDATASIZE PUSH1 0x4 PUSH2 0x122F JUMP JUMPDEST PUSH2 0x8BE JUMP JUMPDEST PUSH1 0x40 MLOAD PUSH2 0x10F SWAP4 SWAP3 SWAP2 SWAP1 PUSH2 0x182E JUMP JUMPDEST PUSH2 0x12B PUSH2 0x1DE CALLDATASIZE PUSH1 0x4 PUSH2 0x1267 JUMP JUMPDEST PUSH2 0x8E9 JUMP JUMPDEST PUSH2 0x102 PUSH2 0xCB8 JUMP JUMPDEST PUSH2 0x191 PUSH2 0xCC7 JUMP JUMPDEST PUSH2 0x14B PUSH2 0x201 CALLDATASIZE PUSH1 0x4 PUSH2 0x122F JUMP JUMPDEST PUSH2 0xD57 JUMP JUMPDEST PUSH2 0x191 PUSH2 0x214 CALLDATASIZE PUSH1 0x4 PUSH2 0x139C JUMP JUMPDEST PUSH2 0xE34 JUMP JUMPDEST PUSH2 0x191 PUSH2 0x227 CALLDATASIZE PUSH1 0x4 PUSH2 0x122F JUMP JUMPDEST PUSH2 0x1087 JUMP JUMPDEST PUSH1 0x0 SLOAD PUSH3 0x10000 SWAP1 DIV PUSH1 0x1 PUSH1 0x1 PUSH1 0xA0 SHL SUB AND DUP2 JUMP JUMPDEST PUSH1 0x0 PUSH2 0x24B PUSH2 0x1186 JUMP JUMPDEST POP PUSH1 0x1 PUSH1 0x1 PUSH1 0xA0 SHL SUB DUP5 AND PUSH1 0x0 SWAP1 DUP2 MSTORE PUSH1 0x42 PUSH1 0x20 SWAP1 DUP2 MSTORE PUSH1 0x40 SWAP2 DUP3 SWAP1 KECCAK256 DUP3 MLOAD PUSH1 0x60 DUP2 ADD DUP5 MSTORE SWAP1 SLOAD PUSH2 0xFFFF DUP1 DUP3 AND DUP4 MSTORE PUSH3 0x10000 DUP3 DIV DUP2 AND SWAP4 DUP4 ADD SWAP4 SWAP1 SWAP4 MSTORE PUSH1 0x1 PUSH1 0x20 SHL SWAP1 DIV SWAP1 SWAP2 AND SWAP2 DUP2 ADD DUP3 SWAP1 MSTORE SWAP1 PUSH2 0x2BF JUMPI PUSH1 0x40 MLOAD PUSH3 0x461BCD PUSH1 0xE5 SHL DUP2 MSTORE PUSH1 0x4 ADD PUSH2 0x2B6 SWAP1 PUSH2 0x1645 JUMP JUMPDEST PUSH1 0x40 MLOAD DUP1 SWAP2 SUB SWAP1 REVERT JUMPDEST PUSH1 0x0 PUSH2 0x375 PUSH1 0x1 PUSH1 0x70 SHL PUSH2 0x36F DUP8 PUSH32 0x0 PUSH1 0x1 PUSH1 0x1 PUSH1 0xA0 SHL SUB AND PUSH4 0x11E56AFF DUP12 PUSH1 0x40 MLOAD DUP3 PUSH4 0xFFFFFFFF AND PUSH1 0xE0 SHL DUP2 MSTORE PUSH1 0x4 ADD PUSH2 0x319 SWAP2 SWAP1 PUSH2 0x1508 JUMP JUMPDEST PUSH1 0x20 PUSH1 0x40 MLOAD DUP1 DUP4 SUB DUP2 DUP7 DUP1 EXTCODESIZE ISZERO DUP1 ISZERO PUSH2 0x331 JUMPI PUSH1 0x0 DUP1 REVERT JUMPDEST POP GAS STATICCALL ISZERO DUP1 ISZERO PUSH2 0x345 JUMPI RETURNDATASIZE PUSH1 0x0 DUP1 RETURNDATACOPY RETURNDATASIZE PUSH1 0x0 REVERT JUMPDEST POP POP POP POP PUSH1 0x40 MLOAD RETURNDATASIZE PUSH1 0x1F NOT PUSH1 0x1F DUP3 ADD AND DUP3 ADD DUP1 PUSH1 0x40 MSTORE POP DUP2 ADD SWAP1 PUSH2 0x369 SWAP2 SWAP1 PUSH2 0x14F0 JUMP JUMPDEST SWAP1 PUSH2 0x1113 JUMP JUMPDEST SWAP1 PUSH2 0x1154 JUMP JUMPDEST SWAP1 POP PUSH2 0x398 PUSH2 0x2710 PUSH2 0x36F DUP5 PUSH1 0x0 ADD MLOAD PUSH2 0xFFFF AND DUP5 PUSH2 0x1113 SWAP1 SWAP2 SWAP1 PUSH4 0xFFFFFFFF AND JUMP JUMPDEST SWAP7 SWAP6 POP POP POP POP POP POP JUMP JUMPDEST PUSH1 0x1 PUSH1 0x1 PUSH1 0xA0 SHL SUB DUP3 AND PUSH1 0x0 SWAP1 DUP2 MSTORE PUSH1 0x43 PUSH1 0x20 MSTORE PUSH1 0x40 DUP2 KECCAK256 SLOAD PUSH1 0xFF AND PUSH2 0x3CA JUMPI POP PUSH1 0x0 PUSH2 0x472 JUMP JUMPDEST PUSH1 0x40 MLOAD PUSH4 0x523BABB9 PUSH1 0xE1 SHL DUP2 MSTORE PUSH1 0x0 SWAP1 PUSH1 0x1 PUSH1 0x1 PUSH1 0xA0 SHL SUB DUP6 AND SWAP1 PUSH4 0xA4775772 SWAP1 PUSH2 0x3F9 SWAP1 DUP7 SWAP1 PUSH1 0x4 ADD PUSH2 0x184C JUMP JUMPDEST PUSH1 0x20 PUSH1 0x40 MLOAD DUP1 DUP4 SUB DUP2 DUP7 DUP1 EXTCODESIZE ISZERO DUP1 ISZERO PUSH2 0x411 JUMPI PUSH1 0x0 DUP1 REVERT JUMPDEST POP GAS STATICCALL ISZERO DUP1 ISZERO PUSH2 0x425 JUMPI RETURNDATASIZE PUSH1 0x0 DUP1 RETURNDATACOPY RETURNDATASIZE PUSH1 0x0 REVERT JUMPDEST POP POP POP POP PUSH1 0x40 MLOAD RETURNDATASIZE PUSH1 0x1F NOT PUSH1 0x1F DUP3 ADD AND DUP3 ADD DUP1 PUSH1 0x40 MSTORE POP DUP2 ADD SWAP1 PUSH2 0x449 SWAP2 SWAP1 PUSH2 0x124B JUMP JUMPDEST PUSH1 0x1 PUSH1 0x1 PUSH1 0xA0 SHL SUB AND PUSH1 0x0 SWAP1 DUP2 MSTORE PUSH1 0x42 PUSH1 0x20 MSTORE PUSH1 0x40 SWAP1 KECCAK256 SLOAD PUSH1 0x1 PUSH1 0x20 SHL SWAP1 DIV PUSH2 0xFFFF AND ISZERO ISZERO SWAP2 POP POP JUMPDEST SWAP3 SWAP2 POP POP JUMP JUMPDEST PUSH1 0x43 PUSH1 0x20 MSTORE PUSH1 0x0 SWAP1 DUP2 MSTORE PUSH1 0x40 SWAP1 KECCAK256 SLOAD PUSH1 0xFF AND DUP2 JUMP JUMPDEST PUSH1 0x1 PUSH1 0x1 PUSH1 0xA0 SHL SUB DUP5 AND PUSH1 0x0 SWAP1 DUP2 MSTORE PUSH1 0x43 PUSH1 0x20 MSTORE PUSH1 0x40 DUP2 KECCAK256 SLOAD PUSH1 0xFF AND PUSH2 0x4C5 JUMPI PUSH1 0x40 MLOAD PUSH3 0x461BCD PUSH1 0xE5 SHL DUP2 MSTORE PUSH1 0x4 ADD PUSH2 0x2B6 SWAP1 PUSH2 0x1622 JUMP JUMPDEST PUSH1 0x40 MLOAD PUSH4 0x523BABB9 PUSH1 0xE1 SHL DUP2 MSTORE PUSH1 0x0 SWAP1 PUSH1 0x1 PUSH1 0x1 PUSH1 0xA0 SHL SUB DUP8 AND SWAP1 PUSH4 0xA4775772 SWAP1 PUSH2 0x4F4 SWAP1 DUP9 SWAP1 PUSH1 0x4 ADD PUSH2 0x184C JUMP JUMPDEST PUSH1 0x20 PUSH1 0x40 MLOAD DUP1 DUP4 SUB DUP2 DUP7 DUP1 EXTCODESIZE ISZERO DUP1 ISZERO PUSH2 0x50C JUMPI PUSH1 0x0 DUP1 REVERT JUMPDEST POP GAS STATICCALL ISZERO DUP1 ISZERO PUSH2 0x520 JUMPI RETURNDATASIZE PUSH1 0x0 DUP1 RETURNDATACOPY RETURNDATASIZE PUSH1 0x0 REVERT JUMPDEST POP POP POP POP PUSH1 0x40 MLOAD RETURNDATASIZE PUSH1 0x1F NOT PUSH1 0x1F DUP3 ADD AND DUP3 ADD DUP1 PUSH1 0x40 MSTORE POP DUP2 ADD SWAP1 PUSH2 0x544 SWAP2 SWAP1 PUSH2 0x124B JUMP JUMPDEST SWAP1 POP PUSH1 0x0 DUP7 PUSH1 0x1 PUSH1 0x1 PUSH1 0xA0 SHL SUB AND PUSH4 0xAF8002DF DUP8 PUSH1 0x40 MLOAD DUP3 PUSH4 0xFFFFFFFF AND PUSH1 0xE0 SHL DUP2 MSTORE PUSH1 0x4 ADD PUSH2 0x574 SWAP2 SWAP1 PUSH2 0x184C JUMP JUMPDEST PUSH1 0x20 PUSH1 0x40 MLOAD DUP1 DUP4 SUB DUP2 DUP7 DUP1 EXTCODESIZE ISZERO DUP1 ISZERO PUSH2 0x58C JUMPI PUSH1 0x0 DUP1 REVERT JUMPDEST POP GAS STATICCALL ISZERO DUP1 ISZERO PUSH2 0x5A0 JUMPI RETURNDATASIZE PUSH1 0x0 DUP1 RETURNDATACOPY RETURNDATASIZE PUSH1 0x0 REVERT JUMPDEST POP POP POP POP PUSH1 0x40 MLOAD RETURNDATASIZE PUSH1 0x1F NOT PUSH1 0x1F DUP3 ADD AND DUP3 ADD DUP1 PUSH1 0x40 MSTORE POP DUP2 ADD SWAP1 PUSH2 0x5C4 SWAP2 SWAP1 PUSH2 0x14F0 JUMP JUMPDEST SWAP1 POP PUSH1 0x0 PUSH2 0x5DA PUSH1 0x1 PUSH1 0x70 SHL PUSH2 0x36F DUP9 DUP6 PUSH2 0x1113 JUMP JUMPDEST SWAP1 POP PUSH2 0x5E4 PUSH2 0x1186 JUMP JUMPDEST POP PUSH1 0x1 PUSH1 0x1 PUSH1 0xA0 SHL SUB DUP4 AND PUSH1 0x0 SWAP1 DUP2 MSTORE PUSH1 0x42 PUSH1 0x20 SWAP1 DUP2 MSTORE PUSH1 0x40 SWAP2 DUP3 SWAP1 KECCAK256 DUP3 MLOAD PUSH1 0x60 DUP2 ADD DUP5 MSTORE SWAP1 SLOAD PUSH2 0xFFFF DUP1 DUP3 AND DUP4 MSTORE PUSH3 0x10000 DUP3 DIV DUP2 AND SWAP4 DUP4 ADD SWAP4 SWAP1 SWAP4 MSTORE PUSH1 0x1 PUSH1 0x20 SHL SWAP1 DIV SWAP1 SWAP2 AND SWAP2 DUP2 ADD DUP3 SWAP1 MSTORE SWAP1 PUSH2 0x64F JUMPI PUSH1 0x40 MLOAD PUSH3 0x461BCD PUSH1 0xE5 SHL DUP2 MSTORE PUSH1 0x4 ADD PUSH2 0x2B6 SWAP1 PUSH2 0x1527 JUMP JUMPDEST PUSH1 0x0 PUSH2 0x6A9 PUSH1 0x1 PUSH1 0x70 SHL PUSH2 0x36F DUP6 PUSH32 0x0 PUSH1 0x1 PUSH1 0x1 PUSH1 0xA0 SHL SUB AND PUSH4 0x11E56AFF DUP11 PUSH1 0x40 MLOAD DUP3 PUSH4 0xFFFFFFFF AND PUSH1 0xE0 SHL DUP2 MSTORE PUSH1 0x4 ADD PUSH2 0x319 SWAP2 SWAP1 PUSH2 0x1508 JUMP JUMPDEST SWAP1 POP PUSH2 0x6CC PUSH2 0x2710 PUSH2 0x36F DUP5 PUSH1 0x20 ADD MLOAD PUSH2 0xFFFF AND DUP5 PUSH2 0x1113 SWAP1 SWAP2 SWAP1 PUSH4 0xFFFFFFFF AND JUMP JUMPDEST SWAP11 SWAP10 POP POP POP POP POP POP POP POP POP POP JUMP JUMPDEST PUSH1 0x0 SLOAD PUSH3 0x10000 SWAP1 DIV PUSH1 0x1 PUSH1 0x1 PUSH1 0xA0 SHL SUB AND CALLER EQ PUSH2 0x70A JUMPI PUSH1 0x40 MLOAD PUSH3 0x461BCD PUSH1 0xE5 SHL DUP2 MSTORE PUSH1 0x4 ADD PUSH2 0x2B6 SWAP1 PUSH2 0x15F8 JUMP JUMPDEST PUSH1 0x0 JUMPDEST DUP2 MLOAD DUP2 LT ISZERO PUSH2 0x7A9 JUMPI PUSH1 0x42 PUSH1 0x0 DUP4 DUP4 DUP2 MLOAD DUP2 LT PUSH2 0x726 JUMPI INVALID JUMPDEST PUSH1 0x20 SWAP1 DUP2 MUL SWAP2 SWAP1 SWAP2 ADD DUP2 ADD MLOAD PUSH1 0x1 PUSH1 0x1 PUSH1 0xA0 SHL SUB AND DUP3 MSTORE DUP2 ADD SWAP2 SWAP1 SWAP2 MSTORE PUSH1 0x40 ADD PUSH1 0x0 KECCAK256 DUP1 SLOAD PUSH6 0xFFFFFFFFFFFF NOT AND SWAP1 SSTORE DUP2 MLOAD DUP3 SWAP1 DUP3 SWAP1 DUP2 LT PUSH2 0x764 JUMPI INVALID JUMPDEST PUSH1 0x20 MUL PUSH1 0x20 ADD ADD MLOAD PUSH1 0x1 PUSH1 0x1 PUSH1 0xA0 SHL SUB AND PUSH32 0x995B73152D62A9A92BD554852DB356F087E63690E0CB9656CEDD21A8D0E27C1B PUSH1 0x40 MLOAD PUSH1 0x40 MLOAD DUP1 SWAP2 SUB SWAP1 LOG2 PUSH1 0x1 ADD PUSH2 0x70D JUMP JUMPDEST POP POP JUMP JUMPDEST PUSH32 0x0 DUP2 JUMP JUMPDEST PUSH1 0x0 SLOAD PUSH3 0x10000 SWAP1 DIV PUSH1 0x1 PUSH1 0x1 PUSH1 0xA0 SHL SUB AND CALLER EQ PUSH2 0x801 JUMPI PUSH1 0x40 MLOAD PUSH3 0x461BCD PUSH1 0xE5 SHL DUP2 MSTORE PUSH1 0x4 ADD PUSH2 0x2B6 SWAP1 PUSH2 0x15F8 JUMP JUMPDEST PUSH1 0x0 JUMPDEST DUP3 MLOAD DUP2 LT ISZERO PUSH2 0x8B9 JUMPI DUP2 PUSH1 0x43 PUSH1 0x0 DUP6 DUP5 DUP2 MLOAD DUP2 LT PUSH2 0x81E JUMPI INVALID JUMPDEST PUSH1 0x20 MUL PUSH1 0x20 ADD ADD MLOAD PUSH1 0x1 PUSH1 0x1 PUSH1 0xA0 SHL SUB AND PUSH1 0x1 PUSH1 0x1 PUSH1 0xA0 SHL SUB AND DUP2 MSTORE PUSH1 0x20 ADD SWAP1 DUP2 MSTORE PUSH1 0x20 ADD PUSH1 0x0 KECCAK256 PUSH1 0x0 PUSH2 0x100 EXP DUP2 SLOAD DUP2 PUSH1 0xFF MUL NOT AND SWAP1 DUP4 ISZERO ISZERO MUL OR SWAP1 SSTORE POP DUP3 DUP2 DUP2 MLOAD DUP2 LT PUSH2 0x869 JUMPI INVALID JUMPDEST PUSH1 0x20 MUL PUSH1 0x20 ADD ADD MLOAD PUSH1 0x1 PUSH1 0x1 PUSH1 0xA0 SHL SUB AND PUSH32 0xF6019EC0A78D156D249A1EC7579E2321F6AC7521D6E1D2EACF90BA4A184DCCEB DUP4 PUSH1 0x40 MLOAD PUSH2 0x8A9 SWAP2 SWAP1 PUSH2 0x151C JUMP JUMPDEST PUSH1 0x40 MLOAD DUP1 SWAP2 SUB SWAP1 LOG2 PUSH1 0x1 ADD PUSH2 0x804 JUMP JUMPDEST POP POP POP JUMP JUMPDEST PUSH1 0x42 PUSH1 0x20 MSTORE PUSH1 0x0 SWAP1 DUP2 MSTORE PUSH1 0x40 SWAP1 KECCAK256 SLOAD PUSH2 0xFFFF DUP1 DUP3 AND SWAP2 PUSH3 0x10000 DUP2 DIV DUP3 AND SWAP2 PUSH1 0x1 PUSH1 0x20 SHL SWAP1 SWAP2 DIV AND DUP4 JUMP JUMPDEST PUSH1 0x1 PUSH1 0x1 PUSH1 0xA0 SHL SUB DUP4 AND PUSH1 0x0 SWAP1 DUP2 MSTORE PUSH1 0x43 PUSH1 0x20 MSTORE PUSH1 0x40 DUP2 KECCAK256 SLOAD PUSH1 0xFF AND PUSH2 0x921 JUMPI PUSH1 0x40 MLOAD PUSH3 0x461BCD PUSH1 0xE5 SHL DUP2 MSTORE PUSH1 0x4 ADD PUSH2 0x2B6 SWAP1 PUSH2 0x1622 JUMP JUMPDEST PUSH1 0x40 MLOAD PUSH4 0x523BABB9 PUSH1 0xE1 SHL DUP2 MSTORE PUSH1 0x0 SWAP1 PUSH1 0x1 PUSH1 0x1 PUSH1 0xA0 SHL SUB DUP7 AND SWAP1 PUSH4 0xA4775772 SWAP1 PUSH2 0x950 SWAP1 DUP8 SWAP1 PUSH1 0x4 ADD PUSH2 0x184C JUMP JUMPDEST PUSH1 0x20 PUSH1 0x40 MLOAD DUP1 DUP4 SUB DUP2 DUP7 DUP1 EXTCODESIZE ISZERO DUP1 ISZERO PUSH2 0x968 JUMPI PUSH1 0x0 DUP1 REVERT JUMPDEST POP GAS STATICCALL ISZERO DUP1 ISZERO PUSH2 0x97C JUMPI RETURNDATASIZE PUSH1 0x0 DUP1 RETURNDATACOPY RETURNDATASIZE PUSH1 0x0 REVERT JUMPDEST POP POP POP POP PUSH1 0x40 MLOAD RETURNDATASIZE PUSH1 0x1F NOT PUSH1 0x1F DUP3 ADD AND DUP3 ADD DUP1 PUSH1 0x40 MSTORE POP DUP2 ADD SWAP1 PUSH2 0x9A0 SWAP2 SWAP1 PUSH2 0x124B JUMP JUMPDEST SWAP1 POP PUSH1 0x0 DUP6 PUSH1 0x1 PUSH1 0x1 PUSH1 0xA0 SHL SUB AND PUSH4 0xAF8002DF DUP7 PUSH1 0x40 MLOAD DUP3 PUSH4 0xFFFFFFFF AND PUSH1 0xE0 SHL DUP2 MSTORE PUSH1 0x4 ADD PUSH2 0x9D0 SWAP2 SWAP1 PUSH2 0x184C JUMP JUMPDEST PUSH1 0x20 PUSH1 0x40 MLOAD DUP1 DUP4 SUB DUP2 DUP7 DUP1 EXTCODESIZE ISZERO DUP1 ISZERO PUSH2 0x9E8 JUMPI PUSH1 0x0 DUP1 REVERT JUMPDEST POP GAS STATICCALL ISZERO DUP1 ISZERO PUSH2 0x9FC JUMPI RETURNDATASIZE PUSH1 0x0 DUP1 RETURNDATACOPY RETURNDATASIZE PUSH1 0x0 REVERT JUMPDEST POP POP POP POP PUSH1 0x40 MLOAD RETURNDATASIZE PUSH1 0x1F NOT PUSH1 0x1F DUP3 ADD AND DUP3 ADD DUP1 PUSH1 0x40 MSTORE POP DUP2 ADD SWAP1 PUSH2 0xA20 SWAP2 SWAP1 PUSH2 0x14F0 JUMP JUMPDEST SWAP1 POP PUSH2 0xA2A PUSH2 0x1186 JUMP JUMPDEST POP PUSH1 0x1 PUSH1 0x1 PUSH1 0xA0 SHL SUB DUP8 AND PUSH1 0x0 SWAP1 DUP2 MSTORE PUSH1 0x42 PUSH1 0x20 SWAP1 DUP2 MSTORE PUSH1 0x40 SWAP2 DUP3 SWAP1 KECCAK256 DUP3 MLOAD PUSH1 0x60 DUP2 ADD DUP5 MSTORE SWAP1 SLOAD PUSH2 0xFFFF DUP1 DUP3 AND DUP4 MSTORE PUSH3 0x10000 DUP3 DIV DUP2 AND SWAP4 DUP4 ADD SWAP4 SWAP1 SWAP4 MSTORE PUSH1 0x1 PUSH1 0x20 SHL SWAP1 DIV SWAP1 SWAP2 AND SWAP2 DUP2 ADD SWAP2 SWAP1 SWAP2 MSTORE PUSH2 0xA81 PUSH2 0x1186 JUMP JUMPDEST POP PUSH1 0x1 PUSH1 0x1 PUSH1 0xA0 SHL SUB DUP4 AND PUSH1 0x0 SWAP1 DUP2 MSTORE PUSH1 0x42 PUSH1 0x20 SWAP1 DUP2 MSTORE PUSH1 0x40 SWAP2 DUP3 SWAP1 KECCAK256 DUP3 MLOAD PUSH1 0x60 DUP2 ADD DUP5 MSTORE SWAP1 SLOAD PUSH2 0xFFFF DUP1 DUP3 AND DUP4 MSTORE PUSH3 0x10000 DUP3 DIV DUP2 AND SWAP4 DUP4 ADD SWAP4 SWAP1 SWAP4 MSTORE PUSH1 0x1 PUSH1 0x20 SHL SWAP1 DIV DUP3 AND DUP2 DUP5 ADD MSTORE SWAP2 DUP4 ADD MLOAD AND PUSH2 0xAED JUMPI PUSH1 0x40 MLOAD PUSH3 0x461BCD PUSH1 0xE5 SHL DUP2 MSTORE PUSH1 0x4 ADD PUSH2 0x2B6 SWAP1 PUSH2 0x1775 JUMP JUMPDEST PUSH1 0x40 DUP2 ADD MLOAD PUSH2 0xFFFF AND PUSH2 0xB12 JUMPI PUSH1 0x40 MLOAD PUSH3 0x461BCD PUSH1 0xE5 SHL DUP2 MSTORE PUSH1 0x4 ADD PUSH2 0x2B6 SWAP1 PUSH2 0x155E JUMP JUMPDEST PUSH1 0x40 MLOAD PUSH4 0x11E56AFF PUSH1 0xE0 SHL DUP2 MSTORE PUSH1 0x0 SWAP1 PUSH1 0x1 PUSH1 0x1 PUSH1 0xA0 SHL SUB PUSH32 0x0 AND SWAP1 PUSH4 0x11E56AFF SWAP1 PUSH2 0xB61 SWAP1 DUP14 SWAP1 PUSH1 0x4 ADD PUSH2 0x1508 JUMP JUMPDEST PUSH1 0x20 PUSH1 0x40 MLOAD DUP1 DUP4 SUB DUP2 DUP7 DUP1 EXTCODESIZE ISZERO DUP1 ISZERO PUSH2 0xB79 JUMPI PUSH1 0x0 DUP1 REVERT JUMPDEST POP GAS STATICCALL ISZERO DUP1 ISZERO PUSH2 0xB8D JUMPI RETURNDATASIZE PUSH1 0x0 DUP1 RETURNDATACOPY RETURNDATASIZE PUSH1 0x0 REVERT JUMPDEST POP POP POP POP PUSH1 0x40 MLOAD RETURNDATASIZE PUSH1 0x1F NOT PUSH1 0x1F DUP3 ADD AND DUP3 ADD DUP1 PUSH1 0x40 MSTORE POP DUP2 ADD SWAP1 PUSH2 0xBB1 SWAP2 SWAP1 PUSH2 0x14F0 JUMP JUMPDEST SWAP1 POP PUSH1 0x0 PUSH32 0x0 PUSH1 0x1 PUSH1 0x1 PUSH1 0xA0 SHL SUB AND PUSH4 0x11E56AFF DUP8 PUSH1 0x40 MLOAD DUP3 PUSH4 0xFFFFFFFF AND PUSH1 0xE0 SHL DUP2 MSTORE PUSH1 0x4 ADD PUSH2 0xC01 SWAP2 SWAP1 PUSH2 0x1508 JUMP JUMPDEST PUSH1 0x20 PUSH1 0x40 MLOAD DUP1 DUP4 SUB DUP2 DUP7 DUP1 EXTCODESIZE ISZERO DUP1 ISZERO PUSH2 0xC19 JUMPI PUSH1 0x0 DUP1 REVERT JUMPDEST POP GAS STATICCALL ISZERO DUP1 ISZERO PUSH2 0xC2D JUMPI RETURNDATASIZE PUSH1 0x0 DUP1 RETURNDATACOPY RETURNDATASIZE PUSH1 0x0 REVERT JUMPDEST POP POP POP POP PUSH1 0x40 MLOAD RETURNDATASIZE PUSH1 0x1F NOT PUSH1 0x1F DUP3 ADD AND DUP3 ADD DUP1 PUSH1 0x40 MSTORE POP DUP2 ADD SWAP1 PUSH2 0xC51 SWAP2 SWAP1 PUSH2 0x14F0 JUMP JUMPDEST SWAP1 POP PUSH1 0x0 PUSH2 0xC63 DUP3 PUSH2 0x36F DUP12 DUP7 PUSH2 0x1113 JUMP JUMPDEST SWAP1 POP PUSH2 0xC77 DUP7 PUSH2 0x36F DUP4 PUSH1 0x1 PUSH1 0x70 SHL PUSH2 0x1113 JUMP JUMPDEST SWAP1 POP PUSH2 0xCA8 PUSH4 0x5F5E100 PUSH2 0x36F DUP7 PUSH1 0x40 ADD MLOAD PUSH2 0xFFFF AND PUSH2 0x369 DUP10 PUSH1 0x40 ADD MLOAD PUSH2 0xFFFF AND DUP7 PUSH2 0x1113 SWAP1 SWAP2 SWAP1 PUSH4 0xFFFFFFFF AND JUMP JUMPDEST SWAP13 SWAP12 POP POP POP POP POP POP POP POP POP POP POP POP JUMP JUMPDEST PUSH1 0x1 SLOAD PUSH1 0x1 PUSH1 0x1 PUSH1 0xA0 SHL SUB AND DUP2 JUMP JUMPDEST PUSH1 0x1 SLOAD PUSH1 0x1 PUSH1 0x1 PUSH1 0xA0 SHL SUB AND CALLER EQ PUSH2 0xCF1 JUMPI PUSH1 0x40 MLOAD PUSH3 0x461BCD PUSH1 0xE5 SHL DUP2 MSTORE PUSH1 0x4 ADD PUSH2 0x2B6 SWAP1 PUSH2 0x158A JUMP JUMPDEST PUSH1 0x1 DUP1 SLOAD PUSH1 0x1 PUSH1 0x1 PUSH1 0xA0 SHL SUB NOT AND SWAP1 SSTORE PUSH1 0x0 DUP1 SLOAD PUSH3 0x10000 PUSH1 0x1 PUSH1 0xB0 SHL SUB NOT AND CALLER PUSH3 0x10000 DUP2 MUL SWAP2 SWAP1 SWAP2 OR SWAP1 SWAP2 SSTORE PUSH1 0x40 MLOAD PUSH32 0xD345D81CE68C70B119A17EEE79DC1421700BD9CB21CA148A62DC90983964E82F SWAP2 PUSH2 0xD4D SWAP2 PUSH2 0x1508 JUMP JUMPDEST PUSH1 0x40 MLOAD DUP1 SWAP2 SUB SWAP1 LOG1 JUMP JUMPDEST PUSH1 0x40 MLOAD PUSH4 0x11E56AFF PUSH1 0xE0 SHL DUP2 MSTORE PUSH1 0x0 SWAP1 PUSH1 0x1 PUSH1 0x1 PUSH1 0xA0 SHL SUB PUSH32 0x0 AND SWAP1 PUSH4 0x11E56AFF SWAP1 PUSH2 0xDA6 SWAP1 DUP6 SWAP1 PUSH1 0x4 ADD PUSH2 0x1508 JUMP JUMPDEST PUSH1 0x20 PUSH1 0x40 MLOAD DUP1 DUP4 SUB DUP2 DUP7 DUP1 EXTCODESIZE ISZERO DUP1 ISZERO PUSH2 0xDBE JUMPI PUSH1 0x0 DUP1 REVERT JUMPDEST POP GAS STATICCALL SWAP3 POP POP POP DUP1 ISZERO PUSH2 0xDEE JUMPI POP PUSH1 0x40 DUP1 MLOAD PUSH1 0x1F RETURNDATASIZE SWAP1 DUP2 ADD PUSH1 0x1F NOT AND DUP3 ADD SWAP1 SWAP3 MSTORE PUSH2 0xDEB SWAP2 DUP2 ADD SWAP1 PUSH2 0x14F0 JUMP JUMPDEST PUSH1 0x1 JUMPDEST PUSH2 0xDFA JUMPI POP PUSH1 0x0 PUSH2 0xE2F JUMP JUMPDEST DUP1 ISZERO DUP1 ISZERO SWAP1 PUSH2 0xE2B JUMPI POP PUSH1 0x1 PUSH1 0x1 PUSH1 0xA0 SHL SUB DUP4 AND PUSH1 0x0 SWAP1 DUP2 MSTORE PUSH1 0x42 PUSH1 0x20 MSTORE PUSH1 0x40 SWAP1 KECCAK256 SLOAD PUSH1 0x1 PUSH1 0x20 SHL SWAP1 DIV PUSH2 0xFFFF AND ISZERO ISZERO JUMPDEST SWAP2 POP POP JUMPDEST SWAP2 SWAP1 POP JUMP JUMPDEST PUSH1 0x0 SLOAD PUSH3 0x10000 SWAP1 DIV PUSH1 0x1 PUSH1 0x1 PUSH1 0xA0 SHL SUB AND CALLER EQ PUSH2 0xE64 JUMPI PUSH1 0x40 MLOAD PUSH3 0x461BCD PUSH1 0xE5 SHL DUP2 MSTORE PUSH1 0x4 ADD PUSH2 0x2B6 SWAP1 PUSH2 0x15F8 JUMP JUMPDEST DUP1 MLOAD DUP3 MLOAD EQ PUSH2 0xE85 JUMPI PUSH1 0x40 MLOAD PUSH3 0x461BCD PUSH1 0xE5 SHL DUP2 MSTORE PUSH1 0x4 ADD PUSH2 0x2B6 SWAP1 PUSH2 0x17A0 JUMP JUMPDEST PUSH1 0x0 JUMPDEST DUP3 MLOAD DUP2 LT ISZERO PUSH2 0x8B9 JUMPI PUSH2 0x2710 DUP3 DUP3 DUP2 MLOAD DUP2 LT PUSH2 0xEA0 JUMPI INVALID JUMPDEST PUSH1 0x20 MUL PUSH1 0x20 ADD ADD MLOAD PUSH1 0x0 ADD MLOAD PUSH2 0xFFFF AND LT ISZERO PUSH2 0xECE JUMPI PUSH1 0x40 MLOAD PUSH3 0x461BCD PUSH1 0xE5 SHL DUP2 MSTORE PUSH1 0x4 ADD PUSH2 0x2B6 SWAP1 PUSH2 0x1732 JUMP JUMPDEST PUSH2 0x2710 DUP3 DUP3 DUP2 MLOAD DUP2 LT PUSH2 0xEDD JUMPI INVALID JUMPDEST PUSH1 0x20 MUL PUSH1 0x20 ADD ADD MLOAD PUSH1 0x20 ADD MLOAD PUSH2 0xFFFF AND GT ISZERO PUSH2 0xF0B JUMPI PUSH1 0x40 MLOAD PUSH3 0x461BCD PUSH1 0xE5 SHL DUP2 MSTORE PUSH1 0x4 ADD PUSH2 0x2B6 SWAP1 PUSH2 0x16B5 JUMP JUMPDEST PUSH2 0x2710 DUP3 DUP3 DUP2 MLOAD DUP2 LT PUSH2 0xF1A JUMPI INVALID JUMPDEST PUSH1 0x20 MUL PUSH1 0x20 ADD ADD MLOAD PUSH1 0x40 ADD MLOAD PUSH2 0xFFFF AND LT ISZERO PUSH2 0xF48 JUMPI PUSH1 0x40 MLOAD PUSH3 0x461BCD PUSH1 0xE5 SHL DUP2 MSTORE PUSH1 0x4 ADD PUSH2 0x2B6 SWAP1 PUSH2 0x16FB JUMP JUMPDEST PUSH2 0x4E20 DUP3 DUP3 DUP2 MLOAD DUP2 LT PUSH2 0xF57 JUMPI INVALID JUMPDEST PUSH1 0x20 MUL PUSH1 0x20 ADD ADD MLOAD PUSH1 0x40 ADD MLOAD PUSH2 0xFFFF AND GT ISZERO PUSH2 0xF85 JUMPI PUSH1 0x40 MLOAD PUSH3 0x461BCD PUSH1 0xE5 SHL DUP2 MSTORE PUSH1 0x4 ADD PUSH2 0x2B6 SWAP1 PUSH2 0x17CD JUMP JUMPDEST DUP2 DUP2 DUP2 MLOAD DUP2 LT PUSH2 0xF91 JUMPI INVALID JUMPDEST PUSH1 0x20 MUL PUSH1 0x20 ADD ADD MLOAD PUSH1 0x42 PUSH1 0x0 DUP6 DUP5 DUP2 MLOAD DUP2 LT PUSH2 0xFA9 JUMPI INVALID JUMPDEST PUSH1 0x20 SWAP1 DUP2 MUL SWAP2 SWAP1 SWAP2 ADD DUP2 ADD MLOAD PUSH1 0x1 PUSH1 0x1 PUSH1 0xA0 SHL SUB AND DUP3 MSTORE DUP2 DUP2 ADD SWAP3 SWAP1 SWAP3 MSTORE PUSH1 0x40 SWAP1 DUP2 ADD PUSH1 0x0 KECCAK256 DUP4 MLOAD DUP2 SLOAD SWAP4 DUP6 ADD MLOAD SWAP5 SWAP1 SWAP3 ADD MLOAD PUSH2 0xFFFF NOT SWAP1 SWAP4 AND PUSH2 0xFFFF SWAP3 DUP4 AND OR PUSH4 0xFFFF0000 NOT AND PUSH3 0x10000 SWAP5 DUP4 AND SWAP5 SWAP1 SWAP5 MUL SWAP4 SWAP1 SWAP4 OR PUSH6 0xFFFF00000000 NOT AND PUSH1 0x1 PUSH1 0x20 SHL SWAP2 SWAP1 SWAP3 AND MUL OR SWAP1 SSTORE DUP3 MLOAD DUP4 SWAP1 DUP3 SWAP1 DUP2 LT PUSH2 0x1024 JUMPI INVALID JUMPDEST PUSH1 0x20 MUL PUSH1 0x20 ADD ADD MLOAD PUSH1 0x1 PUSH1 0x1 PUSH1 0xA0 SHL SUB AND PUSH32 0xC35B295CA62F561378F46DA3A41B523FB1DC01CFB8D4036F8AA13363958ED458 DUP4 DUP4 DUP2 MLOAD DUP2 LT PUSH2 0x1062 JUMPI INVALID JUMPDEST PUSH1 0x20 MUL PUSH1 0x20 ADD ADD MLOAD PUSH1 0x40 MLOAD PUSH2 0x1077 SWAP2 SWAP1 PUSH2 0x1804 JUMP JUMPDEST PUSH1 0x40 MLOAD DUP1 SWAP2 SUB SWAP1 LOG2 PUSH1 0x1 ADD PUSH2 0xE88 JUMP JUMPDEST PUSH1 0x0 SLOAD PUSH3 0x10000 SWAP1 DIV PUSH1 0x1 PUSH1 0x1 PUSH1 0xA0 SHL SUB AND CALLER EQ PUSH2 0x10B7 JUMPI PUSH1 0x40 MLOAD PUSH3 0x461BCD PUSH1 0xE5 SHL DUP2 MSTORE PUSH1 0x4 ADD PUSH2 0x2B6 SWAP1 PUSH2 0x15F8 JUMP JUMPDEST PUSH1 0x1 DUP1 SLOAD PUSH1 0x1 PUSH1 0x1 PUSH1 0xA0 SHL SUB NOT AND PUSH1 0x1 PUSH1 0x1 PUSH1 0xA0 SHL SUB DUP4 AND OR SWAP1 SSTORE PUSH1 0x40 MLOAD PUSH32 0x964DEA888B00B2AB53F13DFE7CA334B46E99338C222AE232D98547A1DA019F60 SWAP1 PUSH2 0x1102 SWAP1 DUP4 SWAP1 PUSH2 0x1508 JUMP JUMPDEST PUSH1 0x40 MLOAD DUP1 SWAP2 SUB SWAP1 LOG1 POP JUMP JUMPDEST EXTCODESIZE ISZERO ISZERO SWAP1 JUMP JUMPDEST PUSH1 0x0 DUP3 PUSH2 0x1122 JUMPI POP PUSH1 0x0 PUSH2 0x472 JUMP JUMPDEST DUP3 DUP3 MUL DUP3 DUP5 DUP3 DUP2 PUSH2 0x112F JUMPI INVALID JUMPDEST DIV EQ PUSH2 0x114D JUMPI PUSH1 0x40 MLOAD PUSH3 0x461BCD PUSH1 0xE5 SHL DUP2 MSTORE PUSH1 0x4 ADD PUSH2 0x2B6 SWAP1 PUSH2 0x1674 JUMP JUMPDEST SWAP4 SWAP3 POP POP POP JUMP JUMPDEST PUSH1 0x0 DUP1 DUP3 GT PUSH2 0x1175 JUMPI PUSH1 0x40 MLOAD PUSH3 0x461BCD PUSH1 0xE5 SHL DUP2 MSTORE PUSH1 0x4 ADD PUSH2 0x2B6 SWAP1 PUSH2 0x15C1 JUMP JUMPDEST DUP2 DUP4 DUP2 PUSH2 0x117E JUMPI INVALID JUMPDEST DIV SWAP4 SWAP3 POP POP POP JUMP JUMPDEST PUSH1 0x40 DUP1 MLOAD PUSH1 0x60 DUP2 ADD DUP3 MSTORE PUSH1 0x0 DUP1 DUP3 MSTORE PUSH1 0x20 DUP3 ADD DUP2 SWAP1 MSTORE SWAP2 DUP2 ADD SWAP2 SWAP1 SWAP2 MSTORE SWAP1 JUMP JUMPDEST PUSH1 0x0 DUP3 PUSH1 0x1F DUP4 ADD SLT PUSH2 0x11B6 JUMPI DUP1 DUP2 REVERT JUMPDEST DUP2 CALLDATALOAD PUSH2 0x11C9 PUSH2 0x11C4 DUP3 PUSH2 0x187C JUMP JUMPDEST PUSH2 0x1855 JUMP JUMPDEST DUP2 DUP2 MSTORE SWAP2 POP PUSH1 0x20 DUP1 DUP4 ADD SWAP1 DUP5 DUP2 ADD DUP2 DUP5 MUL DUP7 ADD DUP3 ADD DUP8 LT ISZERO PUSH2 0x11EA JUMPI PUSH1 0x0 DUP1 REVERT JUMPDEST PUSH1 0x0 JUMPDEST DUP5 DUP2 LT ISZERO PUSH2 0x1212 JUMPI DUP2 CALLDATALOAD PUSH2 0x1200 DUP2 PUSH2 0x189C JUMP JUMPDEST DUP5 MSTORE SWAP3 DUP3 ADD SWAP3 SWAP1 DUP3 ADD SWAP1 PUSH1 0x1 ADD PUSH2 0x11ED JUMP JUMPDEST POP POP POP POP POP SWAP3 SWAP2 POP POP JUMP JUMPDEST DUP1 CALLDATALOAD PUSH2 0xFFFF DUP2 AND DUP2 EQ PUSH2 0x472 JUMPI PUSH1 0x0 DUP1 REVERT JUMPDEST PUSH1 0x0 PUSH1 0x20 DUP3 DUP5 SUB SLT ISZERO PUSH2 0x1240 JUMPI DUP1 DUP2 REVERT JUMPDEST DUP2 CALLDATALOAD PUSH2 0x114D DUP2 PUSH2 0x189C JUMP JUMPDEST PUSH1 0x0 PUSH1 0x20 DUP3 DUP5 SUB SLT ISZERO PUSH2 0x125C JUMPI DUP1 DUP2 REVERT JUMPDEST DUP2 MLOAD PUSH2 0x114D DUP2 PUSH2 0x189C JUMP JUMPDEST PUSH1 0x0 DUP1 PUSH1 0x0 DUP1 PUSH1 0x80 DUP6 DUP8 SUB SLT ISZERO PUSH2 0x127C JUMPI DUP3 DUP4 REVERT JUMPDEST DUP5 CALLDATALOAD PUSH2 0x1287 DUP2 PUSH2 0x189C JUMP JUMPDEST SWAP4 POP PUSH1 0x20 DUP6 ADD CALLDATALOAD PUSH2 0x1297 DUP2 PUSH2 0x189C JUMP JUMPDEST SWAP4 SWAP7 SWAP4 SWAP6 POP POP POP POP PUSH1 0x40 DUP3 ADD CALLDATALOAD SWAP2 PUSH1 0x60 ADD CALLDATALOAD SWAP1 JUMP JUMPDEST PUSH1 0x0 DUP1 PUSH1 0x40 DUP4 DUP6 SUB SLT ISZERO PUSH2 0x12BE JUMPI DUP2 DUP3 REVERT JUMPDEST DUP3 CALLDATALOAD PUSH2 0x12C9 DUP2 PUSH2 0x189C JUMP JUMPDEST SWAP5 PUSH1 0x20 SWAP4 SWAP1 SWAP4 ADD CALLDATALOAD SWAP4 POP POP POP JUMP JUMPDEST PUSH1 0x0 DUP1 PUSH1 0x0 PUSH1 0x60 DUP5 DUP7 SUB SLT ISZERO PUSH2 0x12EB JUMPI DUP3 DUP4 REVERT JUMPDEST DUP4 CALLDATALOAD PUSH2 0x12F6 DUP2 PUSH2 0x189C JUMP JUMPDEST SWAP3 POP PUSH1 0x20 DUP5 ADD CALLDATALOAD SWAP2 POP PUSH1 0x40 DUP5 ADD CALLDATALOAD PUSH2 0x130D DUP2 PUSH2 0x189C JUMP JUMPDEST DUP1 SWAP2 POP POP SWAP3 POP SWAP3 POP SWAP3 JUMP JUMPDEST PUSH1 0x0 DUP1 PUSH1 0x0 DUP1 PUSH1 0x80 DUP6 DUP8 SUB SLT ISZERO PUSH2 0x132D JUMPI DUP4 DUP5 REVERT JUMPDEST DUP5 CALLDATALOAD PUSH2 0x1338 DUP2 PUSH2 0x189C JUMP JUMPDEST SWAP4 POP PUSH1 0x20 DUP6 ADD CALLDATALOAD SWAP3 POP PUSH1 0x40 DUP6 ADD CALLDATALOAD SWAP2 POP PUSH1 0x60 DUP6 ADD CALLDATALOAD PUSH2 0x1356 DUP2 PUSH2 0x189C JUMP JUMPDEST SWAP4 SWAP7 SWAP3 SWAP6 POP SWAP1 SWAP4 POP POP JUMP JUMPDEST PUSH1 0x0 PUSH1 0x20 DUP3 DUP5 SUB SLT ISZERO PUSH2 0x1372 JUMPI DUP1 DUP2 REVERT JUMPDEST DUP2 CALLDATALOAD PUSH8 0xFFFFFFFFFFFFFFFF DUP2 GT ISZERO PUSH2 0x1388 JUMPI DUP2 DUP3 REVERT JUMPDEST PUSH2 0x1394 DUP5 DUP3 DUP6 ADD PUSH2 0x11A6 JUMP JUMPDEST SWAP5 SWAP4 POP POP POP POP JUMP JUMPDEST PUSH1 0x0 DUP1 PUSH1 0x40 DUP1 DUP5 DUP7 SUB SLT ISZERO PUSH2 0x13AF JUMPI DUP3 DUP4 REVERT JUMPDEST DUP4 CALLDATALOAD PUSH8 0xFFFFFFFFFFFFFFFF DUP1 DUP3 GT ISZERO PUSH2 0x13C6 JUMPI DUP5 DUP6 REVERT JUMPDEST PUSH2 0x13D2 DUP8 DUP4 DUP9 ADD PUSH2 0x11A6 JUMP JUMPDEST SWAP5 POP PUSH1 0x20 SWAP2 POP DUP2 DUP7 ADD CALLDATALOAD DUP2 DUP2 GT ISZERO PUSH2 0x13E8 JUMPI DUP5 DUP6 REVERT JUMPDEST DUP7 ADD SWAP1 POP PUSH1 0x1F DUP2 ADD DUP8 SGT PUSH2 0x13FA JUMPI DUP4 DUP5 REVERT JUMPDEST DUP1 CALLDATALOAD PUSH2 0x1408 PUSH2 0x11C4 DUP3 PUSH2 0x187C JUMP JUMPDEST DUP2 DUP2 MSTORE DUP4 DUP2 ADD SWAP1 DUP4 DUP6 ADD PUSH1 0x60 DUP1 DUP6 MUL DUP7 ADD DUP8 ADD DUP13 LT ISZERO PUSH2 0x1426 JUMPI DUP9 DUP10 REVERT JUMPDEST DUP9 SWAP6 POP JUMPDEST DUP5 DUP7 LT ISZERO PUSH2 0x148B JUMPI DUP1 DUP3 DUP14 SUB SLT ISZERO PUSH2 0x1440 JUMPI DUP9 DUP10 REVERT JUMPDEST PUSH2 0x1449 DUP2 PUSH2 0x1855 JUMP JUMPDEST PUSH2 0x1453 DUP14 DUP5 PUSH2 0x121D JUMP JUMPDEST DUP2 MSTORE PUSH2 0x1461 DUP14 DUP10 DUP6 ADD PUSH2 0x121D JUMP JUMPDEST DUP9 DUP3 ADD MSTORE PUSH2 0x1471 DUP14 DUP11 DUP6 ADD PUSH2 0x121D JUMP JUMPDEST DUP2 DUP11 ADD MSTORE DUP5 MSTORE PUSH1 0x1 SWAP6 SWAP1 SWAP6 ADD SWAP5 SWAP3 DUP7 ADD SWAP3 SWAP1 DUP2 ADD SWAP1 PUSH2 0x142A JUMP JUMPDEST POP SWAP8 SWAP11 SWAP1 SWAP10 POP SWAP8 POP POP POP POP POP POP POP POP JUMP JUMPDEST PUSH1 0x0 DUP1 PUSH1 0x40 DUP4 DUP6 SUB SLT ISZERO PUSH2 0x14AE JUMPI DUP2 DUP3 REVERT JUMPDEST DUP3 CALLDATALOAD PUSH8 0xFFFFFFFFFFFFFFFF DUP2 GT ISZERO PUSH2 0x14C4 JUMPI DUP3 DUP4 REVERT JUMPDEST PUSH2 0x14D0 DUP6 DUP3 DUP7 ADD PUSH2 0x11A6 JUMP JUMPDEST SWAP3 POP POP PUSH1 0x20 DUP4 ADD CALLDATALOAD DUP1 ISZERO ISZERO DUP2 EQ PUSH2 0x14E5 JUMPI DUP2 DUP3 REVERT JUMPDEST DUP1 SWAP2 POP POP SWAP3 POP SWAP3 SWAP1 POP JUMP JUMPDEST PUSH1 0x0 PUSH1 0x20 DUP3 DUP5 SUB SLT ISZERO PUSH2 0x1501 JUMPI DUP1 DUP2 REVERT JUMPDEST POP MLOAD SWAP2 SWAP1 POP JUMP JUMPDEST PUSH1 0x1 PUSH1 0x1 PUSH1 0xA0 SHL SUB SWAP2 SWAP1 SWAP2 AND DUP2 MSTORE PUSH1 0x20 ADD SWAP1 JUMP JUMPDEST SWAP1 ISZERO ISZERO DUP2 MSTORE PUSH1 0x20 ADD SWAP1 JUMP JUMPDEST PUSH1 0x20 DUP1 DUP3 MSTORE PUSH1 0x19 SWAP1 DUP3 ADD MSTORE PUSH32 0x62616420756E6465726C79696E6720636F6C6C61746572616C00000000000000 PUSH1 0x40 DUP3 ADD MSTORE PUSH1 0x60 ADD SWAP1 JUMP JUMPDEST PUSH1 0x20 DUP1 DUP3 MSTORE PUSH1 0x12 SWAP1 DUP3 ADD MSTORE PUSH18 0x189859081D5B99195C9B1E5A5B99C81BDD5D PUSH1 0x72 SHL PUSH1 0x40 DUP3 ADD MSTORE PUSH1 0x60 ADD SWAP1 JUMP JUMPDEST PUSH1 0x20 DUP1 DUP3 MSTORE PUSH1 0x18 SWAP1 DUP3 ADD MSTORE PUSH32 0x6E6F74207468652070656E64696E6720676F7665726E6F720000000000000000 PUSH1 0x40 DUP3 ADD MSTORE PUSH1 0x60 ADD SWAP1 JUMP JUMPDEST PUSH1 0x20 DUP1 DUP3 MSTORE PUSH1 0x1A SWAP1 DUP3 ADD MSTORE PUSH32 0x536166654D6174683A206469766973696F6E206279207A65726F000000000000 PUSH1 0x40 DUP3 ADD MSTORE PUSH1 0x60 ADD SWAP1 JUMP JUMPDEST PUSH1 0x20 DUP1 DUP3 MSTORE PUSH1 0x10 SWAP1 DUP3 ADD MSTORE PUSH16 0x3737BA103A34329033B7BB32B93737B9 PUSH1 0x81 SHL PUSH1 0x40 DUP3 ADD MSTORE PUSH1 0x60 ADD SWAP1 JUMP JUMPDEST PUSH1 0x20 DUP1 DUP3 MSTORE PUSH1 0x9 SWAP1 DUP3 ADD MSTORE PUSH9 0x3130B2103A37B5B2B7 PUSH1 0xB9 SHL PUSH1 0x40 DUP3 ADD MSTORE PUSH1 0x60 ADD SWAP1 JUMP JUMPDEST PUSH1 0x20 DUP1 DUP3 MSTORE PUSH1 0x15 SWAP1 DUP3 ADD MSTORE PUSH21 0x62616420756E6465726C79696E6720626F72726F77 PUSH1 0x58 SHL PUSH1 0x40 DUP3 ADD MSTORE PUSH1 0x60 ADD SWAP1 JUMP JUMPDEST PUSH1 0x20 DUP1 DUP3 MSTORE PUSH1 0x21 SWAP1 DUP3 ADD MSTORE PUSH32 0x536166654D6174683A206D756C7469706C69636174696F6E206F766572666C6F PUSH1 0x40 DUP3 ADD MSTORE PUSH1 0x77 PUSH1 0xF8 SHL PUSH1 0x60 DUP3 ADD MSTORE PUSH1 0x80 ADD SWAP1 JUMP JUMPDEST PUSH1 0x20 DUP1 DUP3 MSTORE PUSH1 0x26 SWAP1 DUP3 ADD MSTORE PUSH32 0x636F6C6C61746572616C20666163746F72206D757374206265206174206D6F73 PUSH1 0x40 DUP3 ADD MSTORE PUSH6 0x742031303025 PUSH1 0xD0 SHL PUSH1 0x60 DUP3 ADD MSTORE PUSH1 0x80 ADD SWAP1 JUMP JUMPDEST PUSH1 0x20 DUP1 DUP3 MSTORE PUSH1 0x1F SWAP1 DUP3 ADD MSTORE PUSH32 0x696E63656E74697665206D757374206265206174206C65617374203130302500 PUSH1 0x40 DUP3 ADD MSTORE PUSH1 0x60 ADD SWAP1 JUMP JUMPDEST PUSH1 0x20 DUP1 DUP3 MSTORE PUSH1 0x23 SWAP1 DUP3 ADD MSTORE PUSH32 0x626F72726F7720666163746F72206D757374206265206174206C656173742031 PUSH1 0x40 DUP3 ADD MSTORE PUSH3 0x303025 PUSH1 0xE8 SHL PUSH1 0x60 DUP3 ADD MSTORE PUSH1 0x80 ADD SWAP1 JUMP JUMPDEST PUSH1 0x20 DUP1 DUP3 MSTORE PUSH1 0x11 SWAP1 DUP3 ADD MSTORE PUSH17 0x3130B2103AB73232B9363CB4B7339034B7 PUSH1 0x79 SHL PUSH1 0x40 DUP3 ADD MSTORE PUSH1 0x60 ADD SWAP1 JUMP JUMPDEST PUSH1 0x20 DUP1 DUP3 MSTORE PUSH1 0x13 SWAP1 DUP3 ADD MSTORE PUSH19 0xD2DCC6DEDCE6D2E6E8CADCE840D8CADCCEE8D PUSH1 0x6B SHL PUSH1 0x40 DUP3 ADD MSTORE PUSH1 0x60 ADD SWAP1 JUMP JUMPDEST PUSH1 0x20 DUP1 DUP3 MSTORE PUSH1 0x1E SWAP1 DUP3 ADD MSTORE PUSH32 0x696E63656E74697665206D757374206265206174206D6F737420323030250000 PUSH1 0x40 DUP3 ADD MSTORE PUSH1 0x60 ADD SWAP1 JUMP JUMPDEST DUP2 MLOAD PUSH2 0xFFFF SWAP1 DUP2 AND DUP3 MSTORE PUSH1 0x20 DUP1 DUP5 ADD MLOAD DUP3 AND SWAP1 DUP4 ADD MSTORE PUSH1 0x40 SWAP3 DUP4 ADD MLOAD AND SWAP2 DUP2 ADD SWAP2 SWAP1 SWAP2 MSTORE PUSH1 0x60 ADD SWAP1 JUMP JUMPDEST PUSH2 0xFFFF SWAP4 DUP5 AND DUP2 MSTORE SWAP2 DUP4 AND PUSH1 0x20 DUP4 ADD MSTORE SWAP1 SWAP2 AND PUSH1 0x40 DUP3 ADD MSTORE PUSH1 0x60 ADD SWAP1 JUMP JUMPDEST SWAP1 DUP2 MSTORE PUSH1 0x20 ADD SWAP1 JUMP JUMPDEST PUSH1 0x40 MLOAD DUP2 DUP2 ADD PUSH8 0xFFFFFFFFFFFFFFFF DUP2 GT DUP3 DUP3 LT OR ISZERO PUSH2 0x1874 JUMPI PUSH1 0x0 DUP1 REVERT JUMPDEST PUSH1 0x40 MSTORE SWAP2 SWAP1 POP JUMP JUMPDEST PUSH1 0x0 PUSH8 0xFFFFFFFFFFFFFFFF DUP3 GT ISZERO PUSH2 0x1892 JUMPI DUP1 DUP2 REVERT JUMPDEST POP PUSH1 0x20 SWAP1 DUP2 MUL ADD SWAP1 JUMP JUMPDEST PUSH1 0x1 PUSH1 0x1 PUSH1 0xA0 SHL SUB DUP2 AND DUP2 EQ PUSH2 0x18B1 JUMPI PUSH1 0x0 DUP1 REVERT JUMPDEST POP JUMP INVALID LOG2 PUSH5 0x6970667358 0x22 SLT KECCAK256 0xC5 PUSH25 0xFF249210F7C7B50C7AFE2E3669B0A912C46D3135107CF2C0CA MSTORE SWAP7 0xF8 PUSH4 0x9C64736F PUSH13 0x634300060C0033000000000000 ",
  "sha1": "375c83e38966a042be637d4d584b6b2062e36a40",
  "source": "// SPDX-License-Identifier: MIT\n\npragma solidity 0.6.12;\npragma experimental ABIEncoderV2;\n\nimport 'OpenZeppelin/openzeppelin-contracts@3.4.0/contracts/math/SafeMath.sol';\n\nimport '../Governable.sol';\nimport '../../interfaces/IOracle.sol';\nimport '../../interfaces/IBaseOracle.sol';\nimport '../../interfaces/IERC20Wrapper.sol';\n\ncontract ProxyOracle is IOracle, Governable {\n  using SafeMath for uint;\n\n  /// The governor sets oracle token factor for a token.\n  event SetTokenFactor(address indexed token, TokenFactors tokenFactor);\n  /// The governor unsets oracle token factor for a token.\n  event UnsetTokenFactor(address indexed token);\n  /// The governor sets token whitelist for an ERC1155 token.\n  event SetWhitelist(address indexed token, bool ok);\n\n  struct TokenFactors {\n    uint16 borrowFactor; // The borrow factor for this token, multiplied by 1e4.\n    uint16 collateralFactor; // The collateral factor for this token, multiplied by 1e4.\n    uint16 liqIncentive; // The liquidation incentive, multiplied by 1e4.\n  }\n\n  IBaseOracle public immutable source; // Main oracle source\n  mapping(address => TokenFactors) public tokenFactors; // Mapping from token address to oracle info.\n  mapping(address => bool) public whitelistERC1155; // Mapping from token address to whitelist status\n\n  /// @dev Create the contract and initialize the first governor.\n  constructor(IBaseOracle _source) public {\n    source = _source;\n    __Governable__init();\n  }\n\n  /// @dev Set oracle token factors for the given list of token addresses.\n  /// @param tokens List of tokens to set info\n  /// @param _tokenFactors List of oracle token factors\n  function setTokenFactors(address[] memory tokens, TokenFactors[] memory _tokenFactors)\n    external\n    onlyGov\n  {\n    require(tokens.length == _tokenFactors.length, 'inconsistent length');\n    for (uint idx = 0; idx < tokens.length; idx++) {\n      require(_tokenFactors[idx].borrowFactor >= 10000, 'borrow factor must be at least 100%');\n      require(\n        _tokenFactors[idx].collateralFactor <= 10000,\n        'collateral factor must be at most 100%'\n      );\n      require(_tokenFactors[idx].liqIncentive >= 10000, 'incentive must be at least 100%');\n      require(_tokenFactors[idx].liqIncentive <= 20000, 'incentive must be at most 200%');\n      tokenFactors[tokens[idx]] = _tokenFactors[idx];\n      emit SetTokenFactor(tokens[idx], _tokenFactors[idx]);\n    }\n  }\n\n  /// @dev Unset token factors for the given list of token addresses\n  /// @param tokens List of tokens to unset info\n  function unsetTokenFactors(address[] memory tokens) external onlyGov {\n    for (uint idx = 0; idx < tokens.length; idx++) {\n      delete tokenFactors[tokens[idx]];\n      emit UnsetTokenFactor(tokens[idx]);\n    }\n  }\n\n  /// @dev Set whitelist status for the given list of token addresses.\n  /// @param tokens List of tokens to set whitelist status\n  /// @param ok Whitelist status\n  function setWhitelistERC1155(address[] memory tokens, bool ok) external onlyGov {\n    for (uint idx = 0; idx < tokens.length; idx++) {\n      whitelistERC1155[tokens[idx]] = ok;\n      emit SetWhitelist(tokens[idx], ok);\n    }\n  }\n\n  /// @dev Return whether the oracle supports evaluating collateral value of the given token.\n  /// @param token ERC1155 token address to check for support\n  /// @param id ERC1155 token id to check for support\n  function supportWrappedToken(address token, uint id) external view override returns (bool) {\n    if (!whitelistERC1155[token]) return false;\n    address tokenUnderlying = IERC20Wrapper(token).getUnderlyingToken(id);\n    return tokenFactors[tokenUnderlying].liqIncentive != 0;\n  }\n\n  /// @dev Return the amount of token out as liquidation reward for liquidating token in.\n  /// @param tokenIn Input ERC20 token\n  /// @param tokenOut Output ERC1155 token\n  /// @param tokenOutId Output ERC1155 token id\n  /// @param amountIn Input ERC20 token amount\n  function convertForLiquidation(\n    address tokenIn,\n    address tokenOut,\n    uint tokenOutId,\n    uint amountIn\n  ) external view override returns (uint) {\n    require(whitelistERC1155[tokenOut], 'bad token');\n    address tokenOutUnderlying = IERC20Wrapper(tokenOut).getUnderlyingToken(tokenOutId);\n    uint rateUnderlying = IERC20Wrapper(tokenOut).getUnderlyingRate(tokenOutId);\n    TokenFactors memory tokenFactorIn = tokenFactors[tokenIn];\n    TokenFactors memory tokenFactorOut = tokenFactors[tokenOutUnderlying];\n    require(tokenFactorIn.liqIncentive != 0, 'bad underlying in');\n    require(tokenFactorOut.liqIncentive != 0, 'bad underlying out');\n    uint pxIn = source.getCELOPx(tokenIn);\n    uint pxOut = source.getCELOPx(tokenOutUnderlying);\n    uint amountOut = amountIn.mul(pxIn).div(pxOut);\n    amountOut = amountOut.mul(2**112).div(rateUnderlying);\n    return\n      amountOut.mul(tokenFactorIn.liqIncentive).mul(tokenFactorOut.liqIncentive).div(10000 * 10000);\n  }\n\n  /// @dev Return the value of the given input as CELO for collateral purpose.\n  /// @param token ERC1155 token address to get collateral value\n  /// @param id ERC1155 token id to get collateral value\n  /// @param amount Token amount to get collateral value\n  /// @param owner Token owner address (currently unused by this implementation)\n  function asCELOCollateral(\n    address token,\n    uint id,\n    uint amount,\n    address owner\n  ) external view override returns (uint) {\n    require(whitelistERC1155[token], 'bad token');\n    address tokenUnderlying = IERC20Wrapper(token).getUnderlyingToken(id);\n    uint rateUnderlying = IERC20Wrapper(token).getUnderlyingRate(id);\n    uint amountUnderlying = amount.mul(rateUnderlying).div(2**112);\n    TokenFactors memory tokenFactor = tokenFactors[tokenUnderlying];\n    require(tokenFactor.liqIncentive != 0, 'bad underlying collateral');\n    uint celoValue = source.getCELOPx(tokenUnderlying).mul(amountUnderlying).div(2**112);\n    return celoValue.mul(tokenFactor.collateralFactor).div(10000);\n  }\n\n  /// @dev Return the value of the given input as CELO for borrow purpose.\n  /// @param token ERC20 token address to get borrow value\n  /// @param amount ERC20 token amount to get borrow value\n  /// @param owner Token owner address (currently unused by this implementation)\n  function asCELOBorrow(\n    address token,\n    uint amount,\n    address owner\n  ) external view override returns (uint) {\n    TokenFactors memory tokenFactor = tokenFactors[token];\n    require(tokenFactor.liqIncentive != 0, 'bad underlying borrow');\n    uint celoValue = source.getCELOPx(token).mul(amount).div(2**112);\n    return celoValue.mul(tokenFactor.borrowFactor).div(10000);\n  }\n\n  /// @dev Return whether the ERC20 token is supported\n  /// @param token The ERC20 token to check for support\n  function support(address token) external view override returns (bool) {\n    try source.getCELOPx(token) returns (uint px) {\n      return px != 0 && tokenFactors[token].liqIncentive != 0;\n    } catch {\n      return false;\n    }\n  }\n}\n",
  "sourcePath": "contracts/oracle/ProxyOracle.sol",
  "type": "contract"
}